:1000000034C1000063C1000061C100005FC1000095
:100010005DC100005BC1000059C1000057C1000074
:1000200055C100000C94381C0C94381C0C94381CDE
:100030004DC100004BC1000049C1000047C1000094
:1000400045C1000043C1000041C100003FC10000A4
:100050003DC100003BC1000039C100000C949D145B
:1000600035C100000C946F130C9446132FC100008F
:100070002DC100002BC1000029C1000027C10000D4
:1000800025C1000023C1000021C100001FC10000E4
:100090000C941D130C94F41219C100000C94E71475
:1000A00015C1000013C1000011C100000FC1000004
:1000B0000DC100000BC1000009C1000007C1000014
:1000C00005C1000003C1000001C100000C94CB1267
:1000D0000C94A212FBC000000C9479120C945012E4
:1000E000F5C00000C10CC10CE60CE60CFA05DD0CF5
:1000F000FC0CFC0CFC0CFC0CFC0CFC0CFC0CFC0CC0
:10010000C10CE60C1A061A065E0D5E0D970DCF0D9A
:100110005306530653065306530653065306530617
:10012000DF0D320EB313B613A513A913AF13ED13DE
:10013000BA13BE13C413C813CC13D213D613DA13D5
:10014000ED13E013E413E81300002100240027005E
:100150002A002D00300033000101000004010701D6
:100160000A0100002200250028002B002E0031008B
:10017000340002010000050108010B010505050519
:10018000070508080808020202020A0A080804040F
:10019000040401010101010101010303030303033D
:1001A0000303040707070C0C0C0C0C0C0C0C0202CC
:1001B000020206060606060606060B0B0B0B0B0BC9
:1001C0000B0B010210202008081020401020408056
:1001D000020102010804020101020408102040800B
:1001E0008040201008040201800402018040201099
:1001F00008040201080402010102040810204080E2
:10020000010204081020408000000A0B02090C0DB6
:100210000E080703040100000000000000000000B9
:1002200000000000000000000000000000000000CE
:10023000000000001211100000000000000000008B
:1002400000000000000000000000000000000000AE
:1002500020002300260029002C002F00320000017E
:100260000000030106010901FD2F11241FBECFEF7D
:10027000D1E2DEBFCDBF00E00CBF29E0A0E4B2E0D8
:1002800001C01D92A83CB207E1F712E0A0E0B2E085
:10029000E2EEF7E600E00BBF02C007900D92A0343B
:1002A000B107D9F711E0C5E3D1E000E006C021971E
:1002B0000109802FFE010E944F31C433D10780E035
:1002C0000807A9F70E944A1F0C94EF3399CE2F928A
:1002D0003F924F925F926F927F928F929F92AF92D6
:1002E000BF92CF92DF92EF92FF920F931F93CF9323
:1002F000DF9300D01F92CDB7DEB71C01FC01E3589D
:10030000FF4F808191012F5A3F4F3C832B838823DD
:1003100009F465C00E9491146B017C01EB81FC81A2
:1003200080809180A280B380F101EB5AFF4F2DECC9
:100330003CEC4CE45DE360817181828193810E9499
:1003400062332B013C018101075A1F4F20E030E04E
:1003500040EB51E4C501B4010E945731F8012081FE
:100360003181428153810E9462339B01AC01C30100
:10037000B2010E945731F101E35AFF4F20813181D0
:10038000428153810E94C0312B013C01F1E62F0EC6
:10039000311CF10180819181B601681B790B072E18
:1003A000000C880B990B0E945B329B01AC01C301CE
:1003B000B2010E9462339B01AC01C501B4010E94ED
:1003C0005831EB81FC8160837183828393830E9427
:1003D0009114F101608371838283938347C081010B
:1003E000045C1F4FC8010E94C71C61E0C8010E9445
:1003F000B51C19821A8222E0AE014F5F5F4F61E0A7
:10040000C8010E94D317698170E0762F66278A8120
:10041000682B7695679580E090E00E94593220E045
:1004200030E040E058E30E946233F101E758FF4FAB
:1004300020813181428153810E946233F101EF5862
:10044000FF4F20813181428153810E946233F1014B
:10045000EB58FF4F20813181428153810E945831F6
:10046000EB81FC816083718382839383EB81FC81C8
:1004700060817181828193810F900F900F900F9016
:10048000DF91CF911F910F91FF90EF90DF90CF9070
:10049000BF90AF909F908F907F906F905F904F90A4
:1004A0003F902F900895AF92BF92CF92DF92EF923C
:1004B000FF920F931F93FC01EB59FF4F4083518331
:1004C000628373833496008311832283338334964B
:1004D000C082D182E282F382FC01A28CB38C0E94A2
:1004E00099161F910F91FF90EF90DF90CF90BF90E2
:1004F000AF9008950E9491140E94593220E030E09C
:100500004AE754E40C94C0311F93CF93DF93EC017E
:100510000E949618182FCE0101960E949618282F37
:1005200030E0922F8827810F911DDF91CF911F918D
:1005300008950F931F93CF93DF938C01EB01CB01B1
:10054000E3DF0817190759F0602FCE010E942E181B
:10055000612FCE0101960E942E1881E001C080E03B
:10056000DF91CF911F910F910895FC0112AEEB5ACC
:10057000FF4F1082118212821382B89620812111BE
:1005800008C0FA9740E050E06081805C9F4F0C9477
:10059000841708952F923F924F925F926F927F92AD
:1005A0008F929F92AF92BF92CF92DF92EF92FF9283
:1005B0000F931F93CF93DF93CDB7DEB72F970FB66F
:1005C000F894DEBF0FBECDBF9F878E87DC01DA9621
:1005D0008C91DA9781113DC05E96ED91FC915F9709
:1005E000C080D180E280F380FD01C6A2D7A2E0A640
:1005F000F1A65C96ED91FC915D9780819181A2813D
:10060000B381EE85FF8582A793A7A4A7B5A786A887
:1006100097A8A0ACB1ACA5019401C701B6010E9496
:100620005E33181674F0EE85FF8582A893A8A4A8FF
:10063000B5A8A5019401C701B6010E94BC3187FF8E
:1006400008C0AE85BF8596968D929D92AD92BC9264
:10065000999781E0EE85FF8582AFCF0138DEAE85C8
:10066000BF85DA968C91882309F426C10E949114E3
:100670006D837E838F839887EE85FF8582A193A10A
:10068000A4A1B5A14D815E816F817885481B590B6E
:100690006A0B7B0B86A597A5A0A9B1A94817590796
:1006A0006A077B0708F408C1248D358DD9018D9127
:1006B0009D910D90BC91A02D89839A83AB83BC83BF
:1006C00000A0F1A1E02D9C01AD01608171818281CA
:1006D00093810E9457314B015C01EE85FF8522A575
:1006E00033A544A555A569817A818B819C810E949F
:1006F00057316B017C01AE85BF8550962D913D91A0
:100700004D915C915397C501B4010E946233EE850F
:10071000FF8526A137A140A551A50E9458312B0184
:100720003C01AE85BF8596966D937D938D939C938A
:100730009997DB96BC91B987B11118C0EE85FF85FA
:100740002485358546855785C701B6010E946233E9
:100750009B01AC01C301B2010E945731AE85BF8538
:1007600096966D937D938D939C939997EE85FF85D7
:1007700046A057A060A471A416A907A930AC21AC6B
:10078000212F302F432D522DC301B2010E945E3321
:1007900018162CF4812F902FA32DB22D18C0AE85E2
:1007A000BF85D2968D919D910D90BC91A02D8A8789
:1007B0009B87AC87BD879C01AD01C301B2010E943C
:1007C000BC3187FF0AC08A859B85AC85BD85EE85D7
:1007D000FF8586A397A3A0A7B1A7F985FF2379F08A
:1007E000AE85BF851C962D913D914D915C911F97D3
:1007F000C501B4010E9462334B015C0103C0812C2E
:10080000912C5401EE85FF852489358946895789C5
:10081000C701B6010E9462339B01AC01AE85BF8562
:1008200096966D917D918D919C9199970E945731EB
:100830009B01AC01C501B4010E9458316B017C01E0
:10084000212F302F432D522D0E945E331816A4F015
:10085000EE85FF8512A903A934A825A8212F302FE2
:10086000432D522DB601C7010E94BC3187FD04C043
:100870001C2D0D2D3E2C2F2CAE85BF855E96ED9147
:10088000FC915F97812F902FA32DB22D80839183B0
:10089000A283B38389819A81AB81BC81EE85FF8578
:1008A00082A793A7A4A7B5A78D819E81AF81B885A4
:1008B00082A393A3A4A3B5A3EE85FF85E358FF4FBE
:1008C000808181112EC0EE85FF85EB5AFF4F60813C
:1008D0007181828193810E942D32EE85FF85ED5BCF
:1008E000FF4FAB0160818E859F85805C9F4F2F9667
:1008F0000FB6F894DEBF0FBECDBFDF91CF911F9131
:100900000F91FF90EF90DF90CF90BF90AF909F90AE
:100910008F907F906F905F904F903F902F900C94AE
:1009200084172F960FB6F894DEBF0FBECDBFDF91B0
:10093000CF911F910F91FF90EF90DF90CF90BF90DC
:10094000AF909F908F907F906F905F904F903F906F
:100950002F9008958F929F92AF92BF92CF92DF9285
:10096000EF92FF92CF93DF93EC016A017B01FC01D0
:10097000E35BFF4F80809180A280B380A50194014A
:10098000C701B6010E945E33C258DF4F18162CF41F
:1009900088829982AA82BB8212C020E030E0A9013D
:1009A000C701B6010E94BC3187FF05C018821982B9
:1009B0001A821B8204C0C882D982EA82FB82DF913C
:1009C000CF91FF90EF90DF90CF90BF90AF909F902E
:1009D0008F9008958F929F92AF92BF92CF92DF92A5
:1009E000EF92FF920F931F93CF93DF9385E492E0F2
:1009F0009093AD098093AC0982E68093BE09809103
:100A00006609843028F4809161099091620904C0DC
:100A10008091630990916409DC01ED91FC9104805F
:100A2000F581E02D1995882309F43DC19091AB091A
:100A3000891791F08093AB090E949114DC01CB01DE
:100A40000596A11DB11D8093B6099093B709A09397
:100A5000B809B093B90927C10E9491140091B60951
:100A60001091B7092091B8093091B9096017710741
:100A70008207930708F417C11092AB0980916709A8
:100A8000823050F0809105018F7B80930501809129
:100A900005018F7D809305011092AA098091660956
:100AA00010E0843008F041C08091610990916209A2
:100AB000DC01ED91FC910480F581E02D1995892BE5
:100AC00009F440C0C091AA09D0E0809161099091D9
:100AD0006209DC01ED91FC910680F781E02D19950A
:100AE000CF59D64F89878091AA098F5F8093AA0931
:100AF0008034D0F211E0D8CFC091AA09D0E0809123
:100B0000630990916409DC01ED91FC910680F78105
:100B1000E02D1995CF59D64F89878091AA098F5F0B
:100B20008093AA09803408F011E0809163099091C4
:100B30006409DC01ED91FC910480F581E02D1995AB
:100B4000892BD1F68091AE099091AF0901969093CF
:100B5000AF098093AE09112359F08091B2099091A9
:100B6000B30901969093B3098093B2098DEF02C047
:100B70008091AA098093690987300CF494C0909100
:100B80006A098091650998138EC08091AA09C82FBF
:100B9000D0E082500E946717FE01EF59F64F27817F
:100BA00030E0322F22274085242B8217930759F0FB
:100BB0008091B2099091B30901969093B309809303
:100BC000B209CFEF34C040916B09E4E0F2E088E075
:100BD0008E0F9191941709F4C6C68E13FACF8091A7
:100BE000B2099091B30901969093B3098093B20929
:100BF000C1E013C080916C0990E0982F8827209164
:100C00006D09822BE4E096958795EA95E1F790913E
:100C1000BE09981708F0F0C6C2E0405840936B092F
:100C2000C0936C0983E08093AA090E945719C0936E
:100C3000690939C080916C0990E0982F882720912C
:100C40006D09822B20916E0930E0322F22274091CE
:100C50006F09242BF90113E0F695E7951A95E1F752
:100C60004E2FB901677077276115710511F041E0CA
:100C70004E0F40936C0943E04093AA09280F391F97
:100C800050E0812C912C540183948217930709F032
:100C9000D8C64093AA09672B21F081E0840F809386
:100CA000AA090E94571926DC209141023091420284
:100CB00040914302509144020E94573120E030E0BD
:100CC00040E251E40E945E3387FDA8C013DC6093CC
:100CD00041027093420280934302909344028091B8
:100CE000C7029091C802019709F498C083E6C82E04
:100CF00082E0D82E08EE13E07801C0E0D0E0F601E3
:100D0000EC0FFD1FB7018081918113DC24E0E20E1E
:100D1000F11C2296CC30D10591F708511C4F3CE0D4
:100D2000C30ED11C08356BE1160731F705E412E05C
:100D3000C0E0D0E0BE01D8018D919D918D01F9DB1D
:100D40002496C431D105B1F70FE412E0BE01F801D9
:100D5000819191918F01EDDB2496C832D105B1F7D5
:100D600009E512E0BE01D8018D919D918D01E1DB75
:100D70002496CC33D105B1F76CE370E08091B702D3
:100D80009091B802D6DB60E470E08091B902909156
:100D9000BA02CFDB64E470E08091BB029091BC02A8
:100DA000C8DB68E470E08091BD029091BE02C1DBB7
:100DB0006CE470E08091BF029091C002BADB60E504
:100DC00070E08091EF029091F002B3DB64E570E097
:100DD0008091F1029091F202ACDB68E570E08091C5
:100DE000F3029091F402A5DB05EF12E0CCE5D0E030
:100DF000BE01F801819191918F019BDB2496C03750
:100E0000D105B1F70FEF12E0BE01D8018D919D9190
:100E10008D018FDB2496C438D105B1F7609167024C
:100E20007091680280E090E00E94593220E030E04A
:100E300048EC52E40E94C0316B017C016091650274
:100E40007091660280E090E00E94593220E030E02C
:100E500048EC52E40E94C0314B015C018091630276
:100E600090916402BC0180E090E00E94593220E041
:100E700030E048EC52E40E94C031AB01BC01950166
:100E800084018CED98E00FDB6091690270916A0239
:100E900080E090E00E94593220E030E44CE156E4DA
:100EA0000E94C03160934D0970934E0980934F09A1
:100EB0009093500960916B0270916C0280E090E019
:100EC0000E94593220E030E048EC52E40E94C031E8
:100ED0006093510970935209809353099093540978
:100EE00060916D0270916E0280E090E00E94593234
:100EF0006093550970935609809357099093580948
:100F00006091F3027091F40280E090E00E94593207
:100F100020E030E040E251E40E94C03160932909B2
:100F200070932A0980932B0990932C096091730286
:100F30007091740280E090E00E94593220E030E02D
:100F400048EC52E40E94C0316B017C016091710257
:100F50007091720280E090E00E94593220E030E00F
:100F600048EC52E40E94C0314B015C0180916F0259
:100F700090917002BC0180E090E00E94593220E024
:100F800030E048EC52E40E94C031AB01BC01950155
:100F900084018AE598E087DA6091750270917602A3
:100FA00080E090E00E94593220E030E44CE156E4C9
:100FB0000E94C0316093CB087093CC088093CD0819
:100FC0009093CE08609177027091780280E090E073
:100FD0000E94593220E030E048EC52E40E94C031D7
:100FE0006093CF087093D0088093D1089093D20873
:100FF00060916D0270916E0280E090E00E94593223
:101000006093550970935609809357099093580936
:101010006091F3027091F40280E090E00E945932F6
:1010200020E030E040E251E40E94C0316093A70824
:101030007093A8088093A9089093AA0860917F02F2
:101040007091800280E090E00E94593220E030E010
:1010500048EC52E40E94C0316B017C0160917D023A
:1010600070917E0280E090E00E94593220E030E0F2
:1010700048EC52E40E94C0314B015C0180917B023C
:1010800090917C02BC0180E090E00E94593220E007
:1010900030E048EC52E40E94C031AB01BC01950144
:1010A000840188ED97E0FFD96091810270918202FE
:1010B00080E090E00E94593220E030E44CE156E4B8
:1010C0000E94C0316093490870934A0880934B088E
:1010D00090934C08609183027091840280E090E0CC
:1010E0000E94593220E030E048EC52E40E94C031C6
:1010F00060934D0870934E0880934F08909350086A
:1011000060916D0270916E0280E090E00E94593211
:101110006093550970935609809357099093580925
:101120006091F3027091F40280E090E00E945932E5
:1011300020E030E040E251E40E94C0316093250895
:1011400070932608809327089093280860918B025B
:1011500070918C0280E090E00E94593220E030E0F3
:1011600048EC52E40E94C0316B017C01609189021D
:1011700070918A0280E090E00E94593220E030E0D5
:1011800048EC52E40E94C0314B015C01809187021F
:1011900090918802BC0180E090E00E94593220E0EA
:1011A00030E048EC52E40E94C031AB01BC01950133
:1011B000840186E597E077D960918D0270918E0267
:1011C00080E090E00E94593220E030E44CE156E4A7
:1011D0000E94C0316093C7077093C8078093C90706
:1011E0009093CA0760918F027091900280E090E026
:1011F0000E94593220E030E048EC52E40E94C031B5
:101200006093CB077093CC078093CD079093CE0764
:1012100060916D0270916E0280E090E00E94593200
:101220006093550970935609809357099093580914
:101230006091F3027091F40280E090E00E945932D4
:1012400020E030E040E251E40E94C0316093A30707
:101250007093A4078093A5079093A60760919702C7
:101260007091980280E090E00E94593220E030E0D6
:1012700048EC52E40E94C0316B017C016091950200
:101280007091960280E090E00E94593220E030E0B8
:1012900048EC52E40E94C0314B015C01809187020E
:1012A00090918802BC0180E090E00E94593220E0D9
:1012B00030E048EC52E40E94C031AB01BC01950122
:1012C000840184ED96E0EFD86091990270919A02C2
:1012D00080E090E00E94593220E030E44CE156E496
:1012E0000E94C0316093450770934607809347077B
:1012F0009093480760919B0270919C0280E090E07F
:101300000E94593220E030E048EC52E40E94C031A3
:101310006093490770934A0780934B0790934C075B
:1013200060916D0270916E0280E090E00E945932EF
:101330006093550970935609809357099093580903
:101340006091F3027091F40280E090E00E945932C3
:1013500020E030E040E251E40E94C0316093210778
:101360007093220780932307909324076091A30230
:101370007091A40280E090E00E94593220E030E0B9
:1013800048EC52E40E94C0316B017C016091A102E3
:101390007091A20280E090E00E94593220E030E09B
:1013A00048EC52E40E94C0314B015C0180918702FD
:1013B00090918802BC0180E090E00E94593220E0C8
:1013C00030E048EC52E40E94C031AB01BC01950111
:1013D000840182E596E067D86091A5027091A6022B
:1013E00080E090E00E94593220E030E44CE156E485
:1013F0000E94C0316093C3067093C4068093C506F3
:101400009093C6066091A7027091A80280E090E0D8
:101410000E94593220E030E048EC52E40E94C03192
:101420006093C7067093C8068093C9069093CA0656
:1014300060916D0270916E0280E090E00E945932DE
:1014400060935509709356098093570990935809F2
:101450006091F3027091F40280E090E00E945932B2
:1014600020E030E040E251E40E94C03160939F06EA
:101470007093A0068093A1069093A2068091C70264
:101480009091C802019709F013C4C0902D09D09023
:101490002E09E0902F09F0903009C701B6010E9493
:1014A0002D3280E090E00E94593220E030E040E2AE
:1014B00051E40E9462330E942D327093CE026093F9
:1014C000CD026091AB087091AC088091AD0890910D
:1014D000AE080E942D3280E090E00E94593220E058
:1014E00030E040E251E40E9462330E942D3270935A
:1014F000D0026093CF026091290870912A088091F0
:101500002B0890912C080E942D3280E090E00E94E0
:10151000593220E030E040E251E40E9462330E9400
:101520002D327093D2026093D1026091A70770911F
:10153000A8078091A9079091AA070E942D3280E008
:1015400090E00E94593220E030E040E251E40E94F5
:1015500062330E942D327093D4026093D302609163
:1015600025077091260780912707909128070E94F0
:101570002D3280E090E00E94593220E030E040E2DD
:1015800051E40E9462330E942D327093D602609320
:10159000D5026091A3067091A4068091A506909152
:1015A000A6060E942D3280E090E00E94593220E091
:1015B00030E040E251E40E9462330E942D32709389
:1015C000D8026093D702C701B6010E94DA1A8CE2F2
:1015D00092E00E94891A6091AB087091AC088091EA
:1015E000AD089091AE080E94DA1A8CE292E00E9457
:1015F000891A6091290870912A0880912B0890918E
:101600002C080E94DA1A8CE292E00E94891A6091FA
:10161000A7077091A8078091A9079091AA070E9437
:10162000DA1A8CE292E00E94891A60912507709183
:10163000260780912707909128070E94DA1A8CE2EA
:1016400092E00E94891A6091A3067091A40680918D
:10165000A5069091A6060E94DA1A8FE292E00E94F7
:10166000891A209125093091260940912709509126
:101670002809609131097091320980913309909164
:1016800034090E94C03120E030E048EC52E40E946E
:1016900062330E942D3280E090E00E94593220E0B7
:1016A00030E040E251E40E9462330E942D32709398
:1016B000DC026093DB022091A3083091A4084091E2
:1016C000A5085091A6086091AF087091B00880916C
:1016D000B1089091B2080E94C03120E030E048EC9F
:1016E00052E40E9462330E942D3280E090E00E941A
:1016F000593220E030E040E251E40E9462330E941F
:101700002D327093DE026093DD022091210830912A
:101710002208409123085091240860912D0870916F
:101720002E0880912F08909130080E94C03120E04F
:1017300030E048EC52E40E9462330E942D3280E097
:1017400090E00E94593220E030E040E251E40E94F3
:1017500062330E942D327093E0026093DF02209189
:101760009F073091A0074091A1075091A207609177
:10177000AB077091AC078091AD079091AE070E94C6
:10178000C03120E030E048EC52E40E9462330E9415
:101790002D3280E090E00E94593220E030E040E2BB
:1017A00051E40E9462330E942D327093E2026093F2
:1017B000E10220911D0730911E0740911F075091B3
:1017C00020076091290770912A0780912B0790913B
:1017D0002C070E94C03120E030E048EC52E40E9427
:1017E00062330E942D3280E090E00E94593220E066
:1017F00030E040E251E40E9462330E942D32709347
:10180000E4026093E30220919B0630919C06409194
:101810009D0650919E066091A7067091A806809142
:10182000A9069091AA060E94C03120E030E048EC61
:1018300052E40E9462330E942D3280E090E00E94C8
:10184000593220E030E040E251E40E9462330E94CD
:101850002D327093E6026093E5028091C702909169
:10186000C802019709F43DC26091B7027091B802B5
:1018700080E090E00E94593220E030E040E251E404
:101880000E94C031AB01BC018CED98E063D860913F
:10189000B7027091B80280E090E00E94593220E0D7
:1018A00030E040E251E40E94C031AB01BC0186E56A
:1018B00097E050D86091BB027091BC0280E090E04C
:1018C0000E94593220E030E040E251E40E94C031F1
:1018D000AB01BC0188ED97E03DD86091BB027091EF
:1018E000BC0280E090E00E94593220E030E040E20B
:1018F00051E40E94C031AB01BC0182E596E02AD8D8
:101900006091B9027091BA0280E090E00E94593271
:1019100020E030E040E251E40E94C031AB01BC0164
:101920008AE598E017D86091B9027091BA0280E018
:1019300090E00E94593220E030E040E251E40E9401
:10194000C031AB01BC0184ED96E0DF91CF911F91D6
:101950000F91FF90EF90DF90CF90BF90AF909F904E
:101960008F900C94AA04842F90E0FC013197E03111
:10197000F10508F041C08827EE58FF4F8F4F0C94B7
:101980004F3180916C0990E0982F882720916D0944
:10199000822B9C01A4E036952795AA95E1F78091CA
:1019A0006E0990E0982F882750916F09852BC4E02D
:1019B00096958795CA95E1F71CC080916C0990E0D7
:1019C000982F882720916D09822B21C980916E095B
:1019D00090E0982F882720916F09FC01E22B9F014E
:1019E00090916C09892F90E0982F882750916D096C
:1019F000852B820F931F0BC994D72091B409309186
:101A0000B509DC01CB01820F931FA11DB11D80938D
:101A1000BA099093BB09A093BC09B093BD09109279
:101A20006909E0916B098E2F90E0FC013197E0315C
:101A3000F10508F038C98827EE57FF4F8F4F0C94F7
:101A40004F31FC01A3E0F695E795AA95E1F7EE7F0B
:101A5000F170EB5BFD4FA081B181E82FEF7002C008
:101A6000B695A795EA95E2F7E42FF0E0EF59F64F27
:101A7000A0FF0EC0A18575016401052E04C0CC0C29
:101A8000DD1CEE1CFF1C0A94D2F7CA2AC1860FC0C7
:101A900075016401052E04C0CC0CDD1CEE1CFF1C7E
:101AA0000A94D2F7AC2DA095B185AB23A1875F5FD7
:101AB000583010F04F5F50E00196E7C820916C0954
:101AC00030E0322F222780916D09282B422F809100
:101AD0006E0990E0982F882730916F09832B382F5B
:101AE000330F30936C09E3E09927820F911D52E088
:101AF0005E0F242F30E028173907B4F4220F331F6C
:101B0000D901AB5BBD4F2C9111963C91AE2FB0E04B
:101B1000AF59B64F19963C93EF5FF0E0EF59F64F8F
:101B200021874F5FE52FE3CFE093AA09BAC88091E0
:101B30006C0990E0982F882720916D09822BFC0179
:101B4000C4E0F695E795CA95E1F78F7090916E091C
:101B5000FF27EE0FFF1FEB5BFD4F41E050E060E021
:101B600070E08A019B0104C0000F111F221F331F68
:101B70008A95D2F79F3F39F4D901C801208131817C
:101B8000822B932B08C0D901C801809590952081A4
:101B90003181822393239183808386E080C8E09102
:101BA0006D09F0E0EE0FFF1FEB5BFD4F80916E09BA
:101BB00090E0982F882720916F09822BECCF80919D
:101BC0006C0990E0982F882720916D09822B209135
:101BD0006E0930E0322F222740916F09242B280F05
:101BE000391F40E057E0812C912C540183948217D7
:101BF000930799F2A82FAF70E52FF0E0EF59F64F59
:101C0000618570E0042E02C0759567950A94E2F72D
:101C1000FC01C4E0F695E795CA95E1F7FF27EE0FC2
:101C2000FF1FEB5BFD4F7501640104C0CC0CDD1C94
:101C3000EE1CFF1CAA95D2F760FF05C06081718180
:101C4000C62AD72A06C0C094D09460817181C6226A
:101C5000D722D182C0824F5F483010F05F5F40E0F2
:101C60000196C5CF20916D0970916F0910926E0990
:101C700086E08093AA0930E0220F331F40E050E055
:101C800060E0671709F40DC8FA01EF59F64F808933
:101C900090E0982F8827E1898E2BFA01E20FF31F3D
:101CA000EB5BFD4F918380836F5F4E5F5F4FE9CFAA
:101CB0008CED98E00E9467018AE598E00E94670138
:101CC00088ED97E00E94670186E597E00E94670132
:101CD00084ED96E00E94670182E596E00E9467012C
:101CE000D4CBDF91CF911F910F91FF90EF90DF90B8
:101CF000CF90BF90AF909F908F9008952F923F927A
:101D00004F925F926F927F928F929F92AF92BF920B
:101D1000CF92DF92EF92FF920F931F93CF93DF93B7
:101D2000CDB7DEB762970FB6F894DEBF0FBECDBF5A
:101D30003C01798B688B29833A834B835C83ED82EA
:101D4000FE820F831887150126018F869A8A4C011F
:101D500027E4820E911CD4018D919C91F301EB5AE2
:101D6000FF4FFA87E987D3015F96FC93EE935E9766
:101D70003497FC87EB875D96FC93EE935C97BD965A
:101D8000FE87ED879196FC93EE939097DA961C92DE
:101D9000DA97F30112AA13AA14AA15AA40E050E098
:101DA0006FE773E4D6964D935D936D937C93D997CB
:101DB00044E650E060E070E046A757A760AB71AB27
:101DC000918F808FAA24A394B12C720161010D819F
:101DD0001E812F81388549815A816B817C81C301A5
:101DE000A8D79FD5D3019E960D911D912D913C9121
:101DF000D197DC01CB01801B910BA20BB30BF3013C
:101E000082A393A3A4A3B5A32F8527AF8FEF86AF9B
:101E100085AF84AF9301205C3F4FE889F9898081C9
:101E20009181A281F90180839183A283D4011D92C3
:101E30001C924301B9E48B0E911C80E090E0A0E875
:101E4000B5E4F40180839183A283B383AB85BC8521
:101E50001D921D921D921C921397E985FA8510829E
:101E6000118212821382F301E75AFF4F80E090E063
:101E7000A0E8BEE380839183A283B383349680E09D
:101E800090E0AAEFB3E480839183A283B383349676
:101E90001082118212821382789680E090E0A8EC82
:101EA000B4E480839183A283B383349681E08083FA
:101EB000AD85BE851D921D921D921C921397789739
:101EC00089819A81AB81BC8180839183A283B38312
:101ED00034968D819E81AF81B88580839183A28362
:101EE000B38334962082318242825382D3015A9640
:101EF000AD90BC905B970D811E812F813885498103
:101F00005A816B817C81C30114D7F40140815181D6
:101F100062817381C3010E94141AD3019E966D9150
:101F20007D918D919C91D1970E9459329B01AC017A
:101F300060E070E080EA90E40E94C0314B015C01F7
:101F40009B01AC01F30160897189828993890E94A8
:101F50006233D30150966D937D938D939C935397E9
:101F6000A501940154966D917D918D919C91579707
:101F70000E94C031F301648B758B868B978B85E053
:101F800090E0A0E0B0E086A797A7A0ABB1AB61E07E
:101F900087AD53D461E0D301DF968C911FD4F30158
:101FA00084AD8F3F89F061E048D460E0D301DC96D6
:101FB0008C9114D461E0F30186AD3FD460E0D3018D
:101FC000DD968C913AD42FC09FB6F8948091400250
:101FD000811123C0E1EBF1E08491E7EFF1E094910E
:101FE000E82FF0E0EE0FFF1FE85BFE4FA591B491E4
:101FF000EC91E92319F461E085E3F0D361E085E336
:102000001CD48CB580618CBD8CB580648CBD61E0C6
:1020100084E313D461E083E310D4809140028F5FA6
:10202000809340029FBE4301BCE38B0E911C60E095
:10203000C4010E94A51C682F6F7EC401ECD760E02C
:10204000C4010E94A51C682F6F77C401E4D760E02B
:10205000C4010E94B51CC4010E94C71C61E0C401F8
:102060000E94B51CF301EB5BFF4F2F8520833A895B
:10207000318362960FB6F894DEBF0FBECDBFDF91FD
:10208000CF911F910F91FF90EF90DF90CF90BF9075
:10209000AF909F908F907F906F905F904F903F9008
:1020A0002F900895FC01A089B1898C91A689B789E8
:1020B00082FD0FC09C91818D8F5F8F73228D82175F
:1020C00049F0218DDF01A20FB11D5D969C93818F98
:1020D00008958C910895FC01918D828D981761F07F
:1020E000828DDF01A80FB11D5D968C91928D9F5F4F
:1020F0009F73928F90E008958FEF9FEF0895FC01FA
:10210000918D828D981731F0828DE80FF11D858DAC
:1021100090E008958FEF9FEF0895FC01918D228D3F
:10212000892F90E0805C9F4F821B91098F739927C4
:10213000089582ED93E0F1DF21E0892B09F420E09E
:10214000822F08958FE694E0E8DF21E0892B09F4DF
:1021500020E0822F08958CE095E0DFDF21E0892BDD
:1021600009F420E0822F089589EA95E0D6DF21E086
:10217000892B09F420E0822F0895FC01848DDF0172
:10218000A80FB11DA35ABF4F2C91848D90E00196EA
:102190008F739927848FA689B7892C93A089B189D9
:1021A0008C9180648C93938D848D981306C00288E3
:1021B000F389E02D80818F7D80830895EF92FF92D7
:1021C0000F931F93CF93DF93EC0181E0888F9B8D5A
:1021D0008C8D981305C0E889F989808185FD23C01D
:1021E000F62E0B8D10E00F5F1F4F0F731127E02E9F
:1021F0008C8DE8120BC00FB607FCFACFE889F9897D
:10220000808185FFF5CFCE01B8DFF2CF8B8DFE0147
:10221000E80FF11DE35AFF4FF0820B8FEA89FB892B
:102220008081806207C0EE89FF896083E889F9892F
:1022300080818064808381E090E0DF91CF911F9165
:102240000F91FF90EF900895CF93DF93EC01888D6D
:102250008823C1F0EA89FB89808185FD05C0A889B2
:10226000B9898C9186FD0EC00FB607FCF5CF808131
:1022700085FFF2CFA889B9898C9185FFEDCFCE017A
:102280007CDFE8CFDF91CF91089580E090E0892B4B
:1022900019F06ADF811116C080E090E0892B19F0F7
:1022A0005ADF811112C080E090E0892B19F04ADFDB
:1022B00081110EC080E090E0892B79F03ADF811126
:1022C0000AC008950E940000E7CF0E940000EBCFF3
:1022D0000E940000EFCF0C94000008953FB7F894DF
:1022E0008091810390918203A0918303B091840334
:1022F00026B5A89B05C02F3F19F00196A11DB11D61
:102300003FBFBA2FA92F982F8827820F911DA11D9B
:10231000B11DBC01CD0142E0660F771F881F991FD8
:102320004A95D1F7089585ED8093BC008091BC005B
:1023300084FDFCCF1092CD03089540915703262FC2
:1023400030E0240F311D21323105DCF42091CD0322
:102350002430C9F4FC0180E090E0861758F43091F5
:1023600057032191DC01AB5CBC4FA30FB11D2C9333
:102370000196F3CF80915703680F6093570380E075
:10238000089581E0089582E008950895E09186031C
:1023900080918503E81730F4F0E0E957FC4F808125
:1023A00090E008958FEF9FEF0895909186038091BC
:1023B0008503981750F4E92FF0E0E957FC4F20818E
:1023C00030E09F5F9093860302C02FEF3FEFC9017B
:1023D00008958091850390E020918603821B9109E6
:1023E0000895CF92DF92EF92FF920F931F93CF93B6
:1023F000DF937C01262F972F8A018091D1038823B8
:1024000091F0C62FD72F6E01C40ED51ECC15DD0559
:1024100069F06991D701ED91FC910190F081E02D77
:10242000C7011995F3CF642F822F87DFC801DF9191
:10243000CF911F910F91FF90EF90DF90CF90089573
:10244000CF93DF931F92CDB7DEB769832091D1037D
:102450002223D1F02091CE03203240F021E030E061
:10246000FC013383228380E090E014C08091CF038D
:10247000E82FF0E0EB5EFC4F998190838F5F8093B3
:10248000CF038093CE0304C061E0CE01019655DFF7
:1024900081E090E00F90DF91CF9108950E94C933C1
:1024A0001F920F920FB60F9211240BB60F922F931B
:1024B0003F934F935F936F937F938F939F93AF93CC
:1024C000BF93EF93FF9382ED93E057DEFF91EF917F
:1024D000BF91AF919F918F917F916F915F914F913C
:1024E0003F912F910F900BBE0F900FBE0F901F903A
:1024F00018951F920F920FB60F9211240BB60F92E0
:102500002F933F934F935F936F937F938F939F93FB
:10251000AF93BF93EF93FF9382ED93E0C3DDFF9101
:10252000EF91BF91AF919F918F917F916F915F914B
:102530004F913F912F910F900BBE0F900FBE0F90B8
:102540001F9018951F920F920FB60F9211240BB681
:102550000F922F933F934F935F936F937F938F933C
:102560009F93AF93BF93EF93FF938FE694E005DEC5
:10257000FF91EF91BF91AF919F918F917F916F915B
:102580005F914F913F912F910F900BBE0F900FBE17
:102590000F901F9018951F920F920FB60F92112453
:1025A0000BB60F922F933F934F935F936F937F934D
:1025B0008F939F93AF93BF93EF93FF938FE694E036
:1025C00071DDFF91EF91BF91AF919F918F917F91BD
:1025D0006F915F914F913F912F910F900BBE0F9094
:1025E0000FBE0F901F9018951F920F920FB60F926B
:1025F00011240BB60F922F933F934F935F936F93DA
:102600007F938F939F93AF93BF93EF93FF938CE050
:1026100095E0B3DDFF91EF91BF91AF919F918F91C5
:102620007F916F915F914F913F912F910F900BBED2
:102630000F900FBE0F901F9018951F920F920FB61C
:102640000F9211240BB60F922F933F934F935F93EA
:102650006F937F938F939F93AF93BF93EF93FF936A
:102660008CE095E01FDDFF91EF91BF91AF919F91BD
:102670008F917F916F915F914F913F912F910F902B
:102680000BBE0F900FBE0F901F9018951F920F92C8
:102690000FB60F9211240BB60F922F933F934F93C7
:1026A0005F936F937F938F939F93AF93BF93EF93BA
:1026B000FF9389EA95E061DDFF91EF91BF91AF91C2
:1026C0009F918F917F916F915F914F913F912F914A
:1026D0000F900BBE0F900FBE0F901F9018951F927A
:1026E0000F920FB60F9211240BB60F922F933F93B8
:1026F0004F935F936F937F938F939F93AF93BF930A
:10270000EF93FF9389EA95E0CDDCFF91EF91BF91C4
:10271000AF919F918F917F916F915F914F913F9179
:102720002F910F900BBE0F900FBE0F901F9018951A
:1027300090E0FC013197E231F10508F04EC08827A6
:10274000EE56FF4F8F4F0C944F31809180008F7762
:1027500003C0809180008F7D8093800008958091D8
:102760008000877FF9CF84B58F7702C084B58F7DD5
:1027700084BD08958091B0008F7703C08091B00030
:102780008F7D8093B0000895809190008F7707C06F
:10279000809190008F7D03C080919000877F80930F
:1027A000900008958091A0008F7707C08091A000CD
:1027B0008F7D03C08091A000877F8093A000089543
:1027C000809120018F7707C0809120018F7D03C009
:1027D00080912001877F8093200108951F93CF93DC
:1027E000DF93282F30E0F901E85FFD4F8491F90174
:1027F000EE53FE4FD491F901E458FE4FC491CC231F
:10280000C1F0162F811194DFEC2FF0E0EE0FFF1FC7
:10281000EE59FE4FA591B4918FB7F894111105C0F0
:102820009C91ED2FE095E92302C0EC91ED2BEC9308
:102830008FBFDF91CF911F910895CF93DF9390E0E9
:10284000FC01EE53FE4F2491FC01E458FE4F8491AD
:10285000882361F190E0880F991FFC01E85BFE4F2F
:10286000C591D491FC01EE59FE4FA591B49161112F
:1028700009C09FB7F8948881209582238883EC91C2
:102880002E230BC0623061F49FB7F8943881822FF9
:10289000809583238883EC912E2B2C939FBF06C0B9
:1028A0008FB7F894E8812E2B28838FBFDF91CF91CB
:1028B00008958F929F92AF92BF92CF92DF92EF9244
:1028C000FF926B017C010ADD4B015C01C114D10454
:1028D000E104F104E9F002DDDC01CB01881999097A
:1028E000AA09BB09883E9340A105B10578F321E010
:1028F000C21AD108E108F10888EE880E83E0981E1C
:10290000A11CB11CC114D104E104F10421F7DECFF4
:10291000FF90EF90DF90CF90BF90AF909F908F90FF
:1029200008952FB7F89460917D0370917E03809194
:102930007F03909180032FBF08951F920F920FB6CF
:102940000F9211242F933F938F939F93AF93BF9335
:1029500080917D0390917E03A0917F03B0918003CD
:1029600030917C0323E0230F2D3720F40196A11D25
:10297000B11D05C026E8230F0296A11DB11D2093AD
:102980007C0380937D0390937E03A0937F03B09399
:1029900080038091810390918203A0918303B09181
:1029A00084030196A11DB11D80938103909382033E
:1029B000A0938303B0938403BF91AF919F918F91B4
:1029C0003F912F910F900FBE0F901F9018951F925F
:1029D0000F920FB60F9211240BB60F922F933F93C5
:1029E0004F935F936F937F938F939F93AF93BF9317
:1029F000EF93FF938091B900887F803609F49CC0E3
:102A000068F5883209F45BC090F4803109F454C051
:102A100038F4882309F4F6C0883009F44DC0F5C0B5
:102A2000883109F44CC0803209F45DC0EEC08034B6
:102A300009F468C048F4803309F455C0883309F0BC
:102A4000E4C08093CB03D8C0803509F44FC08835EB
:102A500009F45DC0883409F0D8C0D6C0883909F4BB
:102A6000C7C0A8F4883709F467C038F4883609F479
:102A700063C0803709F460C0C8C0883809F4B8C0A2
:102A8000803909F45FC0803809F0BFC05BC0803B6B
:102A900009F486C038F4803A09F466C0883A09F42B
:102AA0007FC0B3C0803C09F4A7C0883C09F4A4C02F
:102AB000883B09F48AC0A9C08091C80310C09091D6
:102AC000CA038091C903981770F5E091CA0381E0A9
:102AD0008E0F8093CA03F0E0E955FC4F808180930C
:102AE000BB0085EC86C08093CB038EC0E091CA0307
:102AF00081E08E0F8093CA038091BB00F0E0E9551E
:102B0000FC4F80839091CA038091C9036EC0E0910D
:102B1000CA0381E08E0F8093CA038091BB00F0E06E
:102B2000E955FC4F80838091CC0381116DC081E019
:102B30008093C70384EA61C083E08093CD03109241
:102B40007B03CFCF80917B03803208F051C0E091AE
:102B50007B0381E08E0F80937B038091BB00F0E0CC
:102B6000E55AFC4F8083BDCF85EC8093BC0010926A
:102B7000CD0380917B03803230F4E0917B03F0E061
:102B8000E55AFC4F108260917B0370E0E09159039D
:102B9000F0915A038BE593E0199510927B0335C0B1
:102BA00084E08093CD031092580310925703E09174
:102BB0005503F0915603199580915703811105C073
:102BC00081E08093570310923503E091580381E030
:102BD0008E0F80935803F0E0EB5CFC4F8081809374
:102BE000BB009091580380915703981708F479CF50
:102BF00085E88093BC0009C085EC8093BC001092EE
:102C0000CD0303C01092CB038EDBFF91EF91BF91F8
:102C1000AF919F918F917F916F915F914F913F9174
:102C20002F910F900BBE0F900FBE0F901F90189515
:102C30001092CD0381E08093CC031092C70361E032
:102C400084E1CCDD61E085E1C9DDE9EBF0E0808184
:102C50008E7F808380818D7F808388E48093B8001D
:102C600085E48093BC0008952091CE039091D00319
:102C7000213208F049C08091CD038111FCCF32E0B0
:102C80003093CD036093CC033FEF3093CB0310928E
:102C9000CA032093C903A5E1B3E047EA53E0FA0170
:102CA0003E2F341B321718F43D913193F9CF109217
:102CB000C8032091C803990F922B9093C803909159
:102CC000C703913061F41092C7039091C8039093A9
:102CD000BB009091BC0093FDF8CF95EC01C095EE40
:102CE0009093BC009091CD039230E1F39091CB038F
:102CF0009F3F79F08091CB03803241F08091CB03EC
:102D0000803331F084E005C081E003C082E001C07F
:102D100083E01092CF031092CE031092D103089556
:102D200061E0A2CFDC01ED91FC910190F081E02DFA
:102D300019942F923F924F925F926F927F928F924F
:102D40009F92AF92BF92CF92DF92EF92FF920F933A
:102D50001F93CF93DF9300D01F92CDB7DEB71C0136
:102D600049835A836B837C832801390120E030E05A
:102D7000A90169817A818B819C810E94BC3187FD88
:102D80008FC020E030E0A901C301B2010E94BC3134
:102D900087FD86C020E030E0A901C701B6010E948E
:102DA000BC3187FD7DC0D1015B96BC92AE925A9733
:102DB00081E0AA94AB2809F080E0F10183AF89811A
:102DC0009A81AB81BC8180839183A283B383448247
:102DD000558266827782C086D186E286F38666A5B2
:102DE00077A580A991A90E94593220E030E04AE7F6
:102DF00054E40E94C0314B015C0189819A81AB810E
:102E0000BC81F10184879587A687B787A5019401C6
:102E1000C301B2010E9462332B013C01D1015096E3
:102E20006D937D938D939C935397A5019401C70156
:102E3000B6010E94C0316B017C01F101648B758B7E
:102E4000868B978B808D918D019751F529813A81E1
:102E50004B815C8160E070E0CB010E945731D10171
:102E60001C966D937D938D939C931F97A301920164
:102E700060E070E0CB010E945731F101608B718BF3
:102E8000828B938BA701960160E070E0CB010E94DA
:102E90005731D10154966D937D938D939C935797A1
:102EA0000F900F900F900F90DF91CF911F910F9186
:102EB000FF90EF90DF90CF90BF90AF909F908F905A
:102EC0007F906F905F904F903F902F9008954AE6CB
:102ED00059E0FA012FEF3FEF9E2F941B981788F4CB
:102EE0009191292798E0B901617077273695279548
:102EF000672B21F061E0262760EA3627915099F789
:102F0000EBCF922F832F0895EF92FF921F93CF93D1
:102F1000DF931F92CDB7DEB77C01152FDC018C91BA
:102F200091E09093D1038093D0031092CF0310923D
:102F3000CE0311968D919C911297DC01ED91FC913D
:102F4000B4E06B9F90011124B9016A5F7F4F01903B
:102F5000F081E02D4983199560E070E0F7018181EF
:102F60009281E0DE60E070E0D70111968D919C9136
:102F70001297D8DE4981642F712FF70181819281E8
:102F8000D1DE612F70E0D70111968D919C9112973F
:102F9000C9DEF701818192810F90DF91CF911F915E
:102FA000FF90EF90BDCEDF92EF92FF920F931F93B1
:102FB000CF93DF93EC01F42ED52EE22E162F1F7740
:102FC00088818F3F31F48091C1099091C209ECD47E
:102FD00002C060E003DC60E08B8100DC612FCE0189
:102FE00051D40F2D1D2DFE0CF01639F06FEFCE01D0
:102FF00049D4F80181938F01F7CF88818F3F09F47D
:10300000D2D461E08B81DF91CF911F910F91FF901E
:10301000EF90DF90E3CB1F93CF93DF93EC01162F5C
:1030200088818F3F31F48091C1099091C209BCD44D
:1030300002C060E0D3DB60E08B81D0DB60E8CE01D2
:1030400021D4612FCE011ED488818F3F09F4ABD4E7
:1030500061E08B81DF91CF911F91C0CB1F93CF9304
:10306000DF93EC01162F8091BF0991E09093D1037B
:103070008093D0031092CF031092CE036D2F70E097
:1030800086E496E04FDEBE01772786E496E04ADECE
:10309000612F86E496E0D4D986E496E0DF91CF9163
:1030A0001F913ECE9091CD039111FCCF91E0909372
:1030B000CD039093CC032FEF2093CB031092CA0340
:1030C000260F2093C9039093C8039091C803880FDB
:1030D000892B8093C8038091C703813061F41092DB
:1030E000C7038091C8038093BB008091BC0083FD1F
:1030F000F8CF85EC01C085EE8093BC008091CD03B4
:103100008130E1F38091CA03861710F46091CA03FD
:10311000A7EAB3E027E833E0F9018E2F821B861778
:1031200018F48D918193F9CF862F08950F931F93F3
:10313000CF93DF93EC010FEB19E0F801808191E070
:103140009093D1038093D0031092CF031092CE03BB
:103150006D2F70E086E496E0E5DDBE01772786E41A
:1031600096E0E0DD86E496E0DBDD61E0F801808159
:1031700099DF109286038093850386E496E015D943
:10318000DF91CF911F910F910895CF92DF92EF922F
:10319000FF920F931F93CF93DF93EC016A017B01A2
:1031A000E889F98982E080834115514E61057105F6
:1031B000B1F060E079E08DE390E0A70196010E9414
:1031C000CD3389019A010150110921093109369540
:1031D000279517950795980101151041A8F0E889E2
:1031E000F989108260E874E88EE190E0A701960109
:1031F0000E94CD33DA01C9010197A109B109B69541
:10320000A795979587959C01EC85FD853083EE8584
:10321000FF852083188EEC89FD8986E08083EA890A
:10322000FB89808180618083EA89FB898081886055
:103230008083EA89FB89808180688083EA89FB89B1
:1032400080818F7D8083DF91CF911F910F91FF90BF
:10325000EF90DF90CF900895CF92DF92EF92FF92A0
:103260000F931F93CF93DF936C017A018B01C0E022
:10327000D0E0CE15DF0589F0D8016D918D01D60122
:10328000ED91FC910190F081E02DC6011995892BFB
:1032900011F47E0102C02196ECCFC701DF91CF91DE
:1032A0001F910F91FF90EF90DF90CF900895CF93F3
:1032B000C091AA098C2F0BDEEC2FF0E0EF59F64FEE
:1032C0009187E1E0EC0FF0E0EF59F64F8187CE5F98
:1032D000C093AA099091670980916609923038F1EC
:1032E000823051F0833071F0813091F49091C800B8
:1032F00090649093C80011C09091D0009064909316
:10330000D0000BC09091300190649093300105C0C3
:103310009091C00090649093C000909105019064DA
:103320009093050190910501906290930501409161
:10333000AA09843028F4809161099091620904C03F
:103340008091630990916409DC01ED91FC9150E05A
:103350000280F381E02D6AE679E019959091670982
:1033600080916609923018F1823049F0833061F023
:10337000813079F49091C80096FFFCCF0EC09091F7
:10338000D00096FFFCCF09C09091300196FFFCCF92
:1033900004C09091C00096FFFCCF909105019F7BE7
:1033A00090930501909105019F7D909305018430D4
:1033B00068F58091610990916209DC01ED91FC91C1
:1033C0000680F781E02D199597FFF3CF1092AA0997
:1033D000A8DA2091B4093091B509DC01CB01820F44
:1033E000931FA11DB11D8093BA099093BB09A093AF
:1033F000BC09B093BD098091B0099091B1090196C3
:103400009093B1098093B009CF9108958091630999
:1034100090916409DC01ED91FC910680F781E02D2B
:10342000199597FFF3CFD2CF8F929F92AF92BF9211
:10343000CF92DF92EF92FF920F931F93CF93DF9380
:10344000EC016A017B0120E030E0A901C701B6016F
:103450000E94BC3118160CF04FC01AAA1BAA1CAA55
:103460001DAACEAADFAAE8AEF9AE8AAD882309F478
:1034700043C00E8D1F8DF80180809180A280B380A3
:10348000A7019601C501B4010E945E33181634F4F9
:10349000F801C082D182E282F3820EC020E030E0E7
:1034A000A901C501B4010E94BC3187FF05C0F80124
:1034B00010821182128213828EA09FA0A8A4B9A4A8
:1034C000CEA8DFA8E8ACF9ACA7019601C501B4010C
:1034D0000E945E33181664F0CAA8DBA8ECA8FDA809
:1034E000A7019601C501B4010E94BC3187FF04C049
:1034F000CEA2DFA2E8A6F9A6DF91CF911F910F918E
:10350000FF90EF90DF90CF90BF90AF909F908F9003
:103510000895009761F0FC0101900020E9F73197D0
:10352000AF01481B590BBC0189EA95E095CE80E0BC
:1035300090E008958F929F92AF92BF920F931F9346
:10354000CF93DF93CDB7DEB7A1970FB6F894DEBF68
:103550000FBECDBF19A2423008F44AE08E010F5DC4
:103560001F4F842E912CA12CB12CA50194010E94F7
:10357000CD33E62FB901CA0101501109EA3014F424
:10358000E05D01C0E95CD801EC93232B242B252BB3
:1035900061F7C801BEDFA1960FB6F894DEBF0FBE7B
:1035A000CDBFDF91CF911F910F91BF90AF909F90B2
:1035B0008F9008958F929F92AF92BF92CF92DF9299
:1035C000EF92FF92CF93DF936B017C019B01AC01E3
:1035D0000E94C533882319F082E392E027C0460198
:1035E0005701E894B7F82FEF3FEF4FE75FE7C501CA
:1035F000B4010E94C53381110DC02FEF3FEF4FE79B
:103600005FE7C501B4010E94BC3118161CF486E3C3
:1036100092E00CC02FEF3FEF4FE75FE4C701B60128
:103620000E945E3318166CF48AE392E0DF91CF912A
:10363000FF90EF90DF90CF90BF90AF909F908F90D2
:1036400068CF2FEF3FEF4FE75FECC701B6010E9455
:10365000BC3187FDE9CF20E030E0A901C701B60108
:103660000E94BC3187FF11C0E091A905F091AA0525
:103670000190F081E02D6DE289EA95E01995EC0169
:10368000F7FAF094F7F8F09402C0C0E0D0E02AE036
:1036900037ED43EA5BE3C701B6010E9458314B01A5
:1036A0005C010E942D326B017C010E9459329B010A
:1036B000AC01C501B4010E9457314B015C014AE0E5
:1036C000C701B60137DFC80FD91F8EE392E021DFB3
:1036D000C80FD91F20E030E040E251E4C501B40139
:1036E0000E9462334B015C010E942D326B01E12C80
:1036F000F12C4AE0C701B6011DDFC80FD91FC70171
:10370000B6010E9459329B01AC01C501B4010E946F
:10371000573120E030E040E251E40E9462330E94E1
:103720002D3280E090E04AE005DF8C0F9D1FDF9195
:10373000CF91FF90EF90DF90CF90BF90AF909F9090
:103740008F9008951F93CF93DF93162FCEE5D9E086
:10375000988121E02093D1039093D0031092CF035E
:103760001092CE03A981BA81ED91FC91119701903D
:10377000F081E02D682FCD01199589819A81DC01B6
:10378000ED91FC910190F081E02D612F19958981D7
:103790009A81DF91CF911F91C3CACF92DF92EF92AE
:1037A000FF92CF93DF9326E636E646E65FE30E947C
:1037B00062339B01AC0160E27CEB8EEB95E40E94EE
:1037C000C03120E030E040E85FE30E94573120E064
:1037D00030E040E05FE30E9458310E9496326B0176
:1037E0007C01CEE5D9E0888191E09093D10380936C
:1037F000D0031092CF031092CE0389819A81DC010D
:10380000ED91FC910190F081E02D60E019958981A6
:103810009A8186DA61E0888145DC10928603809384
:10382000850389819A81DC01ED91FC910680F78105
:10383000E02D1995C82F8F76682F606180E082DFB8
:10384000C701B6010E942D328EEF7CDF6C2F80E025
:1038500079DF65E070E080E090E02BD86C2F606A43
:1038600080E0DF91CF91FF90EF90DF90CF906ACF13
:103870001F920F920FB60F9211240F900FBE0F9050
:103880001F901895AF92BF92CF92DF92EF92FF9266
:103890000F931F93CF93DF93FC0120812F3F39F4C7
:1038A0006EBD00000DB407FEFDCF8EB543C0D62E11
:1038B000EC0107E010E0B12CEE24E394F12CBB0CFA
:1038C00061E088810E94EE13B701002E01C0660FEF
:1038D0000A94EAF76D218A810E94EE1360E08881E4
:1038E0000E94EE13298130E0F901E85FFD4F8491D9
:1038F000F901EE53FE4FA490F901E458FE4FC49035
:10390000CC2071F081110E949813EC2DF0E0EE0FA5
:10391000FF1FE25BFD4FA591B491EC91AE2231F413
:103920000150110908F0CBCF8B2D04C08B2D816085
:10393000B82EF6CFDF91CF911F910F91FF90EF90AE
:10394000DF90CF90BF90AF900895CF93DF931F92F9
:10395000CDB7DEB7198221E0AE014F5F5F4F23DBA9
:1039600089810F90DF91CF9108951F93CF93DF93BB
:10397000EC01162F60E0E9DF682F112311F060647D
:1039800001C06F7BCE01DF91CF911F9144CBCF93CC
:10399000DF93EC0160E0D9DF837D682F6260CE01A8
:1039A000DF91CF9138CB08958CBD9DBD08951092C5
:1039B000C8021092C7028CED98E00E94B5028AE519
:1039C00098E00E94B50288ED97E00E94B50286E576
:1039D00097E00E94B50284ED96E00E94B50282E570
:1039E00096E00C94B5028CED98E00E94CA028AE53C
:1039F00098E00E94CA0288ED97E00E94CA0286E51C
:103A000097E00E94CA0284ED96E00E94CA0282E515
:103A100096E00C94CA024F925F926F927F928F92BF
:103A20009F92AF92BF92CF92DF92EF92FF92CF938D
:103A3000DF93CDB7DEB72C970FB6F894DEBF0FBE7D
:103A4000CDBF1092C5090E949114C090BA09D090C0
:103A5000BB09E090BC09F090BD092091ED023091C6
:103A6000EE02C616D706E806F90640F4C9018061E1
:103A70009093EE028093ED029ADF06C0C9018F7E1B
:103A80009093EE028093ED0267E088E199E05DDFBC
:103A90008111ABC067E086E998E057DF8111A5C0CE
:103AA00067E084E198E051DF81119FC067E082E91F
:103AB00097E04BDF811199C067E080E197E045DF37
:103AC000811193C067E08EE896E03FDF81118DC0E1
:103AD0001092C4091092C30960E089E00E94EE13BD
:103AE0008091ED029091EE029B7F9093EE02809385
:103AF000ED0280912D0990912E09A0912F09B0918E
:103B0000300989839A83AB83BC8320E030E042E0B4
:103B100054E4BC01CD010E945E3318160CF47BC046
:103B20008091AB089091AC08A091AD08B091AE081F
:103B30008D839E83AF83B88720E030E042E054E479
:103B4000BC01CD010E945E3318160CF464C0809154
:103B5000290890912A08A0912B08B0912C088987F8
:103B60009A87AB87BC8720E030E042E054E4BC0198
:103B7000CD010E945E3318160CF44DC0C090A7070B
:103B8000D090A807E090A907F090AA0720E030E0C5
:103B900042E054E4C701B6010E945E331816DCF11E
:103BA0008090250790902607A0902707B0902807BF
:103BB00020E030E042E054E4C501B4010E945E33ED
:103BC00018164CF14090A3065090A4066090A506EC
:103BD0007090A60620E030E042E054E4C301B20158
:103BE0000E945E331816BCF019C08091C3099091F1
:103BF000C40901969093C4098093C30906970CF4F5
:103C000078CF61E089E00E94EE138091ED029091FF
:103C1000EE0294606ACF89E090E03EC020E030E0A0
:103C2000A90169817A818B819C810E94BC3187FDC9
:103C300031C020E030E0A9016D817E818F819885BF
:103C40000E94BC3187FD26C020E030E0A9016985D3
:103C50007A858B859C850E94BC3187FD1BC020E046
:103C600030E0A901C701B6010E94BC3187FD12C036
:103C700020E030E0A901C501B4010E94BC3187FDFC
:103C800009C020E030E0A901C301B2010E94BC31AB
:103C900087FF04C08DE090E00E9425312C960FB67E
:103CA000F894DEBF0FBECDBFDF91CF91FF90EF90B4
:103CB000DF90CF90BF90AF909F908F907F906F904C
:103CC0005F904F9008958F929F92AF92BF92CF9244
:103CD000DF92EF92FF926091F3027091F40280E024
:103CE00090E00E94593220E030E040E251E40E942E
:103CF000C0314B015C016091EF027091F00280E0F5
:103D000090E00E94593220E030E048EC52E40E94FA
:103D1000C0319B01AC0160E070E080E89FE30E944D
:103D200057316B017C018091F1029091F202BC014C
:103D300080E090E00E94593220E030E040E251E41F
:103D40000E94C0319B01AC01C501B4010E945731F2
:103D50009B01AC01C701B6010E94C03120E030E0F8
:103D600040E855E40E9462336B017C01A501940197
:103D70000E9462339B01AC0160E070E080E895E452
:103D80000E9457314B015C0120912D0930912E0981
:103D900040912F0950913009C701B6010E9462334A
:103DA000A50194010E945831AB01BC018CED98E053
:103DB0003BDB2091AB083091AC084091AD085091AD
:103DC000AE08C701B6010E946233A50194010E94AA
:103DD0005831AB01BC018AE598E026DB2091290827
:103DE00030912A0840912B0850912C08C701B60148
:103DF0000E946233A50194010E945831AB01BC01BD
:103E000088ED97E011DB2091A7073091A80740913A
:103E1000A9075091AA07C701B6010E946233A50104
:103E200094010E945831AB01BC0186E597E0FCDAB1
:103E300020912507309126074091270750912807A8
:103E4000C701B6010E946233A50194010E94583156
:103E5000AB01BC0184ED96E0E7DA2091A306309136
:103E6000A4064091A5065091A606C701B6010E947E
:103E70006233A50194010E945831AB01BC0182E577
:103E800096E0FF90EF90DF90CF90BF90AF909F9023
:103E90008F90CACACF93DF93CDB7DEB768970FB6BE
:103EA000F894DEBF0FBECDBF789484B5826084BD28
:103EB00084B5816084BD85B5826085BD85B581602E
:103EC00085BD80916E00816080936E0010928100AC
:103ED0008091810082608093810080918100816067
:103EE0008093810080918000816080938000809128
:103EF000B10084608093B1008091B00081608093B4
:103F0000B000809191008260809391008091910037
:103F100081608093910080919000816080939000F7
:103F20008091A10082608093A1008091A1008160B6
:103F30008093A1008091A00081608093A000809177
:103F40002101826080932101809121018160809311
:103F500021018091200181608093200180917A006D
:103F6000846080937A0080917A00826080937A00E6
:103F700080917A00816080937A0080917A008068D5
:103F800080937A001092C10061E086E10E941D14C6
:103F900061E086E10E94EE1340E052EC61E070E0E7
:103FA00089EA95E0F2D81092860310928503109268
:103FB000CF031092CE030E94181660E880E0C2DBA7
:103FC0006AE070E080E090E00E94591460E070E0E8
:103FD0008AE794E4E2DB60E070E088EC94E4DDDB07
:103FE00080E58093BF09109286031092850310929A
:103FF000CF031092CE030E94181611E01093D10344
:104000008CE78093D0031092CF031092CE0360917F
:10401000BF0970E0660F771F86E496E00E942012C9
:1040200060E086E496E00E94341663E08CE73AD8BC
:10403000109286038093850386E496E00E94D51152
:104040007C0186E496E00E94D5116C0186E496E03E
:104050000E94D5112C2D2F7030E0322F2227280FEF
:10406000311DFF2454E0EE0CFF1C5A95E1F7DD24CE
:1040700064E0D594C7946A95E1F7EC0CFD1C8AE0E6
:10408000E816F10429F42031354011F41093C009E9
:1040900080916609823039F0833041F0813049F4F3
:1040A0008CE095E008C08FE694E005C082ED93E0D7
:1040B00002C089EA95E0909362098093610940E02B
:1040C00052EC61E070E080916109909162095DD8E5
:1040D00080916709823078F0809104018066809336
:1040E0000401809105018F7B80930501809105017A
:1040F0008F7D809305018091610990916209DC01B7
:10410000ED91FC910680F781E02D199597FFF3CF93
:104110001092AA091092AB091092B3091092B20939
:104120001092B1091092B0091092AF091092AE0925
:1041300093E6C92E92E0D92E08EE13E07801A12C67
:10414000B12CC7010E948402F601EA0DFB1D918388
:104150008083B4E0EB0EF11CE2E0AE0EB11CFCE09B
:10416000AF16B10471F708511C4F8CE0C80ED11C7A
:104170000835ABE11A0711F705E412E0E12CF12C48
:10418000C7010E948402F801819391938F01F4E0AA
:10419000EF0EF11C84E1E816F10491F70FE412E050
:1041A000C7010E948402D8018D939D938D01B4E0D4
:1041B000EB0EF11CE8E2EE16F10491F709E512E0CE
:1041C000C7010E948402D8018D939D938D01B4E0B4
:1041D000EB0EF11CECE3EE16F10491F78CE390E0AA
:1041E0000E9484029093B8028093B70280E490E02A
:1041F0000E9484029093BA028093B90284E490E012
:104200000E9484029093BC028093BB0288E490E0F9
:104210000E9484029093BE028093BD028CE490E0E1
:104220000E9484029093C0028093BF0280E590E0D8
:104230000E9484029093F0028093EF0284E590E064
:104240000E9484029093F2028093F10288E590E04C
:104250000E9484029093F4028093F30205EF12E02F
:104260008CE5E82EF12CC7010E948402D8018D93C1
:104270009D938D01B4E0EB0EF11CE0E7EE16F10426
:1042800091F70FEF12E0C7010E948402D8018D93CD
:104290009D938D01B4E0EB0EF11CE4E8EE16F10401
:1042A00091F71092200910921F0960916902709194
:1042B0006A0280E090E00E94593220E030E44CE154
:1042C00056E40E94C03160934D0970934E0980936B
:1042D0004F099093500960916B0270916C0280E0DD
:1042E00090E00E94593220E030E048EC52E40E9415
:1042F000C031609351097093520980935309909390
:10430000540960916D0270916E0280E090E00E940D
:1043100059326093550970935609809357099093C9
:1043200058096091F3027091F40280E090E00E94DD
:10433000593220E030E040E251E40E94C0316B018C
:104340007C016093290970932A0980932B0990932B
:104350002C0981E090E090939E0880939D086091E5
:1043600075027091760280E090E00E94593220E060
:1043700030E44CE156E40E94C0316093CB08709366
:10438000CC088093CD089093CE086091770270910D
:10439000780280E090E00E94593220E030E048EC62
:1043A00052E40E94C0316093CF087093D00880938C
:1043B000D1089093D2086091790270917A0280E0DE
:1043C00090E00E9459326093D3087093D408809390
:1043D000D5089093D608C092A708D092A808E0927A
:1043E000A908F092AA0882E090E090931C088093BC
:1043F0001B08609181027091820280E090E00E942F
:10440000593220E030E44CE156E40E94C031609320
:10441000490870934A0880934B0890934C08609128
:1044200083027091840280E090E00E94593220E083
:1044300030E048EC52E40E94C03160934D08709324
:104440004E0880934F0890935008609185027091B8
:10445000860280E090E00E94593260935108709388
:1044600052088093530890935408C0922508D09224
:104470002608E0922708F092280883E090E09093C5
:104480009A078093990760918D0270918E0280E067
:1044900090E00E94593220E030E44CE156E40E9462
:1044A000C0316093C7077093C8078093C907909382
:1044B000CA0760918F027091900280E090E00E94A4
:1044C000593220E030E048EC52E40E94C031609361
:1044D000CB077093CC078093CD079093CE07609164
:1044E00091027091920280E090E00E9459326093B4
:1044F000CF077093D0078093D1079093D207C092D3
:10450000A307D092A407E092A507F092A60784E043
:1045100090E090931807809317076091990270912B
:104520009A0280E090E00E94593220E030E44CE1B1
:1045300056E40E94C031609345077093460780930C
:1045400047079093480760919B0270919C0280E01E
:1045500090E00E94593220E030E048EC52E40E94A2
:10456000C0316093490770934A0780934B0790933B
:104570004C0760919D0270919E0280E090E00E9445
:10458000593260934D0770934E0780934F07909375
:104590005007C0922107D0922207E0922307F092A1
:1045A000240785E090E090939606809395066091AD
:1045B000A5027091A60280E090E00E94593220E0AE
:1045C00030E44CE156E40E94C0316093C30670931E
:1045D000C4068093C5069093C6066091A7027091A9
:1045E000A80280E090E00E94593220E030E048ECE0
:1045F00052E40E94C0316093C7067093C80680934E
:10460000C9069093CA066091A9027091AA0280E03F
:1046100090E00E9459326093CB067093CC06809351
:10462000CD069093CE06C0929F06D092A006E0924F
:10463000A106F092A2060E94EA04EDD98091C70279
:104640009091C802019731F48091C5029091C60201
:10465000019751F0ACD98091C5029091C6020197A3
:1046600009F0EEC061E0EDC08091C9029091CA02EC
:10467000892B91F00E947A0260930D0370930E03D0
:1046800080930F03909310038091C7029091C8020A
:10469000019709F0DCC041C00E947A0260931103C7
:1046A0007093120380931303909314038091C702B5
:1046B0009091C802019709F0CAC00E947A02209125
:1046C00011033091120340911303509114030E947F
:1046D00057316B017C018091BD029091BE02BC01FB
:1046E00080E090E00E94593220E030E040E251E466
:1046F0000E94C0319B01AC01C701B6010E945E332C
:1047000087FDECC00E947A0260931103709312033C
:1047100080931303909314039AC06091590270918F
:104720005A0280E090E00E94593220E030E040E2FE
:1047300051E40E94C0316B017C0180915B02909139
:104740005C02BC0180E090E00E94593220E030E041
:1047500040E251E40E94C0319B01AC01C701B601A7
:104760000E9458316B017C0180915D0290915E0244
:10477000BC0180E090E00E94593220E030E040E24D
:1047800051E40E94C0319B01AC01C701B6010E94F7
:1047900058316B017C0180915F0290916002BC01F5
:1047A00080E090E00E94593220E030E040E251E4A5
:1047B0000E94C0319B01AC01C701B6010E94583173
:1047C0006B017C018091610290916202BC0180E0EA
:1047D00090E00E94593220E030E040E251E40E9433
:1047E000C0319B01AC01C701B6010E9458310E9443
:1047F00028324B015C010E947A0220910D03309116
:104800000E0340910F03509110030E9457316B012A
:104810007C01C501B4010E945B329B01AC01C70160
:10482000B6010E945E3387FD0BC10E947A0260933D
:104830000D0370930E0380930F039093100307C032
:1048400060E086E00E94EE130E944511F4CEAFD8DE
:104850000E947A026093090370930A0380930B030A
:1048600090930C030E947A022091090330910A036D
:1048700040910B0350910C030E9457316B017C0156
:104880008091BF029091C002BC0180E090E00E9444
:10489000593220E030E040E251E40E94C0319B01F7
:1048A000AC01C701B6010E945E3387FF08C00E94B9
:1048B000EA04B1D861E087E00E94EE13D3CF0E94F2
:1048C0007A026093090370930A0380930B03909319
:1048D0000C0360E087E00E94EE13BDCE0E94EA0464
:1048E0009AD88091CB029091CC026091B7027091DE
:1048F000B802019749F180E090E00E94593220E02F
:1049000030E040E251E40E94C031AB01BC018CEDCB
:1049100098E00E94AA046091B7027091B80280E00A
:1049200090E00E94593220E030E040E251E40E94E1
:10493000C031AB01BC0186E597E00E94AA046091FA
:10494000BB027091BC022CC080E090E00E94593202
:1049500020E030E040E251E40E94C031AB01BC01F4
:104960008CED98E00E94AA046091B7027091B802A1
:1049700080E090E00E94593220E030E040E251E4D3
:104980000E94C031AB01BC0186E597E00E94AA04F9
:104990006091B7027091B8027093BC026093BB0241
:1049A00080E090E00E94593220E030E040E251E4A3
:1049B0000E94C031AB01BC0188ED97E00E94AA04BF
:1049C0006091BB027091BC0280E090E00E9459327D
:1049D00020E030E040E251E40E94C031AB01BC0174
:1049E00082E596E00E94AA046091B9027091BA0231
:1049F00080E090E00E94593220E030E040E251E453
:104A00000E94C031AB01BC018AE598E00E94AA0473
:104A10006091B9027091BA0280E090E00E94593230
:104A200020E030E040E251E40E94C031AB01BC0123
:104A300084ED96E00E94AA0446D90E94F31C36CE6B
:104A40000E94EA040E940B1D0E947A0220910D032D
:104A500030910E0340910F03509110030E94573183
:104A60006B017C016091590270915A0280E090E0E4
:104A70000E94593220E030E040E251E40E94C0310F
:104A800069837A838B839C8360915B0270915C0263
:104A900080E090E00E94593220E030E040E251E4B2
:104AA0000E94C031698B7A8B8B8B9C8B9B01AC01F4
:104AB00069817A818B819C810E9458316D837E83CC
:104AC0008F83988760915D0270915E0280E090E034
:104AD0000E94593220E030E040E251E40E94C031AF
:104AE0006D8B7E8B8F8B988F9B01AC016D817E814E
:104AF0008F8198850E94583169877A878B879C8738
:104B000060915F027091600280E090E00E945932F3
:104B100020E030E040E251E40E94C0312B013C0132
:104B20009B01AC0169857A858B859C850E945831F3
:104B30006D877E878F87988B20E030E0A901C701C1
:104B4000B6010E945E3318160CF0B3C129813A8178
:104B50004B815C81C701B6010E94BC3118160CF470
:104B6000A8C18091FF029091000360914F02709163
:104B70005002019709F580E090E00E94593220E050
:104B800030E040E251E40E94C03120E030E040EAF1
:104B900051E40E94573129813A814B815C810E9406
:104BA000C031A70196010E94623320E030E040EA64
:104BB00051E40E9458310AC080E090E00E945932CE
:104BC00020E030E040E251E40E94C031AB01BC0182
:104BD0008CED98E00E94AA048091FF02909100035E
:104BE00060914F0270915002019791F580E090E042
:104BF0000E94593220E030E040E251E40E94C0318E
:104C000020E030E040EA51E40E9457314B015C0162
:104C10008091590290915A02BC0180E090E00E947C
:104C2000593220E030E040E251E40E94C0319B0163
:104C3000AC01C501B4010E94C031A70196010E94D8
:104C4000623320E030E040EA51E40E9458310AC06B
:104C500080E090E00E94593220E030E040E251E4F0
:104C60000E94C031AB01BC0186E597E00E94AA0416
:104C70008091FF029091000360914F027091500269
:104C8000019791F580E090E00E94593220E030E0F9
:104C900040E251E40E94C03120E030E040EA51E4BB
:104CA0000E9457314B015C018091590290915A0248
:104CB000BC0180E090E00E94593220E030E040E208
:104CC00051E40E94C0319B01AC01C501B4010E94B6
:104CD000C031A70196010E94623320E030E040EA33
:104CE00051E40E9458310AC080E090E00E9459329D
:104CF00020E030E040E251E40E94C031AB01BC0151
:104D000088ED97E00E94AA048091FF029091000331
:104D100060914F0270915002019791F580E090E010
:104D20000E94593220E030E040E251E40E94C0315C
:104D300020E030E040EA51E40E9457314B015C0131
:104D40008091590290915A02BC0180E090E00E944B
:104D5000593220E030E040E251E40E94C0319B0132
:104D6000AC01C501B4010E94C031A70196010E94A7
:104D7000623320E030E040EA51E40E9458310AC03A
:104D800080E090E00E94593220E030E040E251E4BF
:104D90000E94C031AB01BC0182E596E00E94AA04EA
:104DA0008091FF029091000360914502709146024C
:104DB000019791F580E090E00E94593220E030E0C8
:104DC00040E251E40E94C03120E030E040EA51E48A
:104DD0000E9457314B015C018091590290915A0217
:104DE000BC0180E090E00E94593220E030E040E2D7
:104DF00051E40E94C0319B01AC01C501B4010E9485
:104E0000C031A70196010E94623320E030E040EA01
:104E100051E40E9458310AC080E090E00E9459326B
:104E200020E030E040E251E40E94C031AB01BC011F
:104E30008AE598E00E94AA048091FF029091000305
:104E40006091450270914602019711F00C94E92F90
:104E500080E090E00E94593220E030E040E251E4EE
:104E60000E94C03120E030E040EA51E40E94573116
:104E70004B015C018091590290915A02BC0180E083
:104E800090E00E94593220E030E040E251E40E947C
:104E9000C0319B01AC01C501B4010E94C031A70122
:104EA00096010E94623320E030E040EA51E40C9425
:104EB000E62F29813A814B815C81C701B6010E94AE
:104EC0005E3318160CF048C22D813E814F81588503
:104ED000C701B6010E94BC3118160CF43DC2809186
:104EE0000103909102030091510210915202019727
:104EF000E1F560914F027091500280E090E00E94D5
:104F0000593220E030E040E251E40E94C0314B01D0
:104F10005C01B80180E090E00E94593220E030E06E
:104F200040E251E40E94C031A50194010E94573132
:104F300029893A894B895C890E94C0312B013C0147
:104F400029813A814B815C81C701B6010E945731AA
:104F50009B01AC01C301B2010E9462339B01AC0111
:104F6000C501B4010E9458310BC0B80180E090E047
:104F70000E94593220E030E040E251E40E94C0310A
:104F8000AB01BC018CED98E00E94AA048091010362
:104F9000909102030091510210915202019709F081
:104FA0004CC060914F027091500280E090E00E94EE
:104FB000593220E030E040E251E40E94C0314B0120
:104FC0005C01B80180E090E00E94593220E030E0BE
:104FD00040E251E40E94C031A50194010E94573182
:104FE0002B013C0160915B0270915C0280E090E0DB
:104FF0000E94593220E030E040E251E40E94C0318A
:105000009B01AC01C301B2010E94C0312B013C01E4
:1050100029813A814B815C81C701B6010E945731D9
:105020009B01AC01C301B2010E9462339B01AC0140
:10503000C501B4010E9458310BC0B80180E090E076
:105040000E94593220E030E040E251E40E94C03139
:10505000AB01BC0186E597E00E94AA0480910103A0
:10506000909102030091510210915202019709F0B0
:105070004CC060914F027091500280E090E00E941D
:10508000593220E030E040E251E40E94C0314B014F
:105090005C01B80180E090E00E94593220E030E0ED
:1050A00040E251E40E94C031A50194010E945731B1
:1050B0002B013C0160915B0270915C0280E090E00A
:1050C0000E94593220E030E040E251E40E94C031B9
:1050D0009B01AC01C301B2010E94C0312B013C0114
:1050E00029813A814B815C81C701B6010E94573109
:1050F0009B01AC01C301B2010E9462339B01AC0170
:10510000C501B4010E9458310BC0B80180E090E0A5
:105110000E94593220E030E040E251E40E94C03168
:10512000AB01BC0188ED97E00E94AA0480910103C5
:10513000909102030091510210915202019709F0DF
:105140004CC060914F027091500280E090E00E944C
:10515000593220E030E040E251E40E94C0314B017E
:105160005C01B80180E090E00E94593220E030E01C
:1051700040E251E40E94C031A50194010E945731E0
:105180002B013C0160915B0270915C0280E090E039
:105190000E94593220E030E040E251E40E94C031E8
:1051A0009B01AC01C301B2010E94C0312B013C0143
:1051B00029813A814B815C81C701B6010E94573138
:1051C0009B01AC01C301B2010E9462339B01AC019F
:1051D000C501B4010E9458310BC0B80180E090E0D5
:1051E0000E94593220E030E040E251E40E94C03198
:1051F000AB01BC0182E596E00E94AA048091010304
:10520000909102030091470210914802019709F022
:105210004CC0609145027091460280E090E00E948F
:10522000593220E030E040E251E40E94C0314B01AD
:105230005C01B80180E090E00E94593220E030E04B
:1052400040E251E40E94C031A50194010E9457310F
:105250002B013C0160915B0270915C0280E090E068
:105260000E94593220E030E040E251E40E94C03117
:105270009B01AC01C301B2010E94C0312B013C0172
:1052800029813A814B815C81C701B6010E94573167
:105290009B01AC01C301B2010E9462339B01AC01CE
:1052A000C501B4010E9458310BC0B80180E090E004
:1052B0000E94593220E030E040E251E40E94C031C7
:1052C000AB01BC018AE598E00E94AA048091010329
:1052D000909102030091470210914802019709F052
:1052E00077C6609145027091460280E090E00E948E
:1052F000593220E030E040E251E40E94C0314B01DD
:105300005C01B80180E090E00E94593220E030E07A
:1053100040E251E40E94C031A5019401C8D72B019D
:105320003C0160915B0270915C0280E090E00E9421
:10533000593220E030E040E251E40E94C0319B014C
:10534000AC01C301B2010E94C0312B013C01298193
:105350003A814B815C812EC62D813E814F815885DB
:10536000C701B6010E945E3318160CF00BC22985E6
:105370003A854B855C85C701B601FED718160CF43B
:1053800001C2809103039091040300915302109194
:1053900054020197B1F5609151027091520280E080
:1053A00090E00E94593220E030E040E251E4E8D73A
:1053B0004B015C01B80180E090E00E94593220E08E
:1053C00030E040E251E4DCD7A501940170D72D898B
:1053D0003E894F89588DD4D72B013C012D813E81C8
:1053E0004F815885C701B60162D79B01AC01C3014B
:1053F000B2010E9462339B01AC01C501B40158D7D0
:105400000AC0B80180E090E00E94593220E030E00C
:1054100040E251E4B5D7AB01BC018CED98E00E94AD
:10542000AA04809103039091040300915302109108
:105430005402019709F045C06091510270915202E7
:1054400080E090E00E94593220E030E040E251E4F8
:1054500097D74B015C01B80180E090E00E9459327F
:1054600020E030E040E251E48BD7A50194011FD742
:105470002B013C0160915D0270915E0280E090E042
:105480000E94593220E030E040E251E479D79B019C
:10549000AC01C301B20174D72B013C012D813E81C7
:1054A0004F815885C701B60102D79B01AC01C301EA
:1054B000B2010E9462339B01AC01C501B401F8D670
:1054C00009C0B80180E090E0F4D720E030E040E28D
:1054D00051E456D7AB01BC0186E597E00E94AA04CF
:1054E00080910303909104030091530210915402A0
:1054F000019709F042C0609151027091520280E020
:1055000090E0D7D720E030E040E251E439D74B01BA
:105510005C01B80180E090E0CCD720E030E040E2D0
:1055200051E42ED7A5019401C2D62B013C01609114
:105530005D0270915E0280E090E0BBD720E030E039
:1055400040E251E41DD79B01AC01C301B20118D761
:105550002B013C012D813E814F815885C701B60149
:10556000A6D69B01AC01C301B2010E9462339B012C
:10557000AC01C501B4019CD609C0B80180E090E03F
:1055800098D720E030E040E251E4FAD6AB01BC010C
:1055900088ED97E00E94AA04809103039091040390
:1055A0000091530210915402019709F042C060919A
:1055B00051027091520280E090E07BD720E030E011
:1055C00040E251E4DDD64B015C01B80180E090E09F
:1055D00070D720E030E040E251E4D2D6A50194013A
:1055E00066D62B013C0160915D0270915E0280E005
:1055F00090E05FD720E030E040E251E4C1D69B016B
:10560000AC01C301B201BCD62B013C012D813E810E
:105610004F815885C701B6014AD69B01AC01C30131
:10562000B2010E9462339B01AC01C501B40140D6B6
:1056300009C0B80180E090E03CD720E030E040E2D3
:1056400051E49ED6AB01BC0182E596E00E94AA041B
:1056500080910303909104030091490210914A0242
:10566000019709F041C0609147027091480280E0C3
:1056700090E01FD720E030E040E251E481D64B01BA
:105680005C01B80180E090E014D720E030E040E217
:1056900051E476D6A50194010AD62B013C01609114
:1056A0005D0270915E0280E090E003D720E030E080
:1056B00040E251E465D69B01AC01C301B20160D662
:1056C0002B013C012D813E814F815885C701B601D8
:1056D000EED59B01AC01C301B201F4D79B01AC0133
:1056E000C501B401E5D509C0B80180E090E0E1D67C
:1056F00020E030E040E251E443D6AB01BC018AE552
:1057000098E00E94AA048091030390910403009101
:10571000490210914A02019709F05AC46091470268
:105720007091480280E090E0C4D620E030E040E292
:1057300051E426D64B015C01B80180E090E0B9D677
:1057400020E030E040E251E41BD6A5019401AFD542
:105750002B013C0160915D0270915E0280E090E05F
:10576000A8D620E030E040E251E40AD69B01AC012B
:10577000C301B20105D62B013C012D813E814F8131
:10578000588518C429853A854B855C85C701B601C3
:1057900095D718160CF0FFC12D853E854F85588989
:1057A000C701B601E9D518160CF4F5C180910503BF
:1057B000909106030091550210915602019789F5C8
:1057C000609153027091540280E090E072D620E024
:1057D00030E040E251E4D4D54B015C01B80180E0F7
:1057E00090E067D620E030E040E251E4C9D5A50161
:1057F00094015DD5A3019201C3D52B013C012985FC
:105800003A854B855C85C701B60151D59B01AC013A
:10581000C301B20157D79B01AC01C501B40148D502
:1058200009C0B80180E090E044D620E030E040E2DA
:1058300051E4A6D5AB01BC018CED98E00E94AA040E
:105840008091050390910603009155021091560234
:10585000019709F041C0609153027091540280E0B9
:1058600090E027D620E030E040E251E489D54B01BA
:105870005C01B80180E090E01CD620E030E040E21E
:1058800051E47ED5A501940112D52B013C01609114
:105890005F027091600280E090E00BD620E030E083
:1058A00040E251E46DD59B01AC01C301B20168D562
:1058B0002B013C0129853A854B855C85C701B601E2
:1058C000F6D49B01AC01C301B201FCD69B01AC0133
:1058D000C501B401EDD409C0B80180E090E0E9D57C
:1058E00020E030E040E251E44BD5AB01BC0186E55D
:1058F00097E00E94AA04809105039091060300910D
:10590000550210915602019709F041C0609153026F
:105910007091540280E090E0CCD520E030E040E28D
:1059200051E42ED54B015C01B80180E090E0C1D577
:1059300020E030E040E251E423D5A5019401B7D442
:105940002B013C0160915F027091600280E090E069
:10595000B0D520E030E040E251E412D59B01AC012B
:10596000C301B2010DD52B013C0129853A854B8538
:105970005C85C701B6019BD49B01AC01C301B20198
:10598000A1D69B01AC01C501B40192D409C0B801F4
:1059900080E090E08ED520E030E040E251E4F0D4A9
:1059A000AB01BC0188ED97E00E94AA048091050339
:1059B000909106030091550210915602019709F04B
:1059C00041C0609153027091540280E090E071D523
:1059D00020E030E040E251E4D3D44B015C01B80157
:1059E00080E090E066D520E030E040E251E4C8D4A9
:1059F000A50194015CD42B013C0160915F02709180
:105A0000600280E090E055D520E030E040E251E4D3
:105A1000B7D49B01AC01C301B201B2D42B013C014C
:105A200029853A854B855C85C701B60140D49B0129
:105A3000AC01C301B20146D69B01AC01C501B40162
:105A400037D409C0B80180E090E033D520E030E0E1
:105A500040E251E495D4AB01BC0182E596E00E949E
:105A6000AA04809105039091060300914B021091C6
:105A70004C02019709F041C06091490270914A02BD
:105A800080E090E016D520E030E040E251E478D4A8
:105A90004B015C01B80180E090E00BD520E030E0E4
:105AA00040E251E46DD4A501940101D42B013C01E5
:105AB00060915F027091600280E090E0FAD420E093
:105AC00030E040E251E45CD49B01AC01C301B2017F
:105AD00057D42B013C0129853A854B855C85C7014C
