:1000000034C1000063C1000061C100005FC1000095
:100010005DC100005BC1000059C1000057C1000074
:1000200055C100000C9477150C9477150C94771536
:100030004DC100004BC1000049C1000047C1000094
:1000400045C1000043C1000041C100003FC10000A4
:100050003DC100003BC1000039C100000C94681391
:1000600035C100000C9490120C9467122FC100004F
:100070002DC100002BC1000029C1000027C10000D4
:1000800025C1000023C1000021C100001FC10000E4
:100090000C943D120C94141219C100000C94B2136C
:1000A00015C1000013C1000011C100000FC1000004
:1000B0000DC100000BC1000009C1000007C1000014
:1000C00005C1000003C1000001C100000C94EA1149
:1000D0000C94C111FBC000000C9497110C946E118C
:1000E000F5C00000830D830DA40DA40DA9069D0D80
:1000F000B40DB40DB40DB40DB40DB40DB40DB40DF8
:10010000830DA40DC906C906170E170E4C0E890ED5
:10011000FF06FF06FF06FF06FF06FF06FF06FF06B7
:10012000980EE90E4E105110401044104A108810DD
:10013000551059105F10631067106D107110751015
:1001400088107B107F108310000020002300260001
:1001500029002C002F0032000001000003010601DD
:10016000090100002200250028002B002E0031008C
:10017000340002010000050108010B0100000A0B18
:1001800002090C0D0E080703040100000000000026
:10019000000000000000000000000000000000005F
:1001A000000000000000000012111000000000001C
:1001B000000000000000000000000000000000003F
:1001C000000000002100240027002A002D0030003C
:1001D000330001010000040107010A01010210209F
:1001E000200808102040102040800201020108046D
:1001F0000201010204081020408080402010080401
:100200000201800402018040201008040201080459
:10021000020101020408102040800102040810209D
:1002200040800505050507050808080802020202C6
:100230000A0A080804040404010101010101010182
:100240000303030303030303040707070C0C0C0C4D
:100250000C0C0C0C02020202060606060606060636
:100260000B0B0B0B0B0B0B0B913011241FBECFEFA5
:10027000D1E2DEBFCDBF00E00CBF12E0A0E0B2E0F3
:10028000E2E8F8E600E00BBF02C007900D92AA3446
:10029000B107D9F729E0AAE4B2E001C01D92A13D5F
:1002A000B207E1F711E0C5E3D1E000E006C0219715
:1002B0000109802FFE010E943334C433D10780E04E
:1002C0000807A9F70E94481D0C943F3499CE4F921D
:1002D0005F926F927F928F929F92AF92BF92CF92D6
:1002E000DF92EF92FF920F931F93CF93DF9300D093
:1002F00000D0CDB7DEB79E838D832A013B01480134
:100300005901FC01EB59FF4F408351836283738392
:10031000349600831183228333833496C082D18242
:10032000E282F38220E030E0A901C301B2010E9421
:10033000263287FD89C020E030E0A901C501B40163
:100340000E94263287FD80C020E030E0A901C7016D
:10035000B6010E94263287FD77C081E0ED81FE81E3
:10036000228D338D2130310509F080E0ED81FE8151
:1003700083AF408251826282738284829582A68298
:10038000B782C086D186E286F38666A577A580A966
:1003900091A90E94C33220E030E04AE754E40E9471
:1003A0002A3269837A838B839C83ED81FE81448624
:1003B0005586668677869B01AC01C501B4010E9413
:1003C000CC334B015C01ED81FE81608B718B828BA4
:1003D000938B29813A814B815C81C701B6010E94D0
:1003E0002A326B017C01ED81FE81648B758B868BDB
:1003F000978B808D918D019739F5A301920160E073
:1004000070E0CB010E94C131ED81FE816487758768
:1004100086879787A501940160E070E0CB010E9478
:10042000C131ED81FE81608B718B828B938BA70133
:10043000960160E070E0CB010E94C131ED81FE8148
:10044000648B758B868B978B26960FB6F894DEBFE0
:100450000FBECDBFDF91CF911F910F91FF90EF9015
:10046000DF90CF90BF90AF909F908F907F906F90D4
:100470005F904F9008952F923F924F925F926F92AC
:100480007F928F929F92AF92BF92CF92DF92EF9224
:10049000FF920F931F93CF93DF9300D01F92CDB79E
:1004A000DEB71C01FC01E358FF4F808191012F5AF8
:1004B0003F4F3C832B83882309F463C00E945C1365
:1004C0006B017C01EB81FC8180809180A280B380F4
:1004D000F101EB5AFF4F2DEC3CEC4CE45DE3608105
:1004E0007181828193810E94CC332B013C01810177
:1004F000075A1F4F20E030E040EB51E4C501B40142
:100500000E94C131F80120813181428153810E94D2
:10051000CC339B01AC01C301B2010E94C131F10196
:10052000E35AFF4F20813181428153810E942A3258
:100530002B013C01F1E62F0E311CF10180819181EC
:10054000B601681B790B072E000C880B990B0E94D3
:10055000C5329B01AC01C301B2010E94CC33A5019D
:1005600094010E94C231EB81FC816083718382839C
:1005700093830E945C13F101608371838283938370
:1005800046C08101045C1F4FC8010E94021661E051
:10059000C8010E94F01519821A8222E0AE014F5F55
:1005A0005F4F61E0C8010E94B51969817A817627A1
:1005B000672776277695679580E090E00E94C332A2
:1005C00020E030E040E058E30E94CC33F101E758EE
:1005D000FF4F20813181428153810E94CC33F10150
:1005E000EF58FF4F20813181428153810E94CC33EB
:1005F000F101EB58FF4F20813181428153810E94EC
:10060000C231EB81FC816083718382839383EB81B0
:10061000FC8160817181828193810F900F900F9096
:100620000F90DF91CF911F910F91FF90EF90DF908E
:10063000CF90BF90AF909F908F907F906F905F9082
:100640004F903F902F9008950E945C130E94C332F8
:1006500020E030E04AE754E40C942A3208951F93D6
:10066000CF93DF93EC010E948816182FCE010196DC
:100670000E94881690E0982F8827810F911DDF91A6
:10068000CF911F9108950F931F93CF93DF938C0108
:10069000EB01CB01E4DF8017910759F0602FCE0109
:1006A0000E943218612FCE0101960E94321881E01B
:1006B00001C080E0DF91CF911F910F910895FC015F
:1006C00012AEEB5AFF4F1082118212821382B8963B
:1006D0002081211108C0FA9740E050E06081805CE1
:1006E0009F4F0C94F91708952F923F924F925F926B
:1006F0006F927F928F929F92AF92BF92CF92DF9232
:10070000EF92FF920F931F93CF93DF93CDB7DEB796
:100710002F970FB6F894DEBF0FBECDBF9F878E8791
:10072000DC01DA968C91DA9781113DC05E96ED91ED
:10073000FC915F97C080D180E280F380FD01C6A26A
:10074000D7A2E0A6F1A65C96ED91FC915D97808121
:100750009181A281B381EE85FF8582A793A7A4A78B
:10076000B5A786A897A8A0ACB1ACA5019401C70114
:10077000B6010E94C833181674F0EE85FF8582A872
:1007800093A8A4A8B5A8A5019401C701B6010E9429
:10079000263287FF08C0AE85BF8596968D929D92C2
:1007A000AD92BC92999781E0EE85FF8582AFCF0133
:1007B00062DEAE85BF85DA968C91882309F42AC162
:1007C0000E945C136D837E838F839887EE85FF85FF
:1007D00082A193A1A4A1B5A14D815E816F8178858D
:1007E000481B590B6A0B7B0B86A597A5A0A9B1A93D
:1007F000481759076A077B0708F40CC1048CF58D6C
:10080000E02D80819181A281B38189839A83AB831A
:10081000BC83AE85BF859096ED91FC91919729811F
:100820003A814B815C8160817181828193810E94D8
:10083000C1314B015C01EE85FF8522A533A544A59E
:1008400055A569817A818B819C810E94C1316B01A0
:100850007C01AE85BF8550962D913D914D915C9167
:100860005397C501B4010E94CC33EE85FF8526A1C4
:1008700037A140A551A50E94C2312B013C01AE8594
:10088000BF8596966D937D938D939C939997DB96F8
:10089000BC91B987B11118C0EE85FF8524853585D7
:1008A00046855785C701B6010E94CC339B01AC0138
:1008B000C301B2010E94C131AE85BF8596966D938A
:1008C0007D938D939C939997EE85FF8546A057A0C5
:1008D00060A471A416A907A930AC21AC212F302F38
:1008E000432D522DC301B2010E94C83318162CF4B7
:1008F000812F902FA32DB22D18C0AE85BF85D29623
:100900008D919D910D90BC91A02D8A879B87AC877E
:10091000BD879C01AD01C301B2010E94263287FF51
:100920000AC08A859B85AC85BD85EE85FF8586A33B
:1009300097A3A0A7B1A7F985FF2379F0AE85BF855E
:100940001C962D913D914D915C911F97C501B4016D
:100950000E94CC334B015C0103C0812C912C5401CB
:10096000EE85FF852489358946895789C701B601F7
:100970000E94CC339B01AC01AE85BF8596966D91EC
:100980007D918D919C9199970E94C131A50194010F
:100990000E94C2316B017C019B01AC01612F702F61
:1009A000832D922D0E94263287FD14C0EE85FF858F
:1009B00012A903A934A825A8212F302F432D522D89
:1009C000B601C7010E94263287FD04C01C2D0D2DE3
:1009D0003E2C2F2CAE85BF855E96ED91FC915F97E6
:1009E000812F902FA32DB22D80839183A283B38377
:1009F00089819A81AB81BC81EE85FF8582A793A70F
:100A0000A4A7B5A78D819E81AF81B88582A393A34A
:100A1000A4A3B5A3EE85FF85E358FF4F8081811124
:100A20002EC0EE85FF85EB5AFF4F60817181828178
:100A300093810E949732EE85FF85ED5BFF4FAB01FE
:100A400060818E859F85805C9F4F2F960FB6F894AE
:100A5000DEBF0FBECDBFDF91CF911F910F91FF90F1
:100A6000EF90DF90CF90BF90AF909F908F907F904E
:100A70006F905F904F903F902F900C94F9172F96A6
:100A80000FB6F894DEBF0FBECDBFDF91CF911F919F
:100A90000F91FF90EF90DF90CF90BF90AF909F901D
:100AA0008F907F906F905F904F903F902F90089520
:100AB0008F929F92AF92BF92CF92DF92EF92FF926E
:100AC000CF93DF93EC016A017B01FC01E35BFF4FF5
:100AD00080809180A280B3809A01AB01C501B401EE
:100AE0000E942632C258DF4F87FF05C08882998254
:100AF000AA82BB8212C020E030E0A901C701B60182
:100B00000E94263287FF05C0188219821A821B8232
:100B100004C0C882D982EA82FB82DF91CF91FF9024
:100B2000EF90DF90CF90BF90AF909F908F900895FF
:100B30008F929F92AF92BF92CF92DF92EF92FF92ED
:100B40000F931F93CF93DF938AE492E09093B909B8
:100B50008093B80982E68093CA0980917209843033
:100B600028F480916D0990916E0904C080916F09FD
:100B700090917009DC01ED91FC910084F185E02DEC
:100B80001995882309F43BC19091B709891791F011
:100B90008093B7090E945C13DC01CB010596A11D6F
:100BA000B11D8093C2099093C309A093C409B09367
:100BB000C50925C10E945C130091C2091091C309A7
:100BC0002091C4093091C509601771078207930706
:100BD00008F415C11092B70980917309823050F062
:100BE000809105018F7B80930501809105018F7DA8
:100BF000809305011092B6098091720910E084304B
:100C000008F041C080916D0990916E09DC01ED9171
:100C1000FC910084F185E02D1995892B09F440C0E1
:100C2000C091B609D0E080916D0990916E09DC0108
:100C3000ED91FC910284F385E02D1995C359D64FAF
:100C400089878091B6098F5F8093B6098034D0F28E
:100C500011E0D8CFC091B609D0E080916F09909192
:100C60007009DC01ED91FC910284F385E02D19956A
:100C7000C359D64F89878091B6098F5F8093B60993
:100C8000803408F011E080916F0990917009DC01C7
:100C9000ED91FC910084F185E02D1995892BD1F619
:100CA0008091BA099091BB0901969093BB098093FA
:100CB000BA09112359F08091BE099091BF0901969C
:100CC0009093BF098093BE098DEF02C08091B60951
:100CD0008093750987300CF492C0909176098091C9
:100CE000710998138CC08091B609C82FD0E082504A
:100CF0000E94B918FE01E359F64F278130E0322FE8
:100D000022274085242B2817390759F08091BE09E6
:100D10009091BF0901969093BF098093BE09CFEFD0
:100D200035C040917709ECE0F2E084E192E0219156
:100D3000241709F4DBC68E179F07C9F78091BE09F7
:100D40009091BF0901969093BF098093BE09C1E0BD
:100D500012C080917809909179099827892798275E
:100D6000D4E096958795DA95E1F79091CA0998179E
:100D700008F0FAC6C2E080E8840F80937709C09338
:100D8000780983E08093B6090E94D518C09375094D
:100D900036C02091780930917909322723273227EC
:100DA00040917A0950917B09542745275427FA012D
:100DB000C3E0F695E795CA95E1F78E2FBA01677003
:100DC00077276115710511F081E08E0F8093780906
:100DD00083E08093B609420F531F90E0812C912C41
:100DE000540183944217530709F0E3C68093B60970
:100DF000672B19F08F5F8093B6090E94D51824DC09
:100E000020911A0330911B0340911C0350911D0344
:100E10000E94C131209108023091090240910A02DA
:100E200050910B020E94C83387FF33C360916C025C
:100E300070916D0280E090E00E94C33220E030E0CB
:100E400048EC52E40E942A326B017C0160916A02F4
:100E500070916B0280E090E00E94C33220E030E0AD
:100E600048EC52E40E942A324B015C016091680216
:100E70007091690280E090E00E94C33220E030E08F
:100E800048EC52E40E942A32AB01BC019501840176
:100E900088EE98E01CDA60916E0270916F0280E03B
:100EA00090E00E94C33220E030E44CE156E40E941E
:100EB0002A326093590970935A0980935B09909381
:100EC0005C09609170027091710280E090E00E9474
:100ED000C33220E030E048EC52E40E942A326093B2
:100EE0005D0970935E0980935F099093600960913A
:100EF00072027091730280E090E00E94C3326093AE
:100F00006109709362098093630990936409609109
:100F1000F8027091F90280E090E00E94C33220E074
:100F200030E040E251E40E942A3260933509709328
:100F3000360980933709909338096091780270914F
:100F4000790280E090E00E94C33220E030E048EC7B
:100F500052E40E942A326B017C016091760270910A
:100F6000770280E090E00E94C33220E030E048EC5D
:100F700052E40E942A324B015C016091740270912C
:100F8000750280E090E00E94C33220E030E048EC3F
:100F900052E40E942A32AB01BC019501840186E62D
:100FA00098E095D960917A0270917B0280E090E0A0
:100FB0000E94C33220E030E44CE156E40E942A3221
:100FC0006093D7087093D8088093D9089093DA0873
:100FD00060917C0270917D0280E090E00E94C332BB
:100FE00020E030E048EC52E40E942A326093DB08B3
:100FF0007093DC088093DD089093DE0860917202A4
:101000007091730280E090E00E94C33260936109A6
:101010007093620980936309909364096091F80268
:101020007091F90280E090E00E94C33220E030E04D
:1010300040E251E40E942A326093B3087093B408EE
:101040008093B5089093B6086091840270918502F0
:1010500080E090E00E94C33220E030E048EC52E4AF
:101060000E942A326B017C0160918202709183029E
:1010700080E090E00E94C33220E030E048EC52E48F
:101080000E942A324B015C016091800270918102C2
:1010900080E090E00E94C33220E030E048EC52E46F
:1010A0000E942A32AB01BC019501840184EE97E0D5
:1010B0000ED9609186027091870280E090E00E94D4
:1010C000C33220E030E44CE156E40E942A326093BF
:1010D000550870935608809357089093580860916C
:1010E00088027091890280E090E00E94C33220E083
:1010F00030E048EC52E40E942A3260935908709321
:101100005A0880935B0890935C086091720270911A
:10111000730280E090E00E94C33260936109709393
:10112000620980936309909364096091F802709159
:10113000F90280E090E00E94C33220E030E040E21B
:1011400051E40E942A3260933108709332088093F0
:10115000330890933408609190027091910280E07E
:1011600090E00E94C33220E030E048EC52E40E945C
:101170002A326B017C0160918E0270918F0280E0B7
:1011800090E00E94C33220E030E048EC52E40E943C
:101190002A324B015C0160918C0270918D0280E0DB
:1011A00090E00E94C33220E030E048EC52E40E941C
:1011B0002A32AB01BC019501840182E697E087D811
:1011C000609192027091930280E090E00E94C3329D
:1011D00020E030E44CE156E40E942A326093D307C9
:1011E0007093D4078093D5079093D60760919402AB
:1011F0007091950280E090E00E94C33220E030E0E0
:1012000048EC52E40E942A326093D7077093D807C3
:101210008093D9079093DA076091720270917302FC
:1012200080E090E00E94C33260936109709362098C
:1012300080936309909364096091F8027091F902B8
:1012400080E090E00E94C33220E030E040E251E4D0
:101250000E942A326093AF077093B0078093B10762
:101260009093B20760919C0270919D0280E090E0A3
:101270000E94C33220E030E048EC52E40E942A325F
:101280006B017C0160919A0270919B0280E090E07A
:101290000E94C33220E030E048EC52E40E942A323F
:1012A0004B015C0160918C0270918D0280E090E0B6
:1012B0000E94C33220E030E048EC52E40E942A321F
:1012C000AB01BC019501840180EE96E000D86091ED
:1012D0009E0270919F0280E090E00E94C33220E065
:1012E00030E44CE156E40E942A3260935107709337
:1012F000520780935307909354076091A002709116
:10130000A10280E090E00E94C33220E030E048EC8F
:1013100052E40E942A3260935507709356078093D7
:10132000570790935807609172027091730280E0A2
:1013300090E00E94C33260936109709362098093C8
:101340006309909364096091F8027091F90280E05A
:1013500090E00E94C33220E030E040E251E40E947D
:101360002A3260932D0770932E0780932F07909356
:1013700030076091A8027091A90280E090E00E947D
:10138000C33220E030E048EC52E40E942A326B0184
:101390007C016091A6027091A70280E090E00E941B
:1013A000C33220E030E048EC52E40E942A324B0184
:1013B0005C0160918C0270918D0280E090E00E944F
:1013C000C33220E030E048EC52E40E942A32AB0104
:1013D000BC01950184018EE596E00E946701609151
:1013E000AA027091AB0280E090E00E94C33220E03C
:1013F00030E44CE156E40E942A326093CF067093A9
:10140000D0068093D1069093D2066091AC02709181
:10141000AD0280E090E00E94C33220E030E048EC72
:1014200052E40E942A326093D3067093D4068093CC
:10143000D5069093D606609172027091730280E097
:1014400090E00E94C33260936109709362098093B7
:101450006309909364096091F8027091F90280E049
:1014600090E00E94C33220E030E040E251E40E946C
:101470002A326093AB067093AC068093AD069093CE
:10148000AE068091CC029091CD02019709F0A8C0E0
:10149000BFC0DAD860931A0370931B0380931C03B8
:1014A00090931D038091CC029091CD02019709F495
:1014B000BDCC08E612E0C8EED3E05E01B8E1AB0EA9
:1014C000B11C68017E01B701F601819191916F0114
:1014D000DAD8F4E0EF0EF11CAE14BF04A1F7C85146
:1014E000DC4F045F1F4FC8358BE1D80731F70AE4A2
:1014F00012E0C0E0D0E0BE01D8018D919D918D0138
:10150000C2D82496C431D105B1F704E512E0BE017A
:10151000F801819191918F01B6D82496C832D105F6
:10152000B1F70EE512E0BE01D8018D919D918D01BC
:10153000AAD82496CC33D105B1F76CE370E0809142
:10154000BC029091BD029FD860E470E08091BE0221
:101550009091BF0298D864E470E08091C0029091AD
:10156000C10291D868E470E08091C2029091C302F8
:101570008AD86CE470E08091C4029091C50283D84F
:1015800060E570E08091F4029091F5027CD864E50A
:1015900070E08091F6029091F70275D868E570E0EE
:1015A0008091F8029091F9026ED80AEF12E0CCE532
:1015B000D0E0BE01F801819191918F0164D8249609
:1015C000C037D105B1F704E013E0BE01D8018D9119
:1015D0009D918D0158D82496C438D105B1F726CCF9
:1015E00088EE98E00E943B0286E698E00E943B026B
:1015F00084EE97E00E943B0282E697E00E943B0265
:1016000080EE96E00E943B028EE596E00E943B024F
:10161000C0903909D0903A09E0903B09F0903C091C
:10162000C701B6010E94973280E090E00E94C33269
:1016300020E030E040E251E40E94CC330E94973237
:101640007093D3026093D2026091B7087091B8088A
:101650008091B9089091BA080E94973280E090E09A
:101660000E94C33220E030E040E251E40E94CC33DB
:101670000E9497327093D5026093D402609135082E
:101680007091360880913708909138080E949732FF
:1016900080E090E00E94C33220E030E040E251E47C
:1016A0000E94CC330E9497327093D7026093D60287
:1016B0006091B3077091B4078091B5079091B60718
:1016C0000E94973280E090E00E94C33220E030E038
:1016D00040E251E40E94CC330E9497327093D902C9
:1016E0006093D8026091310770913207809133077F
:1016F000909134070E94973280E090E00E94C332BC
:1017000020E030E040E251E40E94CC330E94973266
:101710007093DB026093DA026091AF067091B006BD
:101720008091B1069091B2060E94973280E090E0DD
:101730000E94C33220E030E040E251E40E94CC330A
:101740000E9497327093DD026093DC02C701B601FC
:101750000E94C81688E392E00E94B7166091B7080D
:101760007091B8088091B9089091BA080E94C81683
:1017700088E392E00E94B7166091350870913608B0
:1017800080913708909138080E94C81688E392E04B
:101790000E94B7166091B3077091B4078091B507A6
:1017A0009091B6070E94C81688E392E00E94B7168F
:1017B000609131077091320780913307909134071F
:1017C0000E94C81688E392E00E94B7166091AF06A7
:1017D0007091B0068091B1069091B2060E94C81631
:1017E0008BE392E00E94B7162091310930913209C3
:1017F000409133095091340960913D0970913E093F
:1018000080913F09909140090E942A3220E030E007
:1018100048EC52E40E94CC330E94973280E090E082
:101820000E94C33220E030E040E251E40E94CC3319
:101830000E9497327093E1026093E0022091AF081A
:101840003091B0084091B1085091B2086091BB0846
:101850007091BC088091BD089091BE080E942A3208
:1018600020E030E048EC52E40E94CC330E949732F2
:1018700080E090E00E94C33220E030E040E251E49A
:101880000E94CC330E9497327093E3026093E2028D
:1018900020912D0830912E0840912F08509130084A
:1018A0006091390870913A0880913B0890913C080A
:1018B0000E942A3220E030E048EC52E40E94CC330F
:1018C0000E94973280E090E00E94C33220E030E036
:1018D00040E251E40E94CC330E9497327093E502BB
:1018E0006093E4022091AB073091AC074091AD07C3
:1018F0005091AE076091B7077091B8078091B90712
:101900009091BA070E942A3220E030E048EC52E47D
:101910000E94CC330E94973280E090E00E94C33254
:1019200020E030E040E251E40E94CC330E94973244
:101930007093E7026093E6022091290730912A070D
:1019400040912B0750912C07609135077091360715
:1019500080913707909138070E942A3220E030E0CA
:1019600048EC52E40E94CC330E94973280E090E031
:101970000E94C33220E030E040E251E40E94CC33C8
:101980000E9497327093E9026093E8022091A706C3
:101990003091A8064091A9065091AA066091B3061D
:1019A0007091B4068091B5069091B6060E942A32D5
:1019B00020E030E048EC52E40E94CC330E949732A1
:1019C00080E090E00E94C33220E030E040E251E449
:1019D0000E94CC330E9497327093EB026093EA022C
:1019E0008091CC029091CD02019709F416C26091CA
:1019F000BC027091BD0280E090E00E94C33220E002
:101A000030E040E251E40E942A32AB01BC0188EE92
:101A100098E04ED86091BC027091BD0280E090E0E9
:101A20000E94C33220E030E040E251E40E942A32BA
:101A3000AB01BC0182E697E03BD86091C002709197
:101A4000C10280E090E00E94C33220E030E040E23A
:101A500051E40E942A32AB01BC0184EE97E028D801
:101A60006091C0027091C10280E090E00E94C33298
:101A700020E030E040E251E40E942A32AB01BC0198
:101A80008EE596E015D86091BE027091BF0280E0AD
:101A900090E00E94C33220E030E040E251E40E9436
:101AA0002A32AB01BC0186E698E002D86091BE0202
:101AB0007091BF0280E090E00E94C33220E030E0ED
:101AC00040E251E40E942A32AB01BC0180EE96E074
:101AD000DF91CF911F910F91FF90EF90DF90CF900A
:101AE000BF90AF909F908F900C945805842F90E0FA
:101AF000FC013197E031F105B8F58827EE58FF4F2A
:101B00008F4F0C94333480917809909179099827FC
:101B1000892798279C0114E0369527951A95E1F7B7
:101B200080917A0990917B0998278927982704E06A
:101B3000969587950A95E1F714C080917809909160
:101B400079099827892711C980917A0990917B0991
:101B5000382F292F80917809909179099827892722
:101B60009827820F931F01C9A7D52091C0093091F2
:101B7000C109DC01CB01820F931FA11DB11D809310
:101B8000C6099093C709A093C809B093C9091092D8
:101B90007509E09177098E2F90E0FC013197E031D3
:101BA000F10508F02CC98827EE57FF4F8F4F0C9492
:101BB0003334F901A3E0F695E795AA95E1F7EE7FB6
:101BC000F170E65BFD4FA081B181E22FEF7002C0A2
:101BD000B695A795EA95E2F7E82FF0E0E359F64FBE
:101BE000A0FF0EC0A18575016401092E04C0CC0CB4
:101BF000DD1CEE1CFF1C0A94D2F7CA2AC1860FC056
:101C000075016401092E04C0CC0CDD1CEE1CFF1C08
:101C10000A94D2F7AC2DA095B185AB23A1879F5F25
:101C2000983010F08F5F90E02F5F3F4FDBC820911E
:101C300078093091790932272327322F80917A0948
:101C400090917B09982789279827482F440F409324
:101C50007809E3E09927820F911D22E02E0FA32F30
:101C6000B0E0A817B9071CF0E093B609C6C8AA0FE0
:101C7000BB1FA65BBD4F4C9111965C91AE2FB0E09F
:101C8000A359B64F19965C93EF5FF0E0E359F64F16
:101C900041873F5FE22FE1CF8091780990917909E8
:101CA000982789279827FC0114E0F695E7951A955F
:101CB000E1F7282F2F7080917A09FF27EE0FFF1F81
:101CC000E65BFD4F8F3F81F481E090E0A0E0B0E063
:101CD00004C0880F991FAA1FBB1F2A95D2F7208125
:101CE0003181822B932B11C081E090E0A0E0B0E025
:101CF00004C0880F991FAA1FBB1F2A95D2F7809591
:101D0000909520813181822393239183808386E083
:101D100072C8E0917909F0E0EE0FFF1FE65BFD4F1E
:101D200080917A0990917B09982789279827EDCF90
:101D3000809178099091790998278927982740916F
:101D40007A0950917B09542745275427480F591F7A
:101D500020E037E0812C912C54018394841795075F
:101D6000B1F2A82FAF70E32FF0E0E359F64F618591
:101D700070E0022E02C0759567950A94E2F7FC01A7
:101D800074E0F695E7957A95E1F7FF27EE0FFF1FD0
:101D9000E65BFD4F7501640104C0CC0CDD1CEE1C3C
:101DA000FF1CAA95D2F760FF05C060817181C62A29
:101DB000D72A06C0C094D09460817181C622D722F0
:101DC000D182C0822F5F283010F03F5F20E0019663
:101DD000C5CFE091790940917B0910927A0986E09C
:101DE0008093B609ADE6B9E0F0E0EE0FFF1FE65BC9
:101DF000FD4F20E01296421711F40C94FD061E963A
:101E00008C911E9790E0982F88271F963C911F97E2
:101E1000832B819391932F5FEDCFDF91CF911F9112
:101E20000F91FF90EF90DF90CF90BF90AF909F9079
:101E30008F900895FC01538D448D252F30E0842F21
:101E400090E0821B930B541710F0CF9608950197E2
:101E50000895FC01918D828D981761F0828DDF01CC
:101E6000A80FB11D5D968C91928D9F5F9F73928F8D
:101E700090E008958FEF9FEF0895FC01918D828D82
:101E8000981731F0828DE80FF11D858D90E008954F
:101E90008FEF9FEF0895FC01918D228D892F90E0A7
:101EA000805C9F4F821B91098F73992708958EED57
:101EB00093E0F1DF21E0892B09F420E0822F0895DF
:101EC0008BE794E0E8DF21E0892B09F420E0822F02
:101ED000089588E195E0DFDF21E0892B09F420E017
:101EE000822F089585EB95E0D6DF21E0892B09F458
:101EF00020E0822F0895FC01848DDF01A80FB11D21
:101F0000A35ABF4F2C91848D90E001968F7399272F
:101F1000848FA689B7892C93A089B1898C9183700D
:101F200080648C93938D848D981306C00288F38906
:101F3000E02D80818F7D80830895EF92FF920F9333
:101F40001F93CF93DF93EC0181E0888F9B8D8C8D65
:101F5000981305C0E889F989808185FD25C0F62E92
:101F60000B8D10E00F5F1F4F0F731127E02E8C8D2C
:101F7000E8120BC00FB607FCFACFE889F989808117
:101F800085FFF5CFCE01B7DFF2CF8B8DFE01E80FD5
:101F9000F11DE35AFF4FF0829FB7F8940B8FEA8947
:101FA000FB89808180620AC09FB7F894EE89FF891F
:101FB0006083E889F98980818370806480839FBF12
:101FC00081E090E0DF91CF911F910F91FF90EF9012
:101FD0000895CF93DF93EC01888D8823C1F0EA89BF
:101FE000FB89808185FD05C0A889B9898C9186FD12
:101FF0000EC00FB607FCF5CF808185FFF2CFA88910
:10200000B9898C9185FFEDCFCE0175DFE8CFDF91E7
:10201000CF91089580E090E0892B19F063DF811162
:1020200016C080E090E0892B19F053DF811112C0B7
:1020300080E090E0892B19F043DF81110EC080E031
:1020400090E0892B79F033DF81110AC008950E9456
:102050000000E7CF0E940000EBCF0E940000EFCF0E
:102060000C940000089590E0FC013197E231F105F5
:1020700008F04EC08827EE56FF4F8F4F0C94333434
:10208000809180008F7703C0809180008F7D809346
:102090008000089580918000877FF9CF84B58F7785
:1020A00002C084B58F7D84BD08958091B0008F7784
:1020B00003C08091B0008F7D8093B000089580911F
:1020C00090008F7707C0809190008F7D03C0809132
:1020D0009000877F8093900008958091A0008F7773
:1020E00007C08091A0008F7D03C08091A000877FF2
:1020F0008093A0000895809120018F7707C0809180
:1021000020018F7D03C080912001877F8093200173
:1021100008953FB7F89480918C0390918D03A0911E
:102120008E03B0918F0326B5A89B05C02F3F19F0F1
:102130000196A11DB11D3FBFBA2FA92F982F882747
:10214000820F911DA11DB11DBC01CD0142E0660FA2
:10215000771F881F991F4A95D1F7089585ED8093C1
:10216000BC008091BC0084FDFCCF1092D803089580
:1021700040916203262F30E0240F311D21323105BA
:10218000DCF42091D8032430C9F4FC0180E090E015
:10219000861758F4309162032191DC01A05CBC4F9A
:1021A000A30FB11D2C930196F3CF80916203680FAA
:1021B0006093620380E0089581E0089582E00895CD
:1021C000089508950895E091910380919003E81790
:1021D00030F4F0E0EE56FC4F808190E008958FEFF0
:1021E0009FEF08959091910380919003981750F478
:1021F000E92FF0E0EE56FC4F208130E09F5F909396
:10220000910302C02FEF3FEFC90108958091900321
:1022100090E020919103821B91090895CF92DF9263
:10222000EF92FF920F931F93CF93DF937C01CB012B
:102230008A012091DD03222389F0EB016B01C40E9A
:10224000D51ECC15DD0561F06991D701ED91FC91AA
:102250000190F081E02DC7011995F3CF642F88DF3D
:10226000C801DF91CF911F910F91FF90EF90DF9008
:10227000CF900895CF93DF931F92CDB7DEB76983D8
:102280002091DD032223D1F02091DA03203240F0A7
:1022900021E030E0FC013383228380E090E014C031
:1022A0008091DB03E82FF0E0E05EFC4F99819083A2
:1022B0008F5F8093DB038093DA0304C061E0CE017B
:1022C000019656DF81E090E00F90DF91CF91089565
:1022D000089580E090E008950E943B341F920F9291
:1022E0000FB60F9211240BB60F922F933F934F937B
:1022F0005F936F937F938F939F93AF93BF93EF936E
:10230000FF938EED93E0F7DDFF91EF91BF91AF91D9
:102310009F918F917F916F915F914F913F912F91FD
:102320000F900BBE0F900FBE0F901F9018951F922D
:102330000F920FB60F9211240BB60F922F933F936B
:102340004F935F936F937F938F939F93AF93BF93BD
:10235000EF93FF938EED93E00E942F1DFF91EF917D
:10236000BF91AF919F918F917F916F915F914F91AD
:102370003F912F910F900BBE0F900FBE0F901F90AB
:1023800018951F920F920FB60F9211240BB60F9251
:102390002F933F934F935F936F937F938F939F936D
:1023A000AF93BF93EF93FF938BE794E0A4DDFF918E
:1023B000EF91BF91AF919F918F917F916F915F91BD
:1023C0004F913F912F910F900BBE0F900FBE0F902A
:1023D0001F9018951F920F920FB60F9211240BB6F3
:1023E0000F922F933F934F935F936F937F938F93AE
:1023F0009F93AF93BF93EF93FF938BE794E00E947B
:102400002F1DFF91EF91BF91AF919F918F917F9180
:102410006F915F914F913F912F910F900BBE0F9055
:102420000FBE0F901F9018951F920F920FB60F922C
:1024300011240BB60F922F933F934F935F936F939B
:102440007F938F939F93AF93BF93EF93FF9388E115
:1024500095E051DDFF91EF91BF91AF919F918F91E9
:102460007F916F915F914F913F912F910F900BBE94
:102470000F900FBE0F901F9018951F920F920FB6DE
:102480000F9211240BB60F922F933F934F935F93AC
:102490006F937F938F939F93AF93BF93EF93FF932C
:1024A00088E195E00E942F1DFF91EF91BF91AF91C0
:1024B0009F918F917F916F915F914F913F912F915C
:1024C0000F900BBE0F900FBE0F901F9018951F928C
:1024D0000F920FB60F9211240BB60F922F933F93CA
:1024E0004F935F936F937F938F939F93AF93BF931C
:1024F000EF93FF9385EB95E0FEDCFF91EF91BF91A9
:10250000AF919F918F917F916F915F914F913F918B
:102510002F910F900BBE0F900FBE0F901F9018952C
:102520001F920F920FB60F9211240BB60F922F939A
:102530003F934F935F936F937F938F939F93AF934B
:10254000BF93EF93FF9385EB95E00E942F1DFF91C2
:10255000EF91BF91AF919F918F917F916F915F911B
:102560004F913F912F910F900BBE0F900FBE0F9088
:102570001F9018951F93CF93DF93282F30E0F90118
:10258000E458FE4F8491F901E452FE4FD491F901D1
:10259000EE5DFD4FC491CC23B9F0162F811163DDA0
:1025A000EC2FF0E0EE0FFF1FEE59FE4FA591B49116
:1025B0009FB7F894111104C08C91D095D82302C014
:1025C000EC91DE2BDC939FBFDF91CF911F9108959B
:1025D000CF93DF9390E0FC01E452FE4F2491FC0185
:1025E000EE5DFD4F8491882361F190E0880F991F83
:1025F000FC01EE53FE4FC591D491FC01EE59FE4F04
:10260000A591B491611109C09FB7F8948881209574
:1026100082238883EC912E230BC0623061F49FB734
:10262000F8948881322F309583238883EC912E2B68
:102630002C939FBF06C08FB7F894E8812E2B288378
:102640008FBFDF91CF9108958F929F92AF92BF92EB
:10265000CF92DF92EF92FF926B017C015ADD4B012A
:102660005C01C114D104E104F104E9F052DDDC01A4
:10267000CB0188199909AA09BB09883E9340A10595
:10268000B10578F321E0C21AD108E108F10888EE1B
:10269000880E83E0981EA11CB11CC114D104E10472
:1026A000F10421F7DECFFF90EF90DF90CF90BF9045
:1026B000AF909F908F9008952FB7F8946091880302
:1026C0007091890380918A0390918B032FBF0895A5
:1026D0001F920F920FB60F9211242F933F938F9357
:1026E0009F93AF93BF938091880390918903A091AA
:1026F0008A03B0918B033091870323E0230F2D379A
:1027000020F40196A11DB11D05C026E8230F0296F5
:10271000A11DB11D209387038093880390938903A3
:10272000A0938A03B0938B0380918C0390918D03C7
:10273000A0918E03B0918F030196A11DB11D8093CE
:102740008C0390938D03A0938E03B0938F03BF915E
:10275000AF919F918F913F912F910F900FBE0F904E
:102760001F9018951F920F920FB60F9211240BB65F
:102770000F922F933F934F935F936F937F938F931A
:102780009F93AF93BF93EF93FF938091B900887F9E
:10279000803609F49CC068F5883209F45BC090F477
:1027A000803109F454C038F4882309F4F6C0883025
:1027B00009F44DC0F5C0883109F44CC0803209F4E9
:1027C0005DC0EEC0803409F468C048F4803309F479
:1027D00055C0883309F0E4C08093D603D8C0803553
:1027E00009F44FC0883509F45DC0883409F0D8C0B9
:1027F000D6C0883909F4C7C0A8F4883709F467C07F
:1028000038F4883609F463C0803709F460C0C8C062
:10281000883809F4B8C0803909F45FC0803809F0FD
:10282000BFC05BC0803B09F486C038F4803A09F42D
:1028300066C0883A09F47FC0B3C0803C09F4A7C0E1
:10284000883C09F4A4C0883B09F48AC0A9C08091DF
:10285000D30310C09091D5038091D403981770F5DD
:10286000E091D50381E08E0F8093D503F0E0EE5424
:10287000FC4F80818093BB0085EC86C08093D6039B
:102880008EC0E091D50381E08E0F8093D5038091B7
:10289000BB00F0E0EE54FC4F80839091D503809113
:1028A000D4036EC0E091D50381E08E0F8093D503F1
:1028B0008091BB00F0E0EE54FC4F80838091D70301
:1028C00081116DC081E08093D20384EA61C083E00E
:1028D0008093D80310928603CFCF809186038032F5
:1028E00008F051C0E091860381E08E0F809386034B
:1028F0008091BB00F0E0EA59FC4F8083BDCF85ECAE
:102900008093BC001092D80380918603803230F40B
:10291000E0918603F0E0EA59FC4F10826091860353
:1029200070E0E0916403F091650386E693E0199509
:102930001092860335C084E08093D803109263031D
:1029400010926203E0916003F09161031995809108
:102950006203811105C081E08093620310924003FD
:10296000E091630381E08E0F80936303F0E0E05C0D
:10297000FC4F80818093BB00909163038091620340
:10298000981708F479CF85E88093BC0009C085ECDE
:102990008093BC001092D80303C01092D603DEDBF4
:1029A000FF91EF91BF91AF919F918F917F916F9127
:1029B0005F914F913F912F910F900BBE0F900FBEE3
:1029C0000F901F9018953091DA03313208F04AC009
:1029D0008091D8038111FCCF9091DC0322E02093F9
:1029E000D8036093D7032FEF2093D6031092D5031B
:1029F0003093D403E0E2F3E0A2EBB3E020E032173F
:102A000021F041914D932F5FFACF1092D303209183
:102A1000D303990F922B9093D3039091D2039130CB
:102A200061F41092D2039091D3039093BB009091E4
:102A3000BC0093FDF8CF95EC01C095EE9093BC00DF
:102A40009091D8039230E1F39091D6039F3F79F0B3
:102A50008091D603803241F08091D603803331F0EB
:102A600084E005C081E003C082E001C083E01092F1
:102A7000DB031092DA031092DD03089561E0A3CF27
:102A800010929103109290031092DB031092DA03DC
:102A90001092D80381E08093D7031092D20361E0B3
:102AA00084E168DD61E085E165DDE9EBF0E08081EE
:102AB0008E7F808380818D7F808388E48093B800BF
:102AC00085E48093BC0080EE90E190936103809355
:102AD000600381EE90E19093650380936403089511
:102AE000DC01ED91FC910190F081E02D19941F9291
:102AF0000F920FB60F9211240F900FBE0F901F90E0
:102B00001895AF92BF92CF92DF92EF92FF920F9300
:102B10001F93CF93DF93FC0120812F3F39F46EBDCB
:102B200000000DB407FEFDCF8EB53FC0C62EEC01F0
:102B300007E010E0D12CEE24E394F12CDD0C61E0F1
:102B4000888118DDB701002E01C0660F0A94EAF7EC
:102B50006C218A810FDD60E088810CDD298130E005
:102B6000F901E458FE4F8491F901E452FE4FB4900C
:102B7000F901EE5DFD4FA490AA2069F0811173DA8E
:102B8000EA2DF0E0EE0FFF1FE85BFE4FA591B49138
:102B9000EC91BE2231F40150110908F0CFCF8D2DF8
:102BA00004C08D2D8160D82EF6CFDF91CF911F917B
:102BB0000F91FF90EF90DF90CF90BF90AF9008956E
:102BC000CF93DF931F92CDB7DEB7198221E0AE011C
:102BD0004F5F5F4FCAD389810F90DF91CF910895E6
:102BE0001F93CF93DF93EC01162F60E0E9DF682F8E
:102BF000112311F0606401C06F7BCE01DF91CF9192
:102C00001F9190C3CF93DF93EC0160E0D9DF837D08
:102C1000682F6260CE01DF91CF9184C308958CBD8F
:102C20009DBD08951092CD021092CC0288EE98E0DE
:102C30000E945F0386E698E00E945F0384EE97E0BF
:102C40000E945F0382E697E00E945F0380EE96E0B9
:102C50000E945F038EE596E00C945F0388EE98E097
:102C60000E94740386E698E00E94740384EE97E065
:102C70000E94740382E697E00E94740380EE96E05F
:102C80000E9474038EE596E00C9474039091D8032F
:102C90009111FCCF91E09093D8039093D7032FEF3D
:102CA0002093D6031092D503260F2093D40390933C
:102CB000D3039091D303880F892B8093D303809102
:102CC000D203813061F41092D2038091D3038093B8
:102CD000BB008091BC0083FDF8CF85EC01C085EE80
:102CE0008093BC008091D8038130E1F38091D503BB
:102CF000861710F46091D503A2EBB3E0E2E9F3E0AC
:102D000080E0861721F09D9191938F5FFACF08950F
:102D10000F931F93CF93DF93EC010BEC19E0F801B5
:102D2000808191E09093DD038093DC031092DB03BC
:102D30001092DA036D2F70E082E596E0D1DEBE01DD
:102D4000772782E596E0CCDE82E596E097DE61E0CB
:102D5000F80180819BDF109291038093900382E5BC
:102D600096E040DADF91CF911F910F91089500977F
:102D700061F0FC0101900020E9F73197AF01481B99
:102D8000590BBC0185EB95E0D4C580E090E0089537
:102D90002F923F924F925F926F927F928F929F926B
:102DA000AF92BF92CF92DF92EF92FF920F931F9359
:102DB000CF93DF93CDB7DEB7A4970FB6F894DEBFFD
:102DC0000FBECDBF4B015C019B01AC010E942F34B3
:102DD000882319F08EE392E01AC075016401E8942B
:102DE000F7F82FEF3FEF4FE75FE7C701B6010E940B
:102DF0002F3481110EC02FEF3FEF4FE75FE7C70180
:102E0000B6010E942632181624F482E492E0AFDF65
:102E1000ACC02FEF3FEF4FE75FE4C501B4010E9464
:102E2000C83318161CF486E492E0F1CF2FEF3FEF81
:102E30004FE75FECC501B4010E94263287FDF3CF56
:102E400020E030E0A901C501B4010E94263287FFCD
:102E50000AC06DE285EB95E070D86C01B7FAB094CA
:102E6000B7F8B09402C0C12CD12C2AE037ED43EA68
:102E70005BE3C501B4010E94C2314B015C010E94B9
:102E800097322B013C010E94C3329B01AC01C5016A
:102E9000B4010E94C1314B015C0119A27E0181E2A3
:102EA000E80EF11CEAA2FBA2C301B2012AE030E065
:102EB00040E050E00E949F3129013A01605DF70136
:102EC00062937F01232B242B252B71F7CF014FDF3A
:102ED0008C016EE285EB95E030D8800F911F8C015C
:102EE0000C0D1D1D83E0F82E9AE0292E312C412C6B
:102EF000512CFA94FF20C1F120E030E040E251E48F
:102F0000C501B4010E94CC334B015C010E94973291
:102F10009B0140E050E019A26AA07BA06CA3C32EE5
:102F2000D42EE52ECA01B901A20191010E949F3160
:102F3000605DF30162933F012115310541055105A3
:102F400089F7CF0114DF080F191F6CA17C2D8D2D7F
:102F50009E2D0E94C3329B01AC01C501B4010E94A9
:102F6000C1314B015C01C5CFC801A4960FB6F894DE
:102F7000DEBF0FBECDBFDF91CF911F910F91FF90AC
:102F8000EF90DF90CF90BF90AF909F908F907F9009
:102F90006F905F904F903F902F9008951F93CF9325
:102FA000DF93162FCAE6D9E0988121E02093DD0354
:102FB0009093DC031092DB031092DA03A981BA81AB
:102FC000ED91FC9111970190F081E02D682FCD01DA
:102FD000199589819A81DC01ED91FC910190F08134
:102FE000E02D612F199589819A81DF91CF911F91F1
:102FF00045CD0F931F93CF93DF93EC018A01888116
:1030000091E09093DD038093DC031092DB03109238
:10301000DA0389819A8124E0629FB00111246A5FFA
:103020007F4FDC01ED91FC910190F081E02D19952D
:1030300060E070E089819A8153DD60E070E0898111
:103040009A814EDDB80189819A814ADD612F70E055
:1030500089819A8145DD89819A81DF91CF911F9184
:103060000F910CCD1F93CF93DF93EC01162F80911E
:10307000CB0991E09093DD038093DC031092DB0396
:103080001092DA036D2F70E082E596E029DDBE0133
:10309000772782E596E024DD612F82E596E0EAD885
:1030A00082E596E0DF91CF911F91E8CCCF92DF923D
:1030B000EF92FF92CF93DF93EC016A017B01E889E5
:1030C000F98982E080834115514E61057105B1F0A7
:1030D00060E079E08DE390E0A70196010E949F31C6
:1030E000DA01C9010197A109B109B695A79597958C
:1030F00087959C01211580E13807A8F0E889F989B6
:10310000108260E874E88EE190E0A70196010E94C9
:103110009F31DA01C9010197A109B109B695A795B7
:10312000979587959C01EC85FD853083EE85FF851D
:103130002083188EEC89FD8986E08083EA89FB89EB
:10314000808180618083EA89FB89808188608083B7
:10315000EA89FB89808180688083EA89FB89808194
:103160008F7D8083DF91CF91FF90EF90DF90CF90A4
:103170000895E6E7F9E090E02FEF3FEF981791F020
:103180004191242748E0B90161707727369527954A
:10319000672B21F051E0252750EA3527415099F758
:1031A0009F5FECCF922F832F0895CF93C091B609E4
:1031B0008C2FDFDFEC2FF0E0E359F64F9187E1E051
:1031C000EC0FF0E0E359F64F8187CE5FC093B6096C
:1031D0009091730980917209923038F1823051F0E8
:1031E000833071F0813091F49091C8009064909395
:1031F000C80011C09091D00090649093D0000BC093
:103200009091300190649093300105C09091C0007E
:1032100090649093C0009091050190649093050193
:10322000909105019062909305014091B609843018
:1032300028F480916D0990916E0904C080916F0906
:103240009091700950E0DC01ED91FC910280F381D6
:10325000E02D66E779E019959091730980917209E4
:10326000923018F1823049F0833061F0813079F486
:103270009091C80096FFFCCF0EC09091D00096FFB1
:10328000FCCF09C09091300196FFFCCF04C0909113
:10329000C00096FFFCCF909105019F7B90930501A4
:1032A000909105019F7D90930501843068F5809190
:1032B0006D0990916E09DC01ED91FC910284F3851A
:1032C000E02D199597FFF3CF1092B609F5D920910B
:1032D000C0093091C109DC01CB01820F931FA11DF0
:1032E000B11D8093C6099093C709A093C809B093F4
:1032F000C9098091BC099091BD0901969093BD09BF
:103300008093BC09CF91089580916F0990917009C5
:10331000DC01ED91FC910284F385E02D199597FF76
:10332000F3CFD2CF1F93CF93DF93EC01162F888179
:103330008F3F31F48091CD099091CE0970DC02C0AD
:1033400060E018D960E08B8115D960E8CE01D9DB47
:10335000612FCE01D6DB88818F3F09F45FDC61E00D
:103360008B81DF91CF911F9105C9EF92FF920F934F
:103370001F93CF93DF93EC017A01122F062F0F7763
:1033800088818F3F31F48091CD099091CE0947DC3F
:1033900002C060E0EFD860E08B81ECD8602FCE01F6
:1033A000B0DB112341F06FEFCE01ABDBF70181936E
:1033B0007F011150F6CF88818F3F09F42FDC61E047
:1033C0008B81DF91CF911F910F91FF90EF90D2C829
:1033D0008F929F92AF92BF92CF92DF92EF92FF9225
:1033E0000F931F93CF93DF93EC016A017B0120E0E1
:1033F00030E0A901C701B6010E94263218160CF070
:103400004FC01AAA1BAA1CAA1DAACEAADFAAE8AE00
:10341000F9AE8AAD882309F443C00E8D1F8DF801E3
:1034200080809180A280B380A5019401C701B6017C
:103430000E94263287FF06C0F801C082D182E28254
:10344000F3820EC020E030E0A901C501B4010E9462
:10345000263287FF05C0F801108211821282138282
:103460008EA09FA0A8A4B9A4CEA8DFA8E8ACF9AC10
:10347000A7019601C501B4010E94C833181664F073
:10348000CAA8DBA8ECA8FDA8A7019601C501B40154
:103490000E94263287FF04C0CEA2DFA2E8A6F9A6CA
:1034A000DF91CF911F910F91FF90EF90DF90CF9020
:1034B000BF90AF909F908F9008954F925F926F92C0
:1034C0007F928F929F92AF92BF92CF92DF92EF92B4
:1034D000FF92CF93DF93CDB7DEB72C970FB6F8945A
:1034E000DEBF0FBECDBFE8D8C090C609D090C709D7
:1034F000E090C809F090C9092091F2023091F302DE
:10350000C616D706E806F90640F4C9018061909313
:10351000F3028093F20286DB06C0C9018F7E90938E
:10352000F3028093F20267E084E299E049DB8111C3
:10353000ACC067E082EA98E043DB8111A6C067E097
:1035400080E298E03DDB8111A0C067E08EE997E062
:1035500037DB81119AC067E08CE197E031DB8111A4
:1035600094C067E08AE996E02BDB81118EC010924F
:10357000D0091092CF0960E089E00E94BA128091D0
:10358000F2029091F3029B7F9093F3028093F202F8
:103590008091390990913A09A0913B09B0913C0979
:1035A00089879A87AB87BC8720E030E042E054E40B
:1035B000BC01CD010E94C83318160CF47CC04090A9
:1035C000B7085090B8086090B9087090BA0820E029
:1035D00030E042E054E4C301B2010E94C83318163F
:1035E0000CF469C08090350890903608A090370898
:1035F000B090380820E030E042E054E4C501B40166
:103600000E94C83318160CF456C0C090B307D0906F
:10361000B407E090B507F090B60720E030E042E054
:1036200054E4C701B6010E94C83318160CF443C015
:103630008091310790913207A0913307B091340700
:103640008D839E83AF83B88720E030E042E054E46E
:10365000BC01CD010E94C83318166CF18091AF06F1
:103660009091B006A091B106B091B20689839A8379
:10367000AB83BC8320E030E042E054E4BC01CD01E8
:103680000E94C8331816BCF019C08091CF099091E0
:10369000D00901969093D0098093CF0906970CF436
:1036A00077CF61E089E00E94BA128091F202909196
:1036B000F302946069CF89E090E03EC020E030E002
:1036C000A90169857A858B859C850E94263287FDB4
:1036D00031C020E030E0A901C301B2010E942632CE
:1036E00087FD28C020E030E0A901C501B4010E9497
:1036F000263287FD1FC020E030E0A901C701B601D6
:103700000E94263287FD16C020E030E0A9016D81BD
:103710007E818F8198850E94263287FD0BC020E034
:1037200030E0A90169817A818B819C810E942632D7
:1037300087FF04C08DE090E00E947C312C960FB68C
:10374000F894DEBF0FBECDBFDF91CF91FF90EF9019
:10375000DF90CF90BF90AF909F908F907F906F90B1
:103760005F904F9008958F929F92AF92BF92CF92A9
:10377000DF92EF92FF926091F8027091F90280E07F
:1037800090E00E94C33220E030E040E251E40E9429
:103790002A324B015C016091F4027091F50280E0E5
:1037A00090E00E94C33220E030E048EC52E40E94F6
:1037B0002A329B01AC0160E070E080E89FE30E9448
:1037C000C1316B017C016091F6027091F70280E0DB
:1037D00090E00E94C33220E030E040E251E40E94D9
:1037E0002A329B01AC01C501B4010E94C1319B0189
:1037F000AC01C701B6010E942A3220E030E040E867
:1038000055E40E94CC336B017C01A50194010E9418
:10381000CC339B01AC0160E070E080E895E40E944D
:10382000C1314B015C012091390930913A09409135
:103830003B0950913C09C701B6010E94CC33A50158
:1038400094010E94C231AB01BC0188EE98E0C0DD5A
:103850002091B7083091B8084091B9085091BA0842
:10386000C701B6010E94CC33A50194010E94C23168
:10387000AB01BC0186E698E0ABDD209135083091C4
:1038800036084091370850913808C701B6010E94A8
:10389000CC33A50194010E94C231AB01BC0184EE7E
:1038A00097E096DD2091B3073091B4074091B507BA
:1038B0005091B607C701B6010E94CC33A50194010F
:1038C0000E94C231AB01BC0182E697E081DD20910C
:1038D0003107309132074091330750913407C701C7
:1038E000B6010E94CC33A50194010E94C231AB0104
:1038F000BC0180EE96E06CDD2091AF063091B00601
:103900004091B1065091B206C701B6010E94CC3376
:10391000A50194010E94C231AB01BC018EE596E085
:10392000FF90EF90DF90CF90BF90AF909F908F90DF
:103930004FCDCF92DF92EF92FF920F931F93CF93D1
:10394000DF936C017A018B01C0E0D0E0CE15DF057A
:1039500081F0D8016D918D01D601ED91FC9101901E
:10396000F081E02DC6011995892B11F02196EECF3B
:103970007E01C701DF91CF911F910F91FF90EF90D2
:10398000DF90CF900895CF92DF92EF92FF92CF9386
:10399000DF9326E636E646E65FE30E94CC339B01E2
:1039A000AC0160E27CEB8EEB95E40E942A3220E0D1
:1039B00030E040E85FE30E94C13120E030E040E0C9
:1039C0005FE30E94C2310E9400336B017C01CAE6B2
:1039D000D9E0888191E09093DD038093DC0310921D
:1039E000DB031092DA0389819A81DC01ED91FC916D
:1039F0000190F081E02D60E0199589819A813ED88F
:103A000061E0888143D9109291038093900389816A
:103A10009A81DC01ED91FC910284F385E02D1995EA
:103A2000C82F682F6F76606180E0B8DAC701B601F1
:103A30000E9497328EEFB2DA6C2F80E0AFDA65E049
:103A400070E080E090E00E9424136C2F606A80E0B8
:103A5000DF91CF91FF90EF90DF90CF909FCAFC0154
:103A6000A089B1898C91A689B78982FD0FC09C91EC
:103A7000818D8F5F8F73228D821749F0218DDF0139
:103A8000A20FB11D5D969C93818F08958C9108952E
:103A9000CF93DF9300D000D0CDB7DEB7789484B554
:103AA000826084BD84B5816084BD85B5826085BD3A
:103AB00085B5816085BD80916E00816080936E00C8
:103AC00010928100809181008260809381008091BA
:103AD000810081608093810080918000816080936B
:103AE00080008091B10084608093B1008091B0002B
:103AF00081608093B00080919100826080939100FA
:103B0000809191008160809391008091900081600C
:103B1000809390008091A10082608093A1008091A9
:103B2000A10081608093A1008091A00081608093BA
:103B3000A000809121018260809321018091210168
:103B40008160809321018091200181608093200118
:103B500080917A00846080937A0080917A008260FC
:103B600080937A0080917A00816080937A008091BE
:103B70007A00806880937A001092C10061E086E14B
:103B80000E94E81261E086E10E94BA1240E052EC25
:103B900061E070E085EB95E089DA80916B099091A6
:103BA0006C090E94401560E880E0F8D96AE070E096
:103BB00080E090E00E94241360E070E08AE794E4E3
:103BC000E2DE60E070E088EC94E4DDDE80E5809386
:103BD000CB0982E596E00E94401511E01093DD03C9
:103BE0008CE78093DC031092DB031092DA03609180
:103BF000CB0970E0660F771F82E596E00E943A11CC
:103C000060E082E596E00E94E31463E08CE73ED832
:103C1000109291038093900382E596E00E94F21047
:103C20007C0182E596E00E94F2109A83898382E506
:103C300096E00E94F21029812F7030E0322F222767
:103C4000280F311DFF2444E0EE0CFF1C4A95E1F7DC
:103C500089819A81992754E0959587955A95E1F73E
:103C60008E0D9F1D0A9729F42031354011F41093D1
:103C7000CC0980917209823039F0833041F0813073
:103C800049F488E195E008C08BE794E005C08EED2B
:103C900093E002C085EB95E090936E0980936D09E7
:103CA00040E052EC61E070E080916D0990916E0906
:103CB000FDD980917309823078F08091040180668B
:103CC00080930401809105018F7B80930501809191
:103CD00005018F7D8093050180916D0990916E099A
:103CE000DC01ED91FC910284F385E02D199597FF9D
:103CF000F3CF1092B6091092B7091092BF09109233
:103D0000BE091092BD091092BC091092BB09109215
:103D1000BA0908E612E0E8EEF3E0FA83E983A98045
:103D2000BA80F8E1AF0EB11C6801E980FA80C701E2
:103D30000E942F03D6018D939D936D01B4E0EB0E8D
:103D4000F11CAE14BF0499F7E981FA81E851FC4FE8
:103D5000FA83E983045F1F4FE835FB4101F78AE4EA
:103D600092E09A838983E12CF12CC7010E942F03F2
:103D7000A981BA818D939D93BA83A983B4E0EB0E98
:103D8000F11CE4E1EE16F10481F724E532E03A8318
:103D90002983C7010E942F03A981BA818D939D9326
:103DA000BA83A983B4E0EB0EF11CE8E2EE16F1044D
:103DB00081F72EE532E03A832983C7010E942F0361
:103DC000A981BA818D939D93BA83A983B4E0EB0E48
:103DD000F11CECE3EE16F10481F78CE390E00E9415
:103DE0002F039093BD028093BC0280E490E00E9478
:103DF0002F039093BF028093BE0284E490E00E9460
:103E00002F039093C1028093C00288E490E00E9447
:103E10002F039093C3028093C2028CE490E00E942F
:103E20002F039093C5028093C40280E590E00E9426
:103E30002F039093F5028093F40284E590E00E94B2
:103E40002F039093F7028093F60288E590E00E949A
:103E50002F039093F9028093F8020AEF12E02CE509
:103E600030E03A83298389819A810E942F03D80107
:103E70008D939D938D01E981FA813496FA83E983CC
:103E8000E037F10581F704E013E089819A810E940F
:103E90002F03D8018D939D938D01E981FA8134968A
:103EA000FA83E983E438F10581F710922C09109226
:103EB0002B0960916E0270916F0280E090E00E9489
:103EC000C33220E030E44CE156E40E942A32609391
:103ED000590970935A0980935B0990935C0960912A
:103EE00070027091710280E090E00E94C33220E085
:103EF00030E048EC52E40E942A3260935D097093EE
:103F00005E0980935F0990936009609172027091DD
:103F1000730280E090E00E94C33260936109709365
:103F2000620980936309909364096091F80270912B
:103F3000F90280E090E00E94C33220E030E040E2ED
:103F400051E40E942A326B017C0160933509709321
:103F50003609809337099093380981E090E0909377
:103F6000AA088093A90860917A0270917B0280E090
:103F700090E00E94C33220E030E44CE156E40E941D
:103F80002A326093D7087093D8088093D908909309
:103F9000DA0860917C0270917D0280E090E00E94DE
:103FA000C33220E030E048EC52E40E942A326093B1
:103FB000DB087093DC088093DD089093DE08609145
:103FC0007E0270917F0280E090E00E94C332609395
:103FD000DF087093E0088093E1089093E208C092B4
:103FE000B308D092B408E092B508F092B60882E027
:103FF00090E0909328088093270860918602709142
:10400000870280E090E00E94C33220E030E44CE17F
:1040100056E40E942A3260935508709356088093A4
:10402000570890935808609188027091890280E047
:1040300090E00E94C33220E030E048EC52E40E945D
:104040002A326093590870935A0880935B089093C2
:104050005C0860918A0270918B0280E090E00E947F
:10406000C33260935D0870935E0880935F089093FD
:104070006008C0923108D0923208E0923308F09282
:10408000340883E090E09093A6078093A5076091A1
:1040900092027091930280E090E00E94C33220E08F
:1040A00030E44CE156E40E942A326093D3077093C7
:1040B000D4078093D5079093D607609194027091AE
:1040C000950280E090E00E94C33220E030E048ECAE
:1040D00052E40E942A326093D7077093D8078093E6
:1040E000D9079093DA07609196027091970280E069
:1040F00090E00E94C3326093DB077093DC078093EB
:10410000DD079093DE07C092AF07D092B007E09230
:10411000B107F092B20784E090E090932407809377
:10412000230760919E0270919F0280E090E00E94C0
:10413000C33220E030E44CE156E40E942A3260931E
:1041400051077093520780935307909354076091DF
:10415000A0027091A10280E090E00E94C33220E0B2
:1041600030E048EC52E40E942A3260935507709385
:10417000560780935707909358076091A202709159
:10418000A30280E090E00E94C332609359077093CD
:104190005A0780935B0790935C07C0922D07D092DB
:1041A0002E07E0922F07F092300785E090E0909381
:1041B000A2068093A1066091AA027091AB0280E0F2
:1041C00090E00E94C33220E030E44CE156E40E94CB
:1041D0002A326093CF067093D0068093D1069093D5
:1041E000D2066091AC027091AD0280E090E00E9436
:1041F000C33220E030E048EC52E40E942A3260935F
:10420000D3067093D4068093D5069093D60660911A
:10421000AE027091AF0280E090E00E94C3326093E2
:10422000D7067093D8068093D9069093DA06C09289
:10423000AB06D092AC06E092AD06F092AE060E94BC
:1042400098053BD98091CC029091CD02019731F431
:104250008091CA029091CB02019759F00E941216E8
:104260008091CA029091CB02019709F0E9C061E008
:10427000E8C08091CE029091CF02892B91F00E94EC
:104280002403609312037093130380931403909399
:1042900015038091CC029091CD02019709F089C15C
:1042A00040C00E9424036093160370931703809309
:1042B0001803909319038091CC029091CD0201973D
:1042C00009F077C10E94240320911603309117034F
:1042D00040911803509119030E94C1316B017C0178
:1042E0006091C2027091C30280E090E00E94C332EC
:1042F00020E030E040E251E40E942A329B01AC0110
:10430000C701B6010E94C83387FDA1C00E942403E3
:104310006093160370931703809318039093190307
:1043200048C160915E0270915F0280E090E00E945F
:10433000C33220E030E040E251E40E942A326B01B7
:104340007C01609160027091610280E090E00E94C7
:10435000C33220E030E040E251E40E942A329B0167
:10436000AC01C701B6010E94C2316B017C016091B2
:1043700062027091630280E090E00E94C33220E00C
:1043800030E040E251E40E942A329B01AC01C701B7
:10439000B6010E94C2316B017C0160916402709190
:1043A000650280E090E00E94C33220E030E040E20D
:1043B00051E40E942A329B01AC01C701B6010E9460
:1043C000C2316B017C01609166027091670280E0EE
:1043D00090E00E94C33220E030E040E251E40E94CD
:1043E0002A329B01AC01C701B6010E94C2310E9472
:1043F00092324B015C010E94240320911203309100
:10440000130340911403509115030E94C1316B01B5
:104410007C01C501B4010E94C5329B01AC01C701FA
:10442000B6010E94C83387FD0CC10E94240360932B
:104430001203709313038093140390931503B9C070
:1044400060E086E00E94BA120E940A10F8CE0E9434
:10445000980533D88091D0029091D1026091BC022E
:104460007091BD02019749F180E090E00E94C33253
:1044700020E030E040E251E40E942A32AB01BC016E
:1044800088EE98E00E9458056091BC027091BD02D0
:1044900080E090E00E94C33220E030E040E251E44E
:1044A0000E942A32AB01BC0182E697E00E945805C7
:1044B0006091C0027091C1022CC080E090E00E9427
:1044C000C33220E030E040E251E40E942A32AB01E6
:1044D000BC0188EE98E00E9458056091BC02709182
:1044E000BD0280E090E00E94C33220E030E040E274
:1044F00051E40E942A32AB01BC0182E697E00E949F
:1045000058056091BC027091BD027093C102609326
:10451000C00280E090E00E94C33220E030E040E240
:1045200051E40E942A32AB01BC0184EE97E00E9464
:1045300058056091C0027091C10280E090E00E9435
:10454000C33220E030E040E251E40E942A32AB0165
:10455000BC018EE596E00E9458056091BE02709104
:10456000BF0280E090E00E94C33220E030E040E2F1
:1045700051E40E942A32AB01BC0186E698E00E9419
:1045800058056091BE027091BF0280E090E00E94E9
:10459000C33220E030E040E251E40E942A32AB0115
:1045A000BC0180EE96E00E945805DDD80E942E16D0
:1045B00082CE0E9412160E94240360930E03709311
:1045C0000F0380931003909311030E942403209102
:1045D0000E0330910F0340911003509111030E947C
:1045E000C1316B017C016091C4027091C50280E011
:1045F00090E00E94C33220E030E040E251E40E94AB
:104600002A329B01AC01C701B6010E94C83387FD65
:104610000FC00E94240360930E0370930F038093D6
:1046200010039093110360E087E00E94BA1218CE45
:104630000E9498050E945D1A61E087E00E94BA120C
:10464000C4CF0E9498050E945D1A0E942403209105
:1046500012033091130340911403509115030E94EB
:10466000C1316B017C0160915E0270915F0280E05C
:1046700090E00E94C33220E030E040E251E40E942A
:104680002A324B015C0120E030E0A901C701B601EC
:104690000E94C83318160CF0AAC1A5019401C701E5
:1046A000B6010E94263218160CF4A1C180910403B1
:1046B0009091050360915402709155020197F9F4AD
:1046C00080E090E00E94C33220E030E040E251E41C
:1046D0000E942A3220E030E040EA51E40E94C131D9
:1046E000A50194010E942A32A70196010E94CC33B1
:1046F00020E030E040EA51E40E94C2310AC080E08C
:1047000090E00E94C33220E030E040E251E40E9499
:104710002A32AB01BC0188EE98E00E9458058091D6
:104720000403909105036091540270915502019722
:1047300089F580E090E00E94C33220E030E040E262
:1047400051E40E942A3220E030E040EA51E40E9425
:10475000C1314B015C0160915E0270915F0280E0AB
:1047600090E00E94C33220E030E040E251E40E9439
:104770002A329B01AC01C501B4010E942A32A70173
:1047800096010E94CC3320E030E040EA51E40E94E0
:10479000C2310AC080E090E00E94C33220E030E0E5
:1047A00040E251E40E942A32AB01BC0182E697E06C
:1047B0000E94580580910403909105036091540272
:1047C00070915502019789F580E090E00E94C33214
:1047D00020E030E040E251E40E942A3220E030E064
:1047E00040EA51E40E94C1314B015C0160915E02DC
:1047F00070915F0280E090E00E94C33220E030E0E0
:1048000040E251E40E942A329B01AC01C501B4018F
:104810000E942A32A70196010E94CC3320E030E0AA
:1048200040EA51E40E94C2310AC080E090E00E9458
:10483000C33220E030E040E251E40E942A32AB0172
:10484000BC0184EE97E00E9458058091040390918A
:1048500005036091540270915502019789F580E03B
:1048600090E00E94C33220E030E040E251E40E9438
:104870002A3220E030E040EA51E40E94C1314B018D
:104880005C0160915E0270915F0280E090E00E94A6
:10489000C33220E030E040E251E40E942A329B0122
:1048A000AC01C501B4010E942A32A70196010E9401
:1048B000CC3320E030E040EA51E40E94C2310AC02B
:1048C00080E090E00E94C33220E030E040E251E41A
:1048D0000E942A32AB01BC018EE596E00E94580589
:1048E000809104039091050360914A0270914B02FC
:1048F000019789F580E090E00E94C33220E030E02B
:1049000040E251E40E942A3220E030E040EA51E4E3
:104910000E94C1314B015C0160915E0270915F02A7
:1049200080E090E00E94C33220E030E040E251E4B9
:104930000E942A329B01AC01C501B4010E942A32B7
:10494000A70196010E94CC3320E030E040EA51E418
:104950000E94C2310AC080E090E00E94C33220E091
:1049600030E040E251E40E942A32AB01BC0186E60D
:1049700098E00E945805809104039091050360918E
:104980004A0270914B02019711F00C94A52E80E021
:1049900090E00E94C33220E030E040E251E40E9407
:1049A0002A3220E030E040EA51E40E94C1314B015C
:1049B0005C0160915E0270915F0280E090E00E9475
:1049C000C33220E030E040E251E40E942A329B01F1
:1049D000AC01C501B4010E942A32A70196010E94D0
:1049E000CC3320E030E040EA51E40C94A02E6091FA
:1049F00060027091610280E090E00E94C33220E08A
:104A000030E040E251E40E942A3269837A838B834A
:104A10009C839B01AC01C501B4010E94C2312B01F2
:104A20003C01A5019401C701B6010E94C8331816C4
:104A30000CF05FC2A3019201C701B6010E942632A9
:104A400018160CF456C2809106039091070320912A
:104A50005602309157023E832D830197F1F5609104
:104A600054027091550280E090E00E94C33220E031
:104A700030E040E251E40E942A322B013C01AD813A
:104A8000BE81BD0180E090E00E94C33220E030E0B2
:104A900040E251E40E942A32A30192010E94C131F6
:104AA00029813A814B815C810E942A3269837A8311
:104AB0008B839C83A5019401C701B6010E94C1317B
:104AC0009B01AC0169817A818B819C810E94CC33EE
:104AD000A30192010E94C2310DC0ED81FE81BF0190
:104AE00080E090E00E94C33220E030E040E251E4F8
:104AF0000E942A32AB01BC0188EE98E00E94580562
:104B0000809106039091070320915602309157023D
:104B10003E832D83019709F050C06091540270913B
:104B2000550280E090E00E94C33220E030E040E295
:104B300051E40E942A3269837A838B839C83AD81FE
:104B4000BE81BD0180E090E00E94C33220E030E0F1
:104B500040E251E40E942A3229813A814B815C81F2
:104B60000E94C1312B013C01609160027091610291
:104B700080E090E00E94C33220E030E040E251E467
:104B80000E942A329B01AC01C301B2010E942A3269
:104B90002B013C01A5019401C701B6010E94C1315E
:104BA0009B01AC01C301B2010E94CC3329813A813F
:104BB0004B815C810E94C2310DC0ED81FE81BF013D
:104BC00080E090E00E94C33220E030E040E251E417
:104BD0000E942A32AB01BC0182E697E00E94580590
:104BE000809106039091070320915602309157025D
:104BF0003E832D83019709F050C06091540270915B
:104C0000550280E090E00E94C33220E030E040E2B4
:104C100051E40E942A3269837A838B839C83AD811D
:104C2000BE81BD0180E090E00E94C33220E030E010
:104C300040E251E40E942A3229813A814B815C8111
:104C40000E94C1312B013C016091600270916102B0
:104C500080E090E00E94C33220E030E040E251E486
:104C60000E942A329B01AC01C301B2010E942A3288
:104C70002B013C01A5019401C701B6010E94C1317D
:104C80009B01AC01C301B2010E94CC3329813A815E
:104C90004B815C810E94C2310DC0ED81FE81BF015C
:104CA00080E090E00E94C33220E030E040E251E436
:104CB0000E942A32AB01BC0184EE97E00E945805A5
:104CC000809106039091070320915602309157027C
:104CD0003E832D83019709F050C06091540270917A
:104CE000550280E090E00E94C33220E030E040E2D4
:104CF00051E40E942A3269837A838B839C83AD813D
:104D0000BE81BD0180E090E00E94C33220E030E02F
:104D100040E251E40E942A3229813A814B815C8130
:104D20000E94C1312B013C016091600270916102CF
:104D300080E090E00E94C33220E030E040E251E4A5
:104D40000E942A329B01AC01C301B2010E942A32A7
:104D50002B013C01A5019401C701B6010E94C1319C
:104D60009B01AC01C301B2010E94CC3329813A817D
:104D70004B815C810E94C2310DC0ED81FE81BF017B
:104D800080E090E00E94C33220E030E040E251E455
:104D90000E942A32AB01BC018EE596E00E945805C4
:104DA000809106039091070320914C0230914D02AF
:104DB0003E832D83019709F050C060914A027091A3
:104DC0004B0280E090E00E94C33220E030E040E2FD
:104DD00051E40E942A3269837A838B839C83AD815C
:104DE000BE81BD0180E090E00E94C33220E030E04F
:104DF00040E251E40E942A3229813A814B815C8150
:104E00000E94C1312B013C016091600270916102EE
:104E100080E090E00E94C33220E030E040E251E4C4
:104E20000E942A329B01AC01C301B2010E942A32C6
:104E30002B013C01A5019401C701B6010E94C131BB
:104E40009B01AC01C301B2010E94CC3329813A819C
:104E50004B815C810E94C2310DC0ED81FE81BF019A
:104E600080E090E00E94C33220E030E040E251E474
:104E70000E942A32AB01BC0186E698E00E945805E8
:104E8000809106039091070320914C0230914D02CE
:104E90003E832D83019709F055C760914A027091B6
:104EA0004B0280E090E00E94C33220E030E040E21C
:104EB00051E40E942A3269837A838B839C83AD817B
:104EC000BE81BD0180E090E00E94C33220E030E06E
:104ED00040E251E40E942A3229813A814B815C816F
:104EE0000E94C1312B013C0160916002709161020E
:104EF000C7C4609162027091630280E090E00E94FA
:104F0000C33220E030E040E251E40E942A3269835B
:104F10007A838B839C839B01AC01C301B2010E9405
:104F2000C2314B015C01A3019201C701B6010E948D
:104F3000C83318160CF05EC2A5019401C701B60172
:104F40000E94263218160CF455C2809108039091E5
:104F5000090320915802309159023E832D83019715
:104F6000F1F5609156027091570280E090E00E9446
:104F7000C33220E030E040E251E40E942A324B018B
:104F80005C01AD81BE81BD0180E090E00E94C33232
:104F900020E030E040E251E40E942A32A501940171
:104FA0000E94C13129813A814B815C810E942A3261
:104FB00069837A838B839C83A3019201C701B60125
:104FC0000E94C1319B01AC0169817A818B819C81F6
:104FD0000E94CC33A50194010E94C2310DC0ED8125
:104FE000FE81BF0180E090E00E94C33220E030E00B
:104FF00040E251E40E942A32AB01BC0188EE98E005
:105000000E9458058091080390910903209158024D
:10501000309159023E832D83019709F050C0609171
:1050200056027091570280E090E00E94C33220E067
:1050300030E040E251E40E942A3269837A838B8314
:105040009C83AD81BE81BD0180E090E00E94C332AF
:1050500020E030E040E251E40E942A3229813A8186
:105060004B815C810E94C1314B015C016091620205
:105070007091630280E090E00E94C33220E030E053
:1050800040E251E40E942A329B01AC01C501B40107
:105090000E942A324B015C01A3019201C701B601B3
:1050A0000E94C1319B01AC01C501B4010E94CC3307
:1050B00029813A814B815C810E94C2310DC0ED8112
:1050C000FE81BF0180E090E00E94C33220E030E02A
:1050D00040E251E40E942A32AB01BC0182E697E033
:1050E0000E9458058091080390910903209158026D
:1050F000309159023E832D83019709F050C0609191
:1051000056027091570280E090E00E94C33220E086
:1051100030E040E251E40E942A3269837A838B8333
:105120009C83AD81BE81BD0180E090E00E94C332CE
:1051300020E030E040E251E40E942A3229813A81A5
:105140004B815C810E94C1314B015C016091620224
:105150007091630280E090E00E94C33220E030E072
:1051600040E251E40E942A329B01AC01C501B40126
:105170000E942A324B015C01A3019201C701B601D2
:105180000E94C1319B01AC01C501B4010E94CC3326
:1051900029813A814B815C810E94C2310DC0ED8131
:1051A000FE81BF0180E090E00E94C33220E030E049
:1051B00040E251E40E942A32AB01BC0184EE97E048
:1051C0000E9458058091080390910903209158028C
:1051D000309159023E832D83019709F050C06091B0
:1051E00056027091570280E090E00E94C33220E0A6
:1051F00030E040E251E40E942A3269837A838B8353
:105200009C83AD81BE81BD0180E090E00E94C332ED
:1052100020E030E040E251E40E942A3229813A81C4
:105220004B815C810E94C1314B015C016091620243
:105230007091630280E090E00E94C33220E030E091
:1052400040E251E40E942A329B01AC01C501B40145
:105250000E942A324B015C01A3019201C701B601F1
:105260000E94C1319B01AC01C501B4010E94CC3345
:1052700029813A814B815C810E94C2310DC0ED8150
:10528000FE81BF0180E090E00E94C33220E030E068
:1052900040E251E40E942A32AB01BC018EE596E067
:1052A0000E945805809108039091090320914E02B5
:1052B00030914F023E832D83019709F050C06091D9
:1052C0004C0270914D0280E090E00E94C33220E0D9
:1052D00030E040E251E40E942A3269837A838B8372
:1052E0009C83AD81BE81BD0180E090E00E94C3320D
:1052F00020E030E040E251E40E942A3229813A81E4
:105300004B815C810E94C1314B015C016091620262
:105310007091630280E090E00E94C33220E030E0B0
:1053200040E251E40E942A329B01AC01C501B40164
:105330000E942A324B015C01A3019201C701B60110
:105340000E94C1319B01AC01C501B4010E94CC3364
:1053500029813A814B815C810E94C2310DC0ED816F
:10536000FE81BF0180E090E00E94C33220E030E087
:1053700040E251E40E942A32AB01BC0186E698E08B
:105380000E945805809108039091090320914E02D4
:1053900030914F023E832D83019709F0D3C4609171
:1053A0004C0270914D0280E090E00E94C33220E0F8
:1053B00030E040E251E40E942A3269837A838B8391
:1053C0009C83AD81BE81BD0180E090E00E94C3322C
:1053D00020E030E040E251E40E942A3229813A8103
:1053E0004B815C81CED74B015C0160916202709170
:1053F000630289C4609164027091650280E090E06C
:105400000E94C33220E030E040E251E40E942A32A0
:1054100069837A838B839C839B01AC01C501B401B2
:10542000B1D72B013C01A5019401C701B6010E942F
:10543000C83318160CF03DC2A3019201C701B60192
:105440000E94263218160CF434C280910A039091FF
:105450000B0320915A0230915B023E832D8301970A
:10546000C1F5609158027091590280E090E00E946D
:10547000C33220E030E040E251E4ECD72B013C01A4
:10548000AD81BE81BD0180E090E00E94C33220E08A
:1054900030E040E251E4DED7A301920172D72981C6
:1054A0003A814B815C81D6D769837A838B839C83D5
:1054B000A5019401C701B60164D79B01AC016981C4
:1054C0007A818B819C810E94CC33A30192015AD7AF
:1054D0000CC0ED81FE81BF0180E090E00E94C332EC
:1054E00020E030E040E251E4B5D7AB01BC0188EEEA
:1054F00098E00E94580580910A0390910B03209137
:105500005A0230915B023E832D83019709F049C016
:10551000609158027091590280E090E00E94C3327D
:1055200020E030E040E251E495D769837A838B83B1
:105530009C83AD81BE81BD0180E090E00E94C332BA
:1055400020E030E040E251E485D729813A814B8167
:105550005C8117D72B013C01609164027091650258
:1055600080E090E00E94C33220E030E040E251E46D
:1055700071D79B01AC01C301B2016CD72B013C0177
:10558000A5019401C701B601FCD69B01AC01C30182
:10559000B2010E94CC3329813A814B815C81F2D6E1
:1055A0000BC0ED81FE81BF0180E090E0ECD720E0F0
:1055B00030E040E251E44ED7AB01BC0182E697E017
:1055C0000E94580580910A0390910B0320915A0282
:1055D00030915B023E832D83019709F046C06091B4
:1055E00058027091590280E090E0CDD720E030E081
:1055F00040E251E42FD769837A838B839C83AD810A
:10560000BE81BD0180E090E0BED720E030E040E206
:1056100051E420D729813A814B815C81B2D62B019C
:105620003C01609164027091650280E090E0ABD72C
:1056300020E030E040E251E40DD79B01AC01C30112
:10564000B20108D72B013C01A5019401C701B601A5
:1056500098D69B01AC01C301B2010E94CC332981D1
:105660003A814B815C818ED60BC0ED81FE81BF01FA
:1056700080E090E088D720E030E040E251E4EAD6D4
:10568000AB01BC0184EE97E00E94580580910A03AB
:1056900090910B0320915A0230915B023E832D833F
:1056A000019709F046C0609158027091590280E05C
:1056B00090E069D720E030E040E251E4CBD6698346
:1056C0007A838B839C83AD81BE81BD0180E090E0B5
:1056D0005AD720E030E040E251E4BCD629813A813B
:1056E0004B815C814ED62B013C016091640270912C
:1056F000650280E090E047D720E030E040E251E4EE
:10570000A9D69B01AC01C301B201A4D62B013C0177
:10571000A5019401C701B60134D69B01AC01C301B8
:10572000B2010E94CC3329813A814B815C812AD617
:105730000BC0ED81FE81BF0180E090E024D720E026
:1057400030E040E251E486D6AB01BC018EE596E044
:105750000E94580580910A0390910B0320915002FA
:10576000309151023E832D83019709F045C060912D
:105770004E0270914F0280E090E005D720E030E0CB
:1057800040E251E467D669837A838B839C83AD8141
:10579000BE81BD0180E090E0F6D620E030E040E23E
:1057A00051E458D629813A814B815C81EAD52B019D
:1057B0003C01609164027091650280E090E0E3D664
:1057C00020E030E040E251E445D69B01AC01C3014A
:1057D000B20140D62B013C01A5019401C701B601DD
:1057E000D0D59B01AC01C301B201D6D729813A8142
:1057F0004B815C81C7D50BC0ED81FE81BF0180E08C
:1058000090E0C1D620E030E040E251E423D6AB0185
:10581000BC0186E698E00E94580580910A039091A9
:105820000B0320915002309151023E832D8301974A
:1058300009F088C260914E0270914F0280E090E0C2
:10584000A2D620E030E040E251E404D669837A83B6
:105850008B839C83AD81BE81BD0180E090E093D6B7
:1058600020E030E040E251E4F5D529813A814B81D6
:105870005C8187D52B013C016091640270916502C7
:1058800080E090E080D620E030E040E251E4E2D5D4
:105890009B01AC01C301B201DDD52B013C01A50187
:1058A0009401C701B6016DD59B01AC01C301B201E2
:1058B00042C2A3019201C701B6016AD718160CF0C3
:1058C00052C280910C0390910D0320915C023091A3
:1058D0005D023E832D83019709F045C060915A0215
:1058E00070915B0280E090E04ED620E030E040E234
:1058F00051E4B0D569837A838B839C83AD81BE816B
:10590000BD0180E090E03FD620E030E040E251E48D
:10591000A1D529813A814B815C8133D54B015C0152
:10592000609166027091670280E090E02CD620E0E2
:1059300030E040E251E48ED59B01AC01C501B401D9
:1059400089D54B015C01A3019201C701B60119D5AC
:105950009B01AC01C501B4011FD729813A814B815C
:105960005C8110D50BC0ED81FE81BF0180E090E02D
:105970000AD620E030E040E251E46CD5AB01BC0136
:1059800088EE98E00E94580580910C0390910D03D9
:1059900020915C0230915D023E832D83019709F0D6
:1059A00045C060915A0270915B0280E090E0EBD5B7
:1059B00020E030E040E251E44DD569837A838B8367
:1059C0009C83AD81BE81BD0180E090E0DCD520E00C
:1059D00030E040E251E43ED529813A814B815C813F
:1059E000D0D44B015C01609166027091670280E047
:1059F00090E0C9D520E030E040E251E42BD59B0196
:105A0000AC01C501B40126D54B015C01A301920193
:105A1000C701B601B6D49B01AC01C501B401BCD627
:105A200029813A814B815C81ADD40BC0ED81FE812F
:105A3000BF0180E090E0A7D520E030E040E251E4F3
:105A400009D5AB01BC0182E697E00E945805809120
:105A50000C0390910D0320915C0230915D023E8316
:105A60002D83019709F045C060915A0270915B0245
:105A700080E090E088D520E030E040E251E4EAD4D4
:105A800069837A838B839C83AD81BE81BD0180E075
:105A900090E079D520E030E040E251E4DBD4298188
:105AA0003A814B815C816DD44B015C01609166024F
:105AB0007091670280E090E066D520E030E040E23F
:105AC00051E4C8D49B01AC01C501B401C3D44B015E
:105AD0005C01A3019201C701B60153D49B01AC0143
