:1000000034C1000063C1000061C100005FC1000095
:100010005DC100005BC1000059C1000057C1000074
:1000200055C100000C9492150C9492150C949215E5
:100030004DC100004BC1000049C1000047C1000094
:1000400045C1000043C1000041C100003FC10000A4
:100050003DC100003BC1000039C100000C94831376
:1000600035C100000C94AB120C9482122FC1000019
:100070002DC100002BC1000029C1000027C10000D4
:1000800025C1000023C1000021C100001FC10000E4
:100090000C9458120C942F1219C100000C94CD131B
:1000A00015C1000013C1000011C100000FC1000004
:1000B0000DC100000BC1000009C1000007C1000014
:1000C00005C1000003C1000001C100000C9405122D
:1000D0000C94DC11FBC000000C94B2110C9489113B
:1000E000F5C000009E0D9E0DBF0DBF0DC306B80DDF
:1000F000CF0DCF0DCF0DCF0DCF0DCF0DCF0DCF0D20
:100100009E0DBF0DE306E306320E320E670EA40EFF
:1001100019071907190719071907190719071907DF
:10012000B30E040F69106C105B105F106510A31004
:10013000701074107A107E10821088108C1090103D
:10014000A31096109A109E10000020002300260095
:1001500029002C002F0032000001000003010601DD
:10016000090100002200250028002B002E0031008C
:10017000340002010000050108010B0100000A0B18
:1001800002090C0D0E080703040100000000000026
:10019000000000000000000000000000000000005F
:1001A000000000000000000012111000000000001C
:1001B000000000000000000000000000000000003F
:1001C000000000002100240027002A002D0030003C
:1001D000330001010000040107010A01010210209F
:1001E000200808102040102040800201020108046D
:1001F0000201010204081020408080402010080401
:100200000201800402018040201008040201080459
:10021000020101020408102040800102040810209D
:1002200040800505050507050808080802020202C6
:100230000A0A080804040404010101010101010182
:100240000303030303030303040707070C0C0C0C4D
:100250000C0C0C0C02020202060606060606060636
:100260000B0B0B0B0B0B0B0B9A3011241FBECFEF9C
:10027000D1E2DEBFCDBF00E00CBF12E0A0E0B2E0F3
:10028000E4E9F8E600E00BBF02C007900D92AA3443
:10029000B107D9F729E0AAE4B2E001C01D92A13D5F
:1002A000B207E1F711E0C5E3D1E000E006C0219715
:1002B0000109802FFE010E943C34C433D10780E045
:1002C0000807A9F70E94501D0C94483499CE4F920C
:1002D0005F926F927F928F929F92AF92BF92CF92D6
:1002E000DF92EF92FF920F931F93CF93DF9300D093
:1002F00000D0CDB7DEB79E838D832A013B01480134
:100300005901FC01EB59FF4F408351836283738392
:10031000349600831183228333833496C082D18242
:10032000E282F38220E030E0A901C301B2010E9421
:100330002F3287FD89C020E030E0A901C501B4015A
:100340000E942F3287FD80C020E030E0A901C70164
:10035000B6010E942F3287FD77C081E0ED81FE81DA
:10036000228D338D2130310509F080E0ED81FE8151
:1003700083AF408251826282738284829582A68298
:10038000B782C086D186E286F38666A577A580A966
:1003900091A90E94CC3220E030E04AE754E40E9468
:1003A000333269837A838B839C83ED81FE8144861B
:1003B0005586668677869B01AC01C501B4010E9413
:1003C000D5334B015C01ED81FE81608B718B828B9B
:1003D000938B29813A814B815C81C701B6010E94D0
:1003E00033326B017C01ED81FE81648B758B868BD2
:1003F000978B808D918D019739F5A301920160E073
:1004000070E0CB010E94CA31ED81FE81648775875F
:1004100086879787A501940160E070E0CB010E9478
:10042000CA31ED81FE81608B718B828B938BA7012A
:10043000960160E070E0CB010E94CA31ED81FE813F
:10044000648B758B868B978B26960FB6F894DEBFE0
:100450000FBECDBFDF91CF911F910F91FF90EF9015
:10046000DF90CF90BF90AF909F908F907F906F90D4
:100470005F904F9008952F923F924F925F926F92AC
:100480007F928F929F92AF92BF92CF92DF92EF9224
:10049000FF920F931F93CF93DF9300D01F92CDB79E
:1004A000DEB71C01FC01E358FF4F808191012F5AF8
:1004B0003F4F3C832B83882309F463C00E9477134A
:1004C0006B017C01EB81FC8180809180A280B380F4
:1004D000F101EB5AFF4F2DEC3CEC4CE45DE3608105
:1004E0007181828193810E94D5332B013C0181016E
:1004F000075A1F4F20E030E040EB51E4C501B40142
:100500000E94CA31F80120813181428153810E94C9
:10051000D5339B01AC01C301B2010E94CA31F10184
:10052000E35AFF4F20813181428153810E9433324F
:100530002B013C01F1E62F0E311CF10180819181EC
:10054000B601681B790B072E000C880B990B0E94D3
:10055000CE329B01AC01C301B2010E94D533A5018B
:1005600094010E94CB31EB81FC8160837183828393
:1005700093830E947713F101608371838283938355
:1005800060C08101045C1F4FC8010E940B1660E02F
:10059000C8010E94FB15682F6068C8010E949B1962
:1005A00062E070E080E090E00E943F1360E0C801EC
:1005B0000E94FB15682F6062C8010E949B1965E0CC
:1005C00070E080E090E00E943F1319821A8222E0DE
:1005D000AE014F5F5F4F61E0C8010E94BE196981A3
:1005E0007A817627672776277695679580E090E071
:1005F0000E94CC3220E030E040E058E30E94D53346
:10060000F101E758FF4F20813181428153810E94DF
:10061000D533F101EF58FF4F208131814281538161
:100620000E94D533F101EB58FF4F20813181428187
:1006300053810E94CB31EB81FC8160837183828383
:100640009383EB81FC8160817181828193810F9022
:100650000F900F900F90DF91CF911F910F91FF900E
:10066000EF90DF90CF90BF90AF909F908F907F9052
:100670006F905F904F903F902F9008950E94771356
:100680000E94CC3220E030E04AE754E40C9433324C
:1006900008951F93CF93DF93EC010E949116182FBA
:1006A000CE0101960E94911690E0982F8827810F25
:1006B000911DDF91CF911F9108950F931F93CF93B9
:1006C000DF938C01EB01CB01E4DF8017910759F038
:1006D000602FCE010E943B18612FCE0101960E942F
:1006E0003B1881E001C080E0DF91CF911F910F9115
:1006F0000895FC0112AEEB5AFF4F10821182128254
:100700001382B8962081211108C0FA9740E050E08A
:100710006081805C9F4F0C94021808952F923F9245
:100720004F925F926F927F928F929F92AF92BF9201
:10073000CF92DF92EF92FF920F931F93CF93DF93AD
:10074000CDB7DEB72F970FB6F894DEBF0FBECDBF83
:100750009F878E87DC01DA968C91DA9781113DC0F4
:100760005E96ED91FC915F97C080D180E280F3802E
:10077000FD01C6A2D7A2E0A6F1A65C96ED91FC9180
:100780005D9780819181A281B381EE85FF8582A7EB
:1007900093A7A4A7B5A786A897A8A0ACB1ACA501BC
:1007A0009401C701B6010E94D133181674F0EE858A
:1007B000FF8582A893A8A4A8B5A8A5019401C701A4
:1007C000B6010E942F3287FF08C0AE85BF8596967E
:1007D0008D929D92AD92BC92999781E0EE85FF85B6
:1007E00082AFCF0148DEAE85BF85DA968C91882333
:1007F00009F42AC10E9477136D837E838F839887C3
:10080000EE85FF8582A193A1A4A1B5A14D815E8152
:100810006F817885481B590B6A0B7B0B86A597A5C2
:10082000A0A9B1A9481759076A077B0708F40CC1AA
:10083000048CF58DE02D80819181A281B381898323
:100840009A83AB83BC83AE85BF859096ED91FC9176
:10085000919729813A814B815C816081718182818C
:1008600093810E94CA314B015C01EE85FF8522A570
:1008700033A544A555A569817A818B819C810E940D
:10088000CA316B017C01AE85BF8550962D913D919B
:100890004D915C915397C501B4010E94D533EE850B
:1008A000FF8526A137A140A551A50E94CB312B0180
:1008B0003C01AE85BF8596966D937D938D939C93F9
:1008C0009997DB96BC91B987B11118C0EE85FF8569
:1008D0002485358546855785C701B6010E94D533E5
:1008E0009B01AC01C301B2010E94CA31AE85BF8534
:1008F00096966D937D938D939C939997EE85FF8546
:1009000046A057A060A471A416A907A930AC21ACD9
:10091000212F302F432D522DC301B2010E94D1331C
:1009200018162CF4812F902FA32DB22D18C0AE8550
:10093000BF85D2968D919D910D90BC91A02D8A87F7
:100940009B87AC87BD879C01AD01C301B2010E94AA
:100950002F3287FF0AC08A859B85AC85BD85EE85D1
:10096000FF8586A397A3A0A7B1A7F985FF2379F0F8
:10097000AE85BF851C962D913D914D915C911F9741
:10098000C501B4010E94D5334B015C0103C0812C29
:10099000912C5401EE85FF85248935894689578934
:1009A000C701B6010E94D5339B01AC01AE85BF855E
:1009B00096966D917D918D919C9199970E94CA31E7
:1009C000A50194010E94CB316B017C019B01AC011C
:1009D000612F702F832D922D0E942F3287FD14C01E
:1009E000EE85FF8512A903A934A825A8212F302F51
:1009F000432D522DB601C7010E942F3287FD04C03E
:100A00001C2D0D2D3E2C2F2CAE85BF855E96ED91B5
:100A1000FC915F97812F902FA32DB22D808391831E
:100A2000A283B38389819A81AB81BC81EE85FF85E6
:100A300082A793A7A4A7B5A78D819E81AF81B88512
:100A400082A393A3A4A3B5A3EE85FF85E358FF4F2C
:100A5000808181112EC0EE85FF85EB5AFF4F6081AA
:100A60007181828193810E94A032EE85FF85ED5BCA
:100A7000FF4FAB0160818E859F85805C9F4F2F96D5
:100A80000FB6F894DEBF0FBECDBFDF91CF911F919F
:100A90000F91FF90EF90DF90CF90BF90AF909F901D
:100AA0008F907F906F905F904F903F902F900C941D
:100AB00002182F960FB6F894DEBF0FBECDBFDF91A0
:100AC000CF911F910F91FF90EF90DF90CF90BF904B
:100AD000AF909F908F907F906F905F904F903F90DE
:100AE0002F9008958F929F92AF92BF92CF92DF92F4
:100AF000EF92FF92CF93DF93EC016A017B01FC013F
:100B0000E35BFF4F80809180A280B3809A01AB01AC
:100B1000C501B4010E942F32C258DF4F87FF05C0C4
:100B200088829982AA82BB8212C020E030E0A901AB
:100B3000C701B6010E942F3287FF05C018821982B3
:100B40001A821B8204C0C882D982EA82FB82DF91AA
:100B5000CF91FF90EF90DF90CF90BF90AF909F909C
:100B60008F9008958F929F92AF92BF92CF92DF9213
:100B7000EF92FF920F931F93CF93DF938AE492E05B
:100B80009093B9098093B80982E68093CA0980914D
:100B90007209843028F480916D0990916E0904C027
:100BA00080916F0990917009DC01ED91FC910084B6
:100BB000F185E02D1995882309F43BC19091B7097F
:100BC000891791F08093B7090E947713DC01CB015C
:100BD0000596A11DB11D8093C2099093C309A093EE
:100BE000C409B093C50925C10E9477130091C209B9
:100BF0001091C3092091C4093091C509601771078C
:100C00008207930708F415C11092B7098091730900
:100C1000823050F0809105018F7B80930501809197
:100C200005018F7D809305011092B60980917209AC
:100C300010E0843008F041C080916D0990916E09F8
:100C4000DC01ED91FC910084F185E02D1995892B53
:100C500009F440C0C091B609D0E080916D0990912F
:100C60006E09DC01ED91FC910284F385E02D19956C
:100C7000C359D64F89878091B6098F5F8093B60993
:100C80008034D0F211E0D8CFC091B609D0E0809185
:100C90006F0990917009DC01ED91FC910284F3855C
:100CA000E02D1995C359D64F89878091B6098F5F7A
:100CB0008093B609803408F011E080916F0990911B
:100CC0007009DC01ED91FC910084F185E02D19950E
:100CD000892BD1F68091BA099091BB090196909326
:100CE000BB098093BA09112359F08091BE099091F4
:100CF000BF0901969093BF098093BE098DEF02C092
:100D00008091B6098093750987300CF492C0909158
:100D100076098091710998138CC08091B609C82F0B
:100D2000D0E082500E94C218FE01E359F64F27819D
:100D300030E0322F22274085242B2817390759F01D
:100D40008091BE099091BF0901969093BF0980934D
:100D5000BE09CFEF35C040917709ECE0F2E084E1C5
:100D600092E02191241709F4DCC68E179F07C9F77A
:100D70008091BE099091BF0901969093BF0980931D
:100D8000BE09C1E012C08091780990917909982735
:100D900089279827D4E096958795DA95E1F7909181
:100DA000CA09981708F0FBC6C2E080E8840F809358
:100DB0007709C093780983E08093B6090E94DE1812
:100DC000C093750936C0209178093091790932278E
:100DD0002327322740917A0950917B0954274527D0
:100DE0005427FA01C3E0F695E795CA95E1F78E2FEF
:100DF000BA01677077276115710511F081E08E0FD8
:100E00008093780983E08093B609420F531F90E0E6
:100E1000812C912C540183944217530709F0E4C6A6
:100E20008093B609672B19F08F5F8093B6090E94F3
:100E3000DE1824DC20911A0330911B0340911C031F
:100E400050911D030E94CA3120910802309109027D
:100E500040910A0250910B020E94D13387FF34C3A4
:100E600060916C0270916D0280E090E00E94CC3243
:100E700020E030E048EC52E40E9433326B017C0108
:100E800060916A0270916B0280E090E00E94CC3227
:100E900020E030E048EC52E40E9433324B015C0128
:100EA000609168027091690280E090E00E94CC320B
:100EB00020E030E048EC52E40E943332AB01BC0148
:100EC0009501840188EE98E002DA60916E027091DB
:100ED0006F0280E090E00E94CC3220E030E44CE1F0
:100EE00056E40E9433326093590970935A098093F3
:100EF0005B0990935C09609170027091710280E0CF
:100F000090E00E94CC3220E030E048EC52E40E94B5
:100F1000333260935D0970935E0980935F0990930B
:100F20006009609172027091730280E090E00E940B
:100F3000CC32609361097093620980936309909346
:100F400064096091F8027091F90280E090E00E94DB
:100F5000CC3220E030E040E251E40E943332609332
:100F60003509709336098093370990933809609159
:100F700078027091790280E090E00E94CC3220E00B
:100F800030E048EC52E40E9433326B017C01609106
:100F900076027091770280E090E00E94CC3220E0EF
:100FA00030E048EC52E40E9433324B015C01609126
:100FB00074027091750280E090E00E94CC3220E0D3
:100FC00030E048EC52E40E943332AB01BC019501A1
:100FD000840186E698E07BD960917A0270917B0269
:100FE00080E090E00E94CC3220E030E44CE156E416
:100FF0000E9433326093D7087093D8088093D90841
:101000009093DA0860917C0270917D0280E090E01C
:101010000E94CC3220E030E048EC52E40E943332AF
:101020006093DB087093DC088093DD089093DE0802
:10103000609172027091730280E090E00E94CC3265
:1010400060936109709362098093630990936409C6
:101050006091F8027091F90280E090E00E94CC3239
:1010600020E030E040E251E40E9433326093B30864
:101070007093B4088093B5089093B6086091840289
:101080007091850280E090E00E94CC3220E030E058
:1010900048EC52E40E9433326B017C016091820281
:1010A0007091830280E090E00E94CC3220E030E03A
:1010B00048EC52E40E9433324B015C0160918002A3
:1010C0007091810280E090E00E94CC3220E030E01C
:1010D00048EC52E40E943332AB01BC01950184011B
:1010E00084EE97E0F4D8609186027091870280E0E8
:1010F00090E00E94CC3220E030E44CE156E40E94C3
:101100003332609355087093560880935708909334
:101110005808609188027091890280E090E00E94F6
:10112000CC3220E030E048EC52E40E94333260934D
:10113000590870935A0880935B0890935C086091FB
:1011400072027091730280E090E00E94CC32609352
:1011500061097093620980936309909364096091B7
:10116000F8027091F90280E090E00E94CC3220E019
:1011700030E040E251E40E943332609331087093D2
:1011800032088093330890933408609190027091F4
:10119000910280E090E00E94CC3220E030E048EC08
:1011A00052E40E9433326B017C0160918E02709197
:1011B0008F0280E090E00E94CC3220E030E048ECEA
:1011C00052E40E9433324B015C0160918C027091B9
:1011D0008D0280E090E00E94CC3220E030E048ECCC
:1011E00052E40E943332AB01BC019501840182E6D6
:1011F00097E06DD8609192027091930280E090E048
:101200000E94CC3220E030E44CE156E40E943332BC
:101210006093D3077093D4078093D5079093D60734
:10122000609194027091950280E090E00E94CC322F
:1012300020E030E048EC52E40E9433326093D7075C
:101240007093D8078093D9079093DA076091720260
:101250007091730280E090E00E94CC32609361094B
:101260007093620980936309909364096091F80216
:101270007091F90280E090E00E94CC3220E030E0F2
:1012800040E251E40E9433326093AF077093B0079D
:101290008093B1079093B20760919C0270919D0278
:1012A00080E090E00E94CC3220E030E048EC52E454
:1012B0000E9433326B017C0160919A0270919B0213
:1012C00080E090E00E94CC3220E030E048EC52E434
:1012D0000E9433324B015C0160918C0270918D024F
:1012E00080E090E00E94CC3220E030E048EC52E414
:1012F0000E943332AB01BC019501840180EE96E07F
:101300000E94670160919E0270919F0280E090E0D0
:101310000E94CC3220E030E44CE156E40E943332AB
:10132000609351077093520780935307909354072B
:101330006091A0027091A10280E090E00E94CC3206
:1013400020E030E048EC52E40E94333260935507CD
:1013500070935607809357079093580760917202D5
:101360007091730280E090E00E94CC32609361093A
:101370007093620980936309909364096091F80205
:101380007091F90280E090E00E94CC3220E030E0E1
:1013900040E251E40E94333260932D0770932E0790
:1013A00080932F07909330076091A8027091A90253
:1013B00080E090E00E94CC3220E030E048EC52E443
:1013C0000E9433326B017C016091A6027091A702EA
:1013D00080E090E00E94CC3220E030E048EC52E423
:1013E0000E9433324B015C0160918C0270918D023E
:1013F00080E090E00E94CC3220E030E048EC52E403
:101400000E943332AB01BC01950184018EE596E068
:101410000E9467016091AA027091AB0280E090E0A7
:101420000E94CC3220E030E44CE156E40E9433329A
:101430006093CF067093D0068093D1069093D20626
:101440006091AC027091AD0280E090E00E94CC32DD
:1014500020E030E048EC52E40E9433326093D3063F
:101460007093D4068093D5069093D606609172024D
:101470007091730280E090E00E94CC326093610929
:101480007093620980936309909364096091F802F4
:101490007091F90280E090E00E94CC3220E030E0D0
:1014A00040E251E40E9433326093AB067093AC0685
:1014B0008093AD069093AE068091CC029091CD02C0
:1014C000019709F0A8C0BFC0D9D860931A037093E0
:1014D0001B0380931C0390931D038091CC02909179
:1014E000CD02019709F4BCCC08E612E0C8EED3E0C7
:1014F0005E01B8E1AB0EB11C68017E01B701F601D7
:10150000819191916F01D9D8F4E0EF0EF11CAE14E6
:10151000BF04A1F7C851DC4F045F1F4FC8358BE1F2
:10152000D80731F70AE412E0C0E0D0E0BE01D801EC
:101530008D919D918D01C1D82496C431D105B1F70B
:1015400004E512E0BE01F801819191918F01B5D8B7
:101550002496C832D105B1F70EE512E0BE01D801DC
:101560008D919D918D01A9D82496CC33D105B1F7E9
:101570006CE370E08091BC029091BD029ED860E463
:1015800070E08091BE029091BF0297D864E470E051
:101590008091C0029091C10290D868E470E080917F
:1015A000C2029091C30289D86CE470E08091C402B9
:1015B0009091C50282D860E570E08091F40290912C
:1015C000F5027BD864E570E08091F6029091F70215
:1015D00074D868E570E08091F8029091F9026DD8B6
:1015E0000AEF12E0CCE5D0E0BE01F80181919191C3
:1015F0008F0163D82496C037D105B1F704E013E01A
:10160000BE01D8018D919D918D0157D82496C43883
:10161000D105B1F725CC88EE98E00E943B0286E622
:1016200098E00E943B0284EE97E00E943B0282E633
:1016300097E00E943B0280EE96E00E943B028EE51E
:1016400096E00E943B02C0903909D0903A09E090A0
:101650003B09F0903C09C701B6010E94A03280E02E
:1016600090E00E94CC3220E030E040E251E40E9461
:10167000D5330E94A0327093D3026093D20260915E
:10168000B7087091B8088091B9089091BA080E9483
:10169000A03280E090E00E94CC3220E030E040E2D6
:1016A00051E40E94D5330E94A0327093D50260931A
:1016B000D402609135087091360880913708909176
:1016C00038080E94A03280E090E00E94CC3220E0F6
:1016D00030E040E251E40E94D5330E94A032709382
:1016E000D7026093D6026091B3077091B4078091DE
:1016F000B5079091B6070E94A03280E090E00E946A
:10170000CC3220E030E040E251E40E94D5330E9428
:10171000A0327093D9026093D80260913107709122
:10172000320780913307909134070E94A03280E005
:1017300090E00E94CC3220E030E040E251E40E9490
:10174000D5330E94A0327093DB026093DA0260917D
:10175000AF067091B0068091B1069091B2060E94DA
:10176000A03280E090E00E94CC3220E030E040E205
:1017700051E40E94D5330E94A0327093DD02609341
:10178000DC02C701B6010E94D11688E392E00E94F4
:10179000C0166091B7087091B8088091B90890910F
:1017A000BA080E94D11688E392E00E94C0166091A8
:1017B00035087091360880913708909138080E945A
:1017C000D11688E392E00E94C0166091B307709131
:1017D000B4078091B5079091B6070E94D11688E3AF
:1017E00092E00E94C016609131077091320780919B
:1017F0003307909134070E94D11688E392E00E944B
:10180000C0166091AF067091B0068091B1069091BC
:10181000B2060E94D1168BE392E00E94C01620917E
:101820003109309132094091330950913409609166
:101830003D0970913E0980913F09909140090E94B5
:10184000333220E030E048EC52E40E94D5330E946D
:10185000A03280E090E00E94CC3220E030E040E214
:1018600051E40E94D5330E94A0327093E10260934C
:10187000E0022091AF083091B0084091B10850913A
:10188000B2086091BB087091BC088091BD0890912E
:10189000BE080E94333220E030E048EC52E40E945F
:1018A000D5330E94A03280E090E00E94CC3220E04C
:1018B00030E040E251E40E94D5330E94A0327093A0
:1018C000E3026093E20220912D0830912E084091AE
:1018D0002F08509130086091390870913A08809132
:1018E0003B0890913C080E94333220E030E048EC05
:1018F00052E40E94D5330E94A03280E090E00E9422
:10190000CC3220E030E040E251E40E94D5330E9426
:10191000A0327093E5026093E4022091AB0730910E
:10192000AC074091AD075091AE076091B707709139
:10193000B8078091B9079091BA070E94333220E02E
:1019400030E048EC52E40E94D5330E94A03280E09F
:1019500090E00E94CC3220E030E040E251E40E946E
:10196000D5330E94A0327093E7026093E602209183
:10197000290730912A0740912B0750912C0760913D
:1019800035077091360780913707909138070E948C
:10199000333220E030E048EC52E40E94D5330E941C
:1019A000A03280E090E00E94CC3220E030E040E2C3
:1019B00051E40E94D5330E94A0327093E9026093F3
:1019C000E8022091A7063091A8064091A9065091FF
:1019D000AA066091B3067091B4068091B506909105
:1019E000B6060E94333220E030E048EC52E40E9418
:1019F000D5330E94A03280E090E00E94CC3220E0FB
:101A000030E040E251E40E94D5330E94A03270934E
:101A1000EB026093EA028091CC029091CD02019793
:101A200009F416C26091BC027091BD0280E090E0A2
:101A30000E94CC3220E030E040E251E40E94333298
:101A4000AB01BC0188EE98E04DD86091BC0270916A
:101A5000BD0280E090E00E94CC3220E030E040E225
:101A600051E40E943332AB01BC0182E697E03AD8E0
:101A70006091C0027091C10280E090E00E94CC327F
:101A800020E030E040E251E40E943332AB01BC017F
:101A900084EE97E027D86091C0027091C10280E087
:101AA00090E00E94CC3220E030E040E251E40E941D
:101AB0003332AB01BC018EE596E014D86091BE02D2
:101AC0007091BF0280E090E00E94CC3220E030E0D4
:101AD00040E251E40E943332AB01BC0186E698E05B
:101AE00001D86091BE027091BF0280E090E00E9438
:101AF000CC3220E030E040E251E40E943332AB01CE
:101B0000BC0180EE96E0DF91CF911F910F91FF9085
:101B1000EF90DF90CF90BF90AF909F908F900C94FC
:101B20007205842F90E0FC013197E031F105B8F5A2
:101B30008827EE58FF4F8F4F0C943C3480917809E2
:101B4000909179099827892798279C0114E0369568
:101B500027951A95E1F780917A0990917B0998274A
:101B60008927982704E0969587950A95E1F714C090
:101B700080917809909179099827892710C98091D7
:101B80007A0990917B09382F292F809178099091BB
:101B90007909982789279827820F931F00C9A7D50D
:101BA0002091C0093091C109DC01CB01820F931F44
:101BB000A11DB11D8093C6099093C709A093C809C0
:101BC000B093C90910927509E09177098E2F90E0C2
:101BD000FC013197E031F10508F02BC98827EE5759
:101BE000FF4F8F4F0C943C34F901A3E0F695E79535
:101BF000AA95E1F7EE7FF170E65BFD4FA081B18120
:101C0000E22FEF7002C0B695A795EA95E2F7E82FAC
:101C1000F0E0E359F64FA0FF0EC0A1857501640105
:101C2000092E04C0CC0CDD1CEE1CFF1C0A94D2F75C
:101C3000CA2AC1860FC075016401092E04C0CC0CEC
:101C4000DD1CEE1CFF1C0A94D2F7AC2DA095B185CB
:101C5000AB23A1879F5F983010F08F5F90E02F5FDC
:101C60003F4FDAC82091780930917909322723272C
:101C7000322F80917A0990917B099827892798279C
:101C8000482F440F40937809E3E09927820F911D74
:101C900022E02E0FA32FB0E0A817B9071CF0E093A5
:101CA000B609C5C8AA0FBB1FA65BBD4F4C911196C4
:101CB0005C91AE2FB0E0A359B64F19965C93EF5FDD
:101CC000F0E0E359F64F41873F5FE22FE1CF80918B
:101CD000780990917909982789279827FC0114E0C1
:101CE000F695E7951A95E1F7282F2F7080917A09DC
:101CF000FF27EE0FFF1FE65BFD4F8F3F81F481E072
:101D000090E0A0E0B0E004C0880F991FAA1FBB1F9D
:101D10002A95D2F720813181822B932B11C081E04B
:101D200090E0A0E0B0E004C0880F991FAA1FBB1F7D
:101D30002A95D2F780959095208131818223932333
:101D40009183808386E071C8E0917909F0E0EE0F1D
:101D5000FF1FE65BFD4F80917A0990917B099827E0
:101D600089279827EDCF8091780990917909982754
:101D70008927982740917A0950917B095427452754
:101D80005427480F591F20E037E0812C912C540133
:101D9000839484179507B1F2A82FAF70E32FF0E07A
:101DA000E359F64F618570E0022E02C07595679584
:101DB0000A94E2F7FC0174E0F695E7957A95E1F76D
:101DC000FF27EE0FFF1FE65BFD4F7501640104C0A6
:101DD000CC0CDD1CEE1CFF1CAA95D2F760FF05C0E1
:101DE00060817181C62AD72A06C0C094D0946081D0
:101DF0007181C622D722D182C0822F5F283010F095
:101E00003F5F20E00196C5CFE091790940917B09C1
:101E100010927A0986E08093B609ADE6B9E0F0E069
:101E2000EE0FFF1FE65BFD4F20E01296421711F404
:101E30000C9417071E968C911E9790E0982F882778
:101E40001F963C911F97832B819391932F5FEDCF2A
:101E5000DF91CF911F910F91FF90EF90DF90CF9086
:101E6000BF90AF909F908F900895FC01538D448D4B
:101E7000252F30E0842F90E0821B930B541710F035
:101E8000CF96089501970895FC01918D828D981742
:101E900061F0828DDF01A80FB11D5D968C91928D4E
:101EA0009F5F9F73928F90E008958FEF9FEF08954B
:101EB000FC01918D828D981731F0828DE80FF11D14
:101EC000858D90E008958FEF9FEF0895FC01918D2F
:101ED000228D892F90E0805C9F4F821B91098F7328
:101EE000992708958EED93E0F1DF21E0892B09F425
:101EF00020E0822F08958BE794E0E8DF21E0892B32
:101F000009F420E0822F089588E195E0DFDF21E0E9
:101F1000892B09F420E0822F089585EB95E0D6DF28
:101F200021E0892B09F420E0822F0895FC01848DA3
:101F3000DF01A80FB11DA35ABF4F2C91848D90E0F3
:101F400001968F739927848FA689B7892C93A089CE
:101F5000B1898C91837080648C93938D848D981358
:101F600006C00288F389E02D80818F7D80830895EB
:101F7000EF92FF920F931F93CF93DF93EC0181E0D9
:101F8000888F9B8D8C8D981305C0E889F989808195
:101F900085FD25C0F62E0B8D10E00F5F1F4F0F73D0
:101FA0001127E02E8C8DE8120BC00FB607FCFACF7C
:101FB000E889F989808185FFF5CFCE01B7DFF2CFBF
:101FC0008B8DFE01E80FF11DE35AFF4FF0829FB7A2
:101FD000F8940B8FEA89FB89808180620AC09FB7E1
:101FE000F894EE89FF896083E889F989808183709C
:101FF000806480839FBF81E090E0DF91CF911F914B
:102000000F91FF90EF900895CF93DF93EC01888DAF
:102010008823C1F0EA89FB89808185FD05C0A889F4
:10202000B9898C9186FD0EC00FB607FCF5CF808173
:1020300085FFF2CFA889B9898C9185FFEDCFCE01BC
:1020400075DFE8CFDF91CF91089580E090E0892B94
:1020500019F063DF811116C080E090E0892B19F040
:1020600053DF811112C080E090E0892B19F043DF2B
:1020700081110EC080E090E0892B79F033DF81116F
:102080000AC008950E940000E7CF0E940000EBCF35
:102090000E940000EFCF0C940000089590E0FC0136
:1020A0003197E231F10508F04EC08827EE56FF4F18
:1020B0008F4F0C943C34809180008F7703C08091C7
:1020C00080008F7D80938000089580918000877FBD
:1020D000F9CF84B58F7702C084B58F7D84BD089514
:1020E0008091B0008F7703C08091B0008F7D809386
:1020F000B0000895809190008F7707C08091900084
:102100008F7D03C080919000877F80939000089519
:102110008091A0008F7707C08091A0008F7D03C0C1
:102120008091A000877F8093A00008958091200176
:102130008F7707C0809120018F7D03C0809120019F
:10214000877F8093200108953FB7F89480918C0396
:1021500090918D03A0918E03B0918F0326B5A89B1B
:1021600005C02F3F19F00196A11DB11D3FBFBA2F29
:10217000A92F982F8827820F911DA11DB11DBC0189
:10218000CD0142E0660F771F881F991F4A95D1F74E
:10219000089585ED8093BC008091BC0084FDFCCF48
:1021A0001092D803089540916203262F30E0240F47
:1021B000311D21323105DCF42091D8032430C9F4DB
:1021C000FC0180E090E0861758F430916203219181
:1021D000DC01A05CBC4FA30FB11D2C930196F3CF83
:1021E00080916203680F6093620380E0089581E04C
:1021F000089582E00895089508950895E091910367
:1022000080919003E81730F4F0E0EE56FC4F8081A7
:1022100090E008958FEF9FEF089590919103809142
:102220009003981750F4E92FF0E0EE56FC4F208110
:1022300030E09F5F9093910302C02FEF3FEFC90101
:1022400008958091900390E020919103821B910961
:102250000895CF92DF92EF92FF920F931F93CF9347
:10226000DF937C01CB018A012091DD03222389F0D9
:10227000EB016B01C40ED51ECC15DD0561F0699133
:10228000D701ED91FC910190F081E02DC7011995E6
:10229000F3CF642F88DFC801DF91CF911F910F9199
:1022A000FF90EF90DF90CF900895CF93DF931F9230
:1022B000CDB7DEB769832091DD032223D1F02091D1
:1022C000DA03203240F021E030E0FC013383228346
:1022D00080E090E014C08091DB03E82FF0E0E05E46
:1022E000FC4F998190838F5F8093DB038093DA03A7
:1022F00004C061E0CE01019656DF81E090E00F90CE
:10230000DF91CF910895089580E090E008950E94B4
:1023100044341F920F920FB60F9211240BB60F92F6
:102320002F933F934F935F936F937F938F939F93DD
:10233000AF93BF93EF93FF938EED93E0F7DDFF91A3
:10234000EF91BF91AF919F918F917F916F915F912D
:102350004F913F912F910F900BBE0F900FBE0F909A
:102360001F9018951F920F920FB60F9211240BB663
:102370000F922F933F934F935F936F937F938F931E
:102380009F93AF93BF93EF93FF938EED93E00E94E3
:10239000371DFF91EF91BF91AF919F918F917F91E9
:1023A0006F915F914F913F912F910F900BBE0F90C6
:1023B0000FBE0F901F9018951F920F920FB60F929D
:1023C00011240BB60F922F933F934F935F936F930C
:1023D0007F938F939F93AF93BF93EF93FF938BE77D
:1023E00094E0A4DDFF91EF91BF91AF919F918F9108
:1023F0007F916F915F914F913F912F910F900BBE05
:102400000F900FBE0F901F9018951F920F920FB64E
:102410000F9211240BB60F922F933F934F935F931C
:102420006F937F938F939F93AF93BF93EF93FF939C
:102430008BE794E00E94371DFF91EF91BF91AF9120
:102440009F918F917F916F915F914F913F912F91CC
:102450000F900BBE0F900FBE0F901F9018951F92FC
:102460000F920FB60F9211240BB60F922F933F933A
:102470004F935F936F937F938F939F93AF93BF938C
:10248000EF93FF9388E195E051DDFF91EF91BF91CC
:10249000AF919F918F917F916F915F914F913F91FC
:1024A0002F910F900BBE0F900FBE0F901F9018959D
:1024B0001F920F920FB60F9211240BB60F922F930B
:1024C0003F934F935F936F937F938F939F93AF93BC
:1024D000BF93EF93FF9388E195E00E94371DFF9132
:1024E000EF91BF91AF919F918F917F916F915F918C
:1024F0004F913F912F910F900BBE0F900FBE0F90F9
:102500001F9018951F920F920FB60F9211240BB6C1
:102510000F922F933F934F935F936F937F938F937C
:102520009F93AF93BF93EF93FF9385EB95E0FEDC12
:10253000FF91EF91BF91AF919F918F917F916F919B
:102540005F914F913F912F910F900BBE0F900FBE57
:102550000F901F9018951F920F920FB60F92112493
:102560000BB60F922F933F934F935F936F937F938D
:102570008F939F93AF93BF93EF93FF9385EB95E07A
:102580000E94371DFF91EF91BF91AF919F918F9165
:102590007F916F915F914F913F912F910F900BBE63
:1025A0000F900FBE0F901F9018951F93CF93DF933E
:1025B000282F30E0F901E458FE4F8491F901E452EC
:1025C000FE4FD491F901EE5DFD4FC491CC23B9F0DB
:1025D000162F811163DDEC2FF0E0EE0FFF1FEE5997
:1025E000FE4FA591B4919FB7F894111104C08C913E
:1025F000D095D82302C0EC91DE2BDC939FBFDF91F6
:10260000CF911F910895CF93DF9390E0FC01E452A6
:10261000FE4F2491FC01EE5DFD4F8491882361F112
:1026200090E0880F991FFC01EE53FE4FC591D491A5
:10263000FC01EE59FE4FA591B491611109C09FB7FD
:10264000F8948881209582238883EC912E230BC0F7
:10265000623061F49FB7F8948881322F30958323DC
:102660008883EC912E2B2C939FBF06C08FB7F894D4
:10267000E8812E2B28838FBFDF91CF9108958F9211
:102680009F92AF92BF92CF92DF92EF92FF926B0137
:102690007C015ADD4B015C01C114D104E104F10459
:1026A000E9F052DDDC01CB0188199909AA09BB09BF
:1026B000883E9340A105B10578F321E0C21AD10804
:1026C000E108F10888EE880E83E0981EA11CB11C79
:1026D000C114D104E104F10421F7DECFFF90EF90A3
:1026E000DF90CF90BF90AF909F908F9008952FB7BD
:1026F000F894609188037091890380918A03909186
:102700008B032FBF08951F920F920FB60F921124C3
:102710002F933F938F939F93AF93BF9380918803A1
:1027200090918903A0918A03B0918B033091870324
:1027300023E0230F2D3720F40196A11DB11D05C004
:1027400026E8230F0296A11DB11D209387038093D5
:10275000880390938903A0938A03B0938B0380919D
:102760008C0390918D03A0918E03B0918F030196FD
:10277000A11DB11D80938C0390938D03A0938E03B4
:10278000B0938F03BF91AF919F918F913F912F9104
:102790000F900FBE0F901F9018951F920F920FB6BB
:1027A0000F9211240BB60F922F933F934F935F9389
:1027B0006F937F938F939F93AF93BF93EF93FF9309
:1027C0008091B900887F803609F49CC068F5883212
:1027D00009F45BC090F4803109F454C038F48823C4
:1027E00009F4F6C0883009F44DC0F5C0883109F409
:1027F0004CC0803209F45DC0EEC0803409F468C07A
:1028000048F4803309F455C0883309F0E4C080935C
:10281000D603D8C0803509F44FC0883509F45DC0AF
:10282000883409F0D8C0D6C0883909F4C7C0A8F4E4
:10283000883709F467C038F4883609F463C08037F4
:1028400009F460C0C8C0883809F4B8C0803909F4F8
:102850005FC0803809F0BFC05BC0803B09F486C010
:1028600038F4803A09F466C0883A09F47FC0B3C0EE
:10287000803C09F4A7C0883C09F4A4C0883B09F453
:102880008AC0A9C08091D30310C09091D5038091D4
:10289000D403981770F5E091D50381E08E0F8093F3
:1028A000D503F0E0EE54FC4F80818093BB0085ECB3
:1028B00086C08093D6038EC0E091D50381E08E0F51
:1028C0008093D5038091BB00F0E0EE54FC4F8083F1
:1028D0009091D5038091D4036EC0E091D50381E03F
:1028E0008E0F8093D5038091BB00F0E0EE54FC4F37
:1028F00080838091D70381116DC081E08093D203E2
:1029000084EA61C083E08093D80310928603CFCF1E
:1029100080918603803208F051C0E091860381E007
:102920008E0F809386038091BB00F0E0EA59FC4F44
:102930008083BDCF85EC8093BC001092D80380913A
:102940008603803230F4E0918603F0E0EA59FC4FD0
:1029500010826091860370E0E0916403F09165035A
:1029600086E693E019951092860335C084E0809343
:10297000D8031092630310926203E0916003F09118
:102980006103199580916203811105C081E08093F4
:10299000620310924003E091630381E08E0F809305
:1029A0006303F0E0E05CFC4F80818093BB0090917A
:1029B000630380916203981708F479CF85E88093C8
:1029C000BC0009C085EC8093BC001092D80303C002
:1029D0001092D603DEDBFF91EF91BF91AF919F91F3
:1029E0008F917F916F915F914F913F912F910F90B8
:1029F0000BBE0F900FBE0F901F9018953091DA0309
:102A0000313208F04AC08091D8038111FCCF9091F7
:102A1000DC0322E02093D8036093D7032FEF2093A9
:102A2000D6031092D5033093D403E0E2F3E0A2EB97
:102A3000B3E020E0321721F041914D932F5FFACFA0
:102A40001092D3032091D303990F922B9093D30329
:102A50009091D203913061F41092D2039091D303FC
:102A60009093BB009091BC0093FDF8CF95EC01C012
:102A700095EE9093BC009091D8039230E1F3909141
:102A8000D6039F3F79F08091D603803241F0809148
:102A9000D603803331F084E005C081E003C082E0DA
:102AA00001C083E01092DB031092DA031092DD0381
:102AB000089561E0A3CF10929103109290031092B9
:102AC000DB031092DA031092D80381E08093D703DE
:102AD0001092D20361E084E168DD61E085E165DDAB
:102AE000E9EBF0E080818E7F808380818D7F808321
:102AF00088E48093B80085E48093BC008BEF90E17C
:102B000090936103809360038CEF90E19093650351
:102B1000809364030895DC01ED91FC910190F081B4
:102B2000E02D19941F920F920FB60F9211240F905F
:102B30000FBE0F901F901895AF92BF92CF92DF9269
:102B4000EF92FF920F931F93CF93DF93FC012081AD
:102B50002F3F39F46EBD00000DB407FEFDCF8EB5DA
:102B60003FC0C62EEC0107E010E0D12CEE24E39428
:102B7000F12CDD0C61E0888118DDB701002E01C069
:102B8000660F0A94EAF76C218A810FDD60E0888184
:102B90000CDD298130E0F901E458FE4F8491F90100
:102BA000E452FE4FB490F901EE5DFD4FA490AA20CF
:102BB00069F0811173DAEA2DF0E0EE0FFF1FE85B98
:102BC000FE4FA591B491EC91BE2231F40150110950
:102BD00008F0CFCF8D2D04C08D2D8160D82EF6CF7B
:102BE000DF91CF911F910F91FF90EF90DF90CF90E9
:102BF000BF90AF900895CF93DF931F92CDB7DEB70C
:102C0000198221E0AE014F5F5F4FB8D389810F90E9
:102C1000DF91CF910895CF93DF93EC0160E0EBDF7C
:102C2000837D682F6260CE01DF91CF9184C30895C8
:102C30008CBD9DBD08951092CD021092CC0288EEFD
:102C400098E00E94790386E698E00E94790384EE7A
:102C500097E00E94790382E697E00E94790380EE74
:102C600096E00E9479038EE596E00C94790388EE55
:102C700098E00E948E0386E698E00E948E0384EE20
:102C800097E00E948E0382E697E00E948E0380EE1A
:102C900096E00E948E038EE596E00C948E03909150
:102CA000D8039111FCCF91E09093D8039093D70370
:102CB0002FEF2093D6031092D503260F2093D40331
:102CC0009093D3039091D303880F892B8093D303E0
:102CD0008091D203813061F41092D2038091D303AA
:102CE0008093BB008091BC0083FDF8CF85EC01C0D0
:102CF00085EE8093BC008091D8038130E1F3809110
:102D0000D503861710F46091D503A2EBB3E0E2E996
:102D1000F3E080E0861721F09D9191938F5FFACFC9
:102D200008950F931F93CF93DF93EC010BEC19E001
:102D3000F801808191E09093DD038093DC03109291
:102D4000DB031092DA036D2F70E082E596E0E3DE9C
:102D5000BE01772782E596E0DEDE82E596E0A9DE19
:102D600061E0F80180819BDF1092910380939003D2
:102D700082E596E052DADF91CF911F910F9108958D
:102D8000009761F0FC0101900020E9F73197AF0155
:102D9000481B590BBC0185EB95E0D3C580E090E062
:102DA00008952F923F924F925F926F927F928F92EF
:102DB0009F92AF92BF92CF92DF92EF92FF920F93CA
:102DC0001F93CF93DF93CDB7DEB7A4970FB6F894D8
:102DD000DEBF0FBECDBF4B015C019B01AC010E9469
:102DE0003834882319F08EE392E01AC0750164012B
:102DF000E894F7F82FEF3FEF4FE75FE7C701B60121
:102E00000E94383481110EC02FEF3FEF4FE75FE78C
:102E1000C701B6010E942F32181624F482E492E012
:102E2000AFDFACC02FEF3FEF4FE75FE4C501B40168
:102E30000E94D13318161CF486E492E0F1CF2FEFF4
:102E40003FEF4FE75FECC501B4010E942F3287FDD1
:102E5000F3CF20E030E0A901C501B4010E942F3278
:102E600087FF0AC06DE285EB95E082D86C01B7FA66
:102E7000B094B7F8B09402C0C12CD12C2AE037ED41
:102E800043EA5BE3C501B4010E94CB314B015C0115
:102E90000E94A0322B013C010E94CC329B01AC016C
:102EA000C501B4010E94CA314B015C0119A27E0127
:102EB00081E2E80EF11CEAA2FBA2C301B2012AE002
:102EC00030E040E050E00E94A83129013A01605D05
:102ED000F70162937F01232B242B252B71F7CF0160
:102EE0004FDF8C016EE285EB95E042D8800F911F99
:102EF0008C010C0D1D1D83E0F82E9AE0292E312C3B
:102F0000412C512CFA94FF20C1F120E030E040E246
:102F100051E4C501B4010E94D5334B015C010E940C
:102F2000A0329B0140E050E019A26AA07BA06CA3F4
:102F3000C32ED42EE52ECA01B901A20191010E942F
:102F4000A831605DF30162933F0121153105410510
:102F5000510589F7CF0114DF080F191F6CA17C2DD3
:102F60008D2D9E2D0E94CC329B01AC01C501B40178
:102F70000E94CA314B015C01C5CFC801A4960FB6AF
:102F8000F894DEBF0FBECDBFDF91CF911F910F919F
:102F9000FF90EF90DF90CF90BF90AF909F908F9079
:102FA0007F906F905F904F903F902F9008951F9368
:102FB000CF93DF93162FCAE6D9E0988121E02093C2
:102FC000DD039093DC031092DB031092DA03A981F6
:102FD000BA81ED91FC9111970190F081E02D682F5D
:102FE000CD01199589819A81DC01ED91FC910190C7
:102FF000F081E02D612F199589819A81DF91CF9120
:103000001F9157CD0F931F93CF93DF93EC018A014C
:10301000888191E09093DD038093DC031092DB03C1
:103020001092DA0389819A8124E0629FB001112411
:103030006A5F7F4FDC01ED91FC910190F081E02D02
:10304000199560E070E089819A8165DD60E070E04B
:1030500089819A8160DDB80189819A815CDD612F67
:1030600070E089819A8157DD89819A81DF91CF91C2
:103070001F910F911ECD1F93CF93DF93EC01162F5D
:103080008091CB0991E09093DD038093DC03109253
:10309000DB031092DA036D2F70E082E596E03BDDF2
:1030A000BE01772782E596E036DD612F82E596E066
:1030B000FCD882E596E0DF91CF911F91FACCCF92B8
:1030C000DF92EF92FF92CF93DF93EC016A017B01D5
:1030D000E889F98982E080834115514E61057105C7
:1030E000B1F060E079E08DE390E0A70196010E94E5
:1030F000A831DA01C9010197A109B109B695A795CF
:10310000979587959C01211580E13807A8F0E889FB
:10311000F989108260E874E88EE190E0A7019601D9
:103120000E94A831DA01C9010197A109B109B69538
:10313000A795979587959C01EC85FD853083EE8555
:10314000FF852083188EEC89FD8986E08083EA89DB
:10315000FB89808180618083EA89FB898081886026
:103160008083EA89FB89808180688083EA89FB8982
:1031700080818F7D8083DF91CF91FF90EF90DF90F2
:10318000CF900895E6E7F9E090E02FEF3FEF981732
:1031900091F04191242748E0B90161707727369575
:1031A0002795672B21F051E0252750EA352741501C
:1031B00099F79F5FECCF922F832F0895CF93C09103
:1031C000B6098C2FDFDFEC2FF0E0E359F64F918743
:1031D000E1E0EC0FF0E0E359F64F8187CE5FC0935A
:1031E000B6099091730980917209923038F182305A
:1031F00051F0833071F0813091F49091C800906467
:103200009093C80011C09091D00090649093D0002A
:103210000BC09091300190649093300105C0909163
:10322000C00090649093C0009091050190649093C9
:103230000501909105019062909305014091B609B6
:10324000843028F480916D0990916E0904C08091BA
:103250006F099091700950E0DC01ED91FC910280C2
:10326000F381E02D66E779E01995909173098091DB
:103270007209923018F1823049F0833061F0813068
:1032800079F49091C80096FFFCCF0EC09091D000C9
:1032900096FFFCCF09C09091300196FFFCCF04C08F
:1032A0009091C00096FFFCCF909105019F7B909379
:1032B0000501909105019F7D90930501843068F58B
:1032C00080916D0990916E09DC01ED91FC91028471
:1032D000F385E02D199597FFF3CF1092B60907DA21
:1032E0002091C0093091C109DC01CB01820F931FED
:1032F000A11DB11D8093C6099093C709A093C80969
:10330000B093C9098091BC099091BD090196909331
:10331000BD098093BC09CF91089580916F09909168
:103320007009DC01ED91FC910284F385E02D199583
:1033300097FFF3CFD2CF1F93CF93DF93EC01162FDC
:1033400088818F3F31F48091CD099091CE0970DC56
:1033500002C060E02AD960E08B8127D960E8CE0105
:10336000EBDB612FCE01E8DB88818F3F09F45FDC66
:1033700061E08B81DF91CF911F9117C9EF92FF928E
:103380000F931F93CF93DF93EC017A01122F062F37
:103390000F7788818F3F31F48091CD099091CE09CC
:1033A00047DC02C060E001D960E08B81FED8602F6D
:1033B000CE01C2DB112341F06FEFCE01BDDBF7017F
:1033C00081937F011150F6CF88818F3F09F42FDC64
:1033D00061E08B81DF91CF911F910F91FF90EF9072
:1033E000E4C88F929F92AF92BF92CF92DF92EF92FA
:1033F000FF920F931F93CF93DF93EC016A017B0140
:1034000020E030E0A901C701B6010E942F32181652
:103410000CF04FC01AAA1BAA1CAA1DAACEAADFAA8A
:10342000E8AEF9AE8AAD882309F443C00E8D1F8D36
:10343000F80180809180A280B380A5019401C7012A
:10344000B6010E942F3287FF06C0F801C082D182E8
:10345000E282F3820EC020E030E0A901C501B40190
:103460000E942F3287FF05C0F8011082118212825C
:1034700013828EA09FA0A8A4B9A4CEA8DFA8E8AC10
:10348000F9ACA7019601C501B4010E94D133181609
:1034900064F0CAA8DBA8ECA8FDA8A7019601C501A5
:1034A000B4010E942F3287FF04C0CEA2DFA2E8A69B
:1034B000F9A6DF91CF911F910F91FF90EF90DF90D0
:1034C000CF90BF90AF909F908F9008954F925F9252
:1034D0006F927F928F929F92AF92BF92CF92DF9224
:1034E000EF92FF92CF93DF93CDB7DEB72C970FB655
:1034F000F894DEBF0FBECDBFFAD8C090C609D090F9
:10350000C709E090C809F090C9092091F2023091F2
:10351000F302C616D706E806F90640F4C901806131
:103520009093F3028093F20286DB06C0C9018F7E7E
:103530009093F3028093F20267E084E299E05BDB10
:103540008111ABC067E082EA98E055DB8111A5C02C
:1035500067E080E298E04FDB81119FC067E08EE971
:1035600097E049DB811199C067E08CE197E043DB8C
:10357000811193C067E08AE996E03DDB81118DC03F
:103580001092D0091092CF0960E089E00ED88091A6
:10359000F2029091F3029B7F9093F3028093F202E8
:1035A0008091390990913A09A0913B09B0913C0969
:1035B00089879A87AB87BC8720E030E042E054E4FB
:1035C000BC01CD010E94D13318160CF47CC0409090
:1035D000B7085090B8086090B9087090BA0820E019
:1035E00030E042E054E4C301B2010E94D133181626
:1035F0000CF469C08090350890903608A090370888
:10360000B090380820E030E042E054E4C501B40155
:103610000E94D13318160CF456C0C090B307D09056
:10362000B407E090B507F090B60720E030E042E044
:1036300054E4C701B6010E94D13318160CF443C0FC
:103640008091310790913207A0913307B0913407F0
:103650008D839E83AF83B88720E030E042E054E45E
:10366000BC01CD010E94D13318166CF18091AF06D8
:103670009091B006A091B106B091B20689839A8369
:10368000AB83BC8320E030E042E054E4BC01CD01D8
:103690000E94D1331816BCF019C08091CF099091C7
:1036A000D00901969093D0098093CF0906970CF426
:1036B00077CF61E089E00E94D5128091F20290916B
:1036C000F302946069CF89E090E03EC020E030E0F2
:1036D000A90169857A858B859C850E942F3287FD9B
:1036E00031C020E030E0A901C301B2010E942F32B5
:1036F00087FD28C020E030E0A901C501B4010E9487
:103700002F3287FD1FC020E030E0A901C701B601BC
:103710000E942F3287FD16C020E030E0A9016D81A4
:103720007E818F8198850E942F3287FD0BC020E01B
:1037300030E0A90169817A818B819C810E942F32BE
:1037400087FF04C08DE090E00E9485312C960FB673
:10375000F894DEBF0FBECDBFDF91CF91FF90EF9009
:10376000DF90CF90BF90AF909F908F907F906F90A1
:103770005F904F9008958F929F92AF92BF92CF9299
:10378000DF92EF92FF926091F8027091F90280E06F
:1037900090E00E94CC3220E030E040E251E40E9410
:1037A00033324B015C016091F4027091F50280E0CC
:1037B00090E00E94CC3220E030E048EC52E40E94DD
:1037C00033329B01AC0160E070E080E89FE30E942F
:1037D000CA316B017C016091F6027091F70280E0C2
:1037E00090E00E94CC3220E030E040E251E40E94C0
:1037F00033329B01AC01C501B4010E94CA319B0167
:10380000AC01C701B6010E94333220E030E040E84D
:1038100055E40E94D5336B017C01A50194010E94FF
:10382000D5339B01AC0160E070E080E895E40E9434
:10383000CA314B015C012091390930913A0940911C
:103840003B0950913C09C701B6010E94D533A5013F
:1038500094010E94CB31AB01BC0188EE98E0C1DD40
:103860002091B7083091B8084091B9085091BA0832
:10387000C701B6010E94D533A50194010E94CB3146
:10388000AB01BC0186E698E0ACDD209135083091B3
:1038900036084091370850913808C701B6010E9498
:1038A000D533A50194010E94CB31AB01BC0184EE5C
:1038B00097E097DD2091B3073091B4074091B507A9
:1038C0005091B607C701B6010E94D533A5019401F6
:1038D0000E94CB31AB01BC0182E697E082DD2091F2
:1038E0003107309132074091330750913407C701B7
:1038F000B6010E94D533A50194010E94CB31AB01E2
:10390000BC0180EE96E06DDD2091AF063091B006EF
:103910004091B1065091B206C701B6010E94D5335D
:10392000A50194010E94CB31AB01BC018EE596E06C
:10393000FF90EF90DF90CF90BF90AF909F908F90CF
:1039400050CDCF92DF92EF92FF920F931F93CF93C0
:10395000DF936C017A018B01C0E0D0E0CE15DF056A
:1039600081F0D8016D918D01D601ED91FC9101900E
:10397000F081E02DC6011995892B11F02196EECF2B
:103980007E01C701DF91CF911F910F91FF90EF90C2
:10399000DF90CF900895CF92DF92EF92FF92CF9376
:1039A000DF9326E636E646E65FE30E94D5339B01C9
:1039B000AC0160E27CEB8EEB95E40E94333220E0B8
:1039C00030E040E85FE30E94CA3120E030E040E0B0
:1039D0005FE30E94CB310E9409336B017C01CAE690
:1039E000D9E0888191E09093DD038093DC0310920D
:1039F000DB031092DA0389819A81DC01ED91FC915D
:103A00000190F081E02D60E0199589819A8151D86B
:103A100061E0888144D91092910380939003898159
:103A20009A81DC01ED91FC910284F385E02D1995DA
:103A3000C82F682F6F76606180E0B9DAC701B601E0
:103A40000E94A0328EEFB3DA6C2F80E0B0DA65E02E
:103A500070E080E090E00E943F136C2F606A80E08D
:103A6000DF91CF91FF90EF90DF90CF90A0CAFC0143
:103A7000A089B1898C91A689B78982FD0FC09C91DC
:103A8000818D8F5F8F73228D821749F0218DDF0129
:103A9000A20FB11D5D969C93818F08958C9108951E
:103AA000CF93DF9300D000D0CDB7DEB7789484B544
:103AB000826084BD84B5816084BD85B5826085BD2A
:103AC00085B5816085BD80916E00816080936E00B8
:103AD00010928100809181008260809381008091AA
:103AE000810081608093810080918000816080935B
:103AF00080008091B10084608093B1008091B0001B
:103B000081608093B00080919100826080939100E9
:103B100080919100816080939100809190008160FC
:103B2000809390008091A10082608093A100809199
:103B3000A10081608093A1008091A00081608093AA
:103B4000A000809121018260809321018091210158
:103B50008160809321018091200181608093200108
:103B600080917A00846080937A0080917A008260EC
:103B700080937A0080917A00816080937A008091AE
:103B80007A00806880937A001092C10061E086E13B
:103B90000E94031361E086E10E94D51240E052ECDE
:103BA00061E070E085EB95E08ADA80916B09909195
:103BB0006C090E945B1560E880E0F9D96AE070E06A
:103BC00080E090E00E943F1360E070E08AE794E4B8
:103BD000E2DE60E070E088EC94E4DDDE80E5809376
:103BE000CB0982E596E00E945B1511E01093DD039E
:103BF0008CE78093DC031092DB031092DA03609170
:103C0000CB0970E0660F771F82E596E00E945511A0
:103C100060E082E596E00E94FE1463E08CE73FD806
:103C2000109291038093900382E596E00E940D111B
:103C30007C0182E596E00E940D119A83898382E5DA
:103C400096E00E940D1129812F7030E0322F22273B
:103C5000280F311DFF2444E0EE0CFF1C4A95E1F7CC
:103C600089819A81992754E0959587955A95E1F72E
:103C70008E0D9F1D0A9729F42031354011F41093C1
:103C8000CC0980917209823039F0833041F0813063
:103C900049F488E195E008C08BE794E005C08EED1B
:103CA00093E002C085EB95E090936E0980936D09D7
:103CB00040E052EC61E070E080916D0990916E09F6
:103CC000FED980917309823078F08091040180667A
:103CD00080930401809105018F7B80930501809181
:103CE00005018F7D8093050180916D0990916E098A
:103CF000DC01ED91FC910284F385E02D199597FF8D
:103D0000F3CF1092B6091092B7091092BF09109222
:103D1000BE091092BD091092BC091092BB09109205
:103D2000BA0908E612E0E8EEF3E0FA83E983A98035
:103D3000BA80F8E1AF0EB11C6801E980FA80C701D2
:103D40000E944903D6018D939D936D01B4E0EB0E63
:103D5000F11CAE14BF0499F7E981FA81E851FC4FD8
:103D6000FA83E983045F1F4FE835FB4101F78AE4DA
:103D700092E09A838983E12CF12CC7010E944903C8
:103D8000A981BA818D939D93BA83A983B4E0EB0E88
:103D9000F11CE4E1EE16F10481F724E532E03A8308
:103DA0002983C7010E944903A981BA818D939D93FC
:103DB000BA83A983B4E0EB0EF11CE8E2EE16F1043D
:103DC00081F72EE532E03A832983C7010E94490337
:103DD000A981BA818D939D93BA83A983B4E0EB0E38
:103DE000F11CECE3EE16F10481F78CE390E00E9405
:103DF00049039093BD028093BC0280E490E00E944E
:103E000049039093BF028093BE0284E490E00E9435
:103E100049039093C1028093C00288E490E00E941D
:103E200049039093C3028093C2028CE490E00E9405
:103E300049039093C5028093C40280E590E00E94FC
:103E400049039093F5028093F40284E590E00E9488
:103E500049039093F7028093F60288E590E00E9470
:103E600049039093F9028093F8020AEF12E02CE5DF
:103E700030E03A83298389819A810E944903D801DD
:103E80008D939D938D01E981FA813496FA83E983BC
:103E9000E037F10581F704E013E089819A810E94FF
:103EA0004903D8018D939D938D01E981FA81349660
:103EB000FA83E983E438F10581F710922C09109216
:103EC0002B0960916E0270916F0280E090E00E9479
:103ED000CC3220E030E44CE156E40E94333260936F
:103EE000590970935A0980935B0990935C0960911A
:103EF00070027091710280E090E00E94CC3220E06C
:103F000030E048EC52E40E94333260935D097093D4
:103F10005E0980935F0990936009609172027091CD
:103F2000730280E090E00E94CC326093610970934C
:103F3000620980936309909364096091F80270911B
:103F4000F90280E090E00E94CC3220E030E040E2D4
:103F500051E40E9433326B017C0160933509709308
:103F60003609809337099093380981E090E0909367
:103F7000AA088093A90860917A0270917B0280E080
:103F800090E00E94CC3220E030E44CE156E40E9404
:103F900033326093D7087093D8088093D9089093F0
:103FA000DA0860917C0270917D0280E090E00E94CE
:103FB000CC3220E030E048EC52E40E94333260938F
:103FC000DB087093DC088093DD089093DE08609135
:103FD0007E0270917F0280E090E00E94CC3260937C
:103FE000DF087093E0088093E1089093E208C092A4
:103FF000B308D092B408E092B508F092B60882E017
:1040000090E0909328088093270860918602709131
:10401000870280E090E00E94CC3220E030E44CE166
:1040200056E40E943332609355087093560880938B
:10403000570890935808609188027091890280E037
:1040400090E00E94CC3220E030E048EC52E40E9444
:1040500033326093590870935A0880935B089093A9
:104060005C0860918A0270918B0280E090E00E946F
:10407000CC3260935D0870935E0880935F089093E4
:104080006008C0923108D0923208E0923308F09272
:10409000340883E090E09093A6078093A507609191
:1040A00092027091930280E090E00E94CC3220E076
:1040B00030E44CE156E40E9433326093D3077093AE
:1040C000D4078093D5079093D6076091940270919E
:1040D000950280E090E00E94CC3220E030E048EC95
:1040E00052E40E9433326093D7077093D8078093CD
:1040F000D9079093DA07609196027091970280E059
:1041000090E00E94CC326093DB077093DC078093D1
:10411000DD079093DE07C092AF07D092B007E09220
:10412000B107F092B20784E090E090932407809367
:10413000230760919E0270919F0280E090E00E94B0
:10414000CC3220E030E44CE156E40E9433326093FC
:1041500051077093520780935307909354076091CF
:10416000A0027091A10280E090E00E94CC3220E099
:1041700030E048EC52E40E9433326093550770936C
:10418000560780935707909358076091A202709149
:10419000A30280E090E00E94CC32609359077093B4
:1041A0005A0780935B0790935C07C0922D07D092CB
:1041B0002E07E0922F07F092300785E090E0909371
:1041C000A2068093A1066091AA027091AB0280E0E2
:1041D00090E00E94CC3220E030E44CE156E40E94B2
:1041E00033326093CF067093D0068093D1069093BC
:1041F000D2066091AC027091AD0280E090E00E9426
:10420000CC3220E030E048EC52E40E94333260933C
:10421000D3067093D4068093D5069093D60660910A
:10422000AE027091AF0280E090E00E94CC326093C9
:10423000D7067093D8068093D9069093DA06C09279
:10424000AB06D092AC06E092AD06F092AE060E94AC
:10425000B2053CD98091CC029091CD02019731F406
:104260008091CA029091CB02019759F00E941B16CF
:104270008091CA029091CB02019709F0E9C061E0F8
:10428000E8C08091CE029091CF02892B91F00E94DC
:104290003E0360931203709313038093140390936F
:1042A00015038091CC029091CD02019709F089C14C
:1042B00040C00E943E0360931603709317038093DF
:1042C0001803909319038091CC029091CD0201972D
:1042D00009F077C10E943E03209116033091170325
:1042E00040911803509119030E94CA316B017C015F
:1042F0006091C2027091C30280E090E00E94CC32D3
:1043000020E030E040E251E40E9433329B01AC01F6
:10431000C701B6010E94D13387FDA1C00E943E03B0
:1043200060931603709317038093180390931903F7
:1043300048C160915E0270915F0280E090E00E944F
:10434000CC3220E030E040E251E40E9433326B0195
:104350007C01609160027091610280E090E00E94B7
:10436000CC3220E030E040E251E40E9433329B0145
:10437000AC01C701B6010E94CB316B017C01609199
:1043800062027091630280E090E00E94CC3220E0F3
:1043900030E040E251E40E9433329B01AC01C7019E
:1043A000B6010E94CB316B017C0160916402709177
:1043B000650280E090E00E94CC3220E030E040E2F4
:1043C00051E40E9433329B01AC01C701B6010E9447
:1043D000CB316B017C01609166027091670280E0D5
:1043E00090E00E94CC3220E030E040E251E40E94B4
:1043F00033329B01AC01C701B6010E94CB310E9450
:104400009B324B015C010E943E03209112033091CC
:10441000130340911403509115030E94CA316B019C
:104420007C01C501B4010E94CE329B01AC01C701E1
:10443000B6010E94D13387FD0CC10E943E036093F8
:104440001203709313038093140390931503B9C060
:1044500060E086E00E94D5120E942510F8CE0E94EE
:10446000B20534D88091D0029091D1026091BC0203
:104470007091BD02019749F180E090E00E94CC323A
:1044800020E030E040E251E40E943332AB01BC0155
:1044900088EE98E00E9472056091BC027091BD02A6
:1044A00080E090E00E94CC3220E030E040E251E435
:1044B0000E943332AB01BC0182E697E00E94720594
:1044C0006091C0027091C1022CC080E090E00E9417
:1044D000CC3220E030E040E251E40E943332AB01C4
:1044E000BC0188EE98E00E9472056091BC02709158
:1044F000BD0280E090E00E94CC3220E030E040E25B
:1045000051E40E943332AB01BC0182E697E00E9485
:1045100072056091BC027091BD027093C1026093FC
:10452000C00280E090E00E94CC3220E030E040E227
:1045300051E40E943332AB01BC0184EE97E00E944B
:1045400072056091C0027091C10280E090E00E940B
:10455000CC3220E030E040E251E40E943332AB0143
:10456000BC018EE596E00E9472056091BE027091DA
:10457000BF0280E090E00E94CC3220E030E040E2D8
:1045800051E40E943332AB01BC0186E698E00E9400
:1045900072056091BE027091BF0280E090E00E94BF
:1045A000CC3220E030E040E251E40E943332AB01F3
:1045B000BC0180EE96E00E947205DDD80E9437169D
:1045C00082CE0E941B160E943E0360930E037093DE
:1045D0000F0380931003909311030E943E032091D8
:1045E0000E0330910F0340911003509111030E946C
:1045F000CA316B017C016091C4027091C50280E0F8
:1046000090E00E94CC3220E030E040E251E40E9491
:1046100033329B01AC01C701B6010E94D13387FD43
:104620000FC00E943E0360930E0370930F038093AC
:1046300010039093110360E087E00E94D51218CE1A
:104640000E94B2050E94661A61E087E00E94D512BE
:10465000C4CF0E94B2050E94661A0E943E032091B8
:1046600012033091130340911403509115030E94DB
:10467000CA316B017C0160915E0270915F0280E043
:1046800090E00E94CC3220E030E040E251E40E9411
:1046900033324B015C0120E030E0A901C701B601D3
:1046A0000E94D13318160CF0AAC1A5019401C701CC
:1046B000B6010E942F3218160CF4A1C18091040398
:1046C0009091050360915402709155020197F9F49D
:1046D00080E090E00E94CC3220E030E040E251E403
:1046E0000E94333220E030E040EA51E40E94CA31B7
:1046F000A50194010E943332A70196010E94D5338F
:1047000020E030E040EA51E40E94CB310AC080E072
:1047100090E00E94CC3220E030E040E251E40E9480
:104720003332AB01BC0188EE98E00E9472058091A3
:104730000403909105036091540270915502019712
:1047400089F580E090E00E94CC3220E030E040E249
:1047500051E40E94333220E030E040EA51E40E940C
:10476000CA314B015C0160915E0270915F0280E092
:1047700090E00E94CC3220E030E040E251E40E9420
:1047800033329B01AC01C501B4010E943332A70151
:1047900096010E94D53320E030E040EA51E40E94C7
:1047A000CB310AC080E090E00E94CC3220E030E0C3
:1047B00040E251E40E943332AB01BC0182E697E053
:1047C0000E94720580910403909105036091540248
:1047D00070915502019789F580E090E00E94CC32FB
:1047E00020E030E040E251E40E94333220E030E04B
:1047F00040EA51E40E94CA314B015C0160915E02C3
:1048000070915F0280E090E00E94CC3220E030E0C6
:1048100040E251E40E9433329B01AC01C501B40176
:104820000E943332A70196010E94D53320E030E088
:1048300040EA51E40E94CB310AC080E090E00E943F
:10484000CC3220E030E040E251E40E943332AB0150
:10485000BC0184EE97E00E94720580910403909160
:1048600005036091540270915502019789F580E02B
:1048700090E00E94CC3220E030E040E251E40E941F
:10488000333220E030E040EA51E40E94CA314B016B
:104890005C0160915E0270915F0280E090E00E9496
:1048A000CC3220E030E040E251E40E9433329B0100
:1048B000AC01C501B4010E943332A70196010E94E8
:1048C000D53320E030E040EA51E40E94CB310AC009
:1048D00080E090E00E94CC3220E030E040E251E401
:1048E0000E943332AB01BC018EE596E00E94720556
:1048F000809104039091050360914A0270914B02EC
:10490000019789F580E090E00E94CC3220E030E011
:1049100040E251E40E94333220E030E040EA51E4CA
:104920000E94CA314B015C0160915E0270915F028E
:1049300080E090E00E94CC3220E030E040E251E4A0
:104940000E9433329B01AC01C501B4010E94333295
:10495000A70196010E94D53320E030E040EA51E4FF
:104960000E94CB310AC080E090E00E94CC3220E06F
:1049700030E040E251E40E943332AB01BC0186E6F4
:1049800098E00E9472058091040390910503609164
:104990004A0270914B02019711F00C94AD2E80E009
:1049A00090E00E94CC3220E030E040E251E40E94EE
:1049B000333220E030E040EA51E40E94CA314B013A
:1049C0005C0160915E0270915F0280E090E00E9465
:1049D000CC3220E030E040E251E40E9433329B01CF
:1049E000AC01C501B4010E943332A70196010E94B7
:1049F000D53320E030E040EA51E40C94A82E6091D9
:104A000060027091610280E090E00E94CC3220E070
:104A100030E040E251E40E94333269837A838B8331
:104A20009C839B01AC01C501B4010E94CB312B01D9
:104A30003C01A5019401C701B6010E94D1331816AB
:104A40000CF05FC2A3019201C701B6010E942F3290
:104A500018160CF456C2809106039091070320911A
:104A60005602309157023E832D830197F1F56091F4
:104A700054027091550280E090E00E94CC3220E018
:104A800030E040E251E40E9433322B013C01AD8121
:104A9000BE81BD0180E090E00E94CC3220E030E099
:104AA00040E251E40E943332A30192010E94CA31D4
:104AB00029813A814B815C810E94333269837A83F8
:104AC0008B839C83A5019401C701B6010E94CA3162
:104AD0009B01AC0169817A818B819C810E94D533D5
:104AE000A30192010E94CB310DC0ED81FE81BF0177
:104AF00080E090E00E94CC3220E030E040E251E4DF
:104B00000E943332AB01BC0188EE98E00E9472052E
:104B1000809106039091070320915602309157022D
:104B20003E832D83019709F050C06091540270912B
:104B3000550280E090E00E94CC3220E030E040E27C
:104B400051E40E94333269837A838B839C83AD81E5
:104B5000BE81BD0180E090E00E94CC3220E030E0D8
:104B600040E251E40E94333229813A814B815C81D9
:104B70000E94CA312B013C01609160027091610278
:104B800080E090E00E94CC3220E030E040E251E44E
:104B90000E9433329B01AC01C301B2010E94333247
:104BA0002B013C01A5019401C701B6010E94CA3145
:104BB0009B01AC01C301B2010E94D53329813A8126
:104BC0004B815C810E94CB310DC0ED81FE81BF0124
:104BD00080E090E00E94CC3220E030E040E251E4FE
:104BE0000E943332AB01BC0182E697E00E9472055D
:104BF000809106039091070320915602309157024D
:104C00003E832D83019709F050C06091540270914A
:104C1000550280E090E00E94CC3220E030E040E29B
:104C200051E40E94333269837A838B839C83AD8104
:104C3000BE81BD0180E090E00E94CC3220E030E0F7
:104C400040E251E40E94333229813A814B815C81F8
:104C50000E94CA312B013C01609160027091610297
:104C600080E090E00E94CC3220E030E040E251E46D
:104C70000E9433329B01AC01C301B2010E94333266
:104C80002B013C01A5019401C701B6010E94CA3164
:104C90009B01AC01C301B2010E94D53329813A8145
:104CA0004B815C810E94CB310DC0ED81FE81BF0143
:104CB00080E090E00E94CC3220E030E040E251E41D
:104CC0000E943332AB01BC0184EE97E00E94720572
:104CD000809106039091070320915602309157026C
:104CE0003E832D83019709F050C06091540270916A
:104CF000550280E090E00E94CC3220E030E040E2BB
:104D000051E40E94333269837A838B839C83AD8123
:104D1000BE81BD0180E090E00E94CC3220E030E016
:104D200040E251E40E94333229813A814B815C8117
:104D30000E94CA312B013C016091600270916102B6
:104D400080E090E00E94CC3220E030E040E251E48C
:104D50000E9433329B01AC01C301B2010E94333285
:104D60002B013C01A5019401C701B6010E94CA3183
:104D70009B01AC01C301B2010E94D53329813A8164
:104D80004B815C810E94CB310DC0ED81FE81BF0162
:104D900080E090E00E94CC3220E030E040E251E43C
:104DA0000E943332AB01BC018EE596E00E94720591
:104DB000809106039091070320914C0230914D029F
:104DC0003E832D83019709F050C060914A02709193
:104DD0004B0280E090E00E94CC3220E030E040E2E4
:104DE00051E40E94333269837A838B839C83AD8143
:104DF000BE81BD0180E090E00E94CC3220E030E036
:104E000040E251E40E94333229813A814B815C8136
:104E10000E94CA312B013C016091600270916102D5
:104E200080E090E00E94CC3220E030E040E251E4AB
:104E30000E9433329B01AC01C301B2010E943332A4
:104E40002B013C01A5019401C701B6010E94CA31A2
:104E50009B01AC01C301B2010E94D53329813A8183
:104E60004B815C810E94CB310DC0ED81FE81BF0181
:104E700080E090E00E94CC3220E030E040E251E45B
:104E80000E943332AB01BC0186E698E00E947205B5
:104E9000809106039091070320914C0230914D02BE
:104EA0003E832D83019709F055C760914A027091A6
:104EB0004B0280E090E00E94CC3220E030E040E203
:104EC00051E40E94333269837A838B839C83AD8162
:104ED000BE81BD0180E090E00E94CC3220E030E055
:104EE00040E251E40E94333229813A814B815C8156
:104EF0000E94CA312B013C016091600270916102F5
:104F0000C7C4609162027091630280E090E00E94E9
:104F1000CC3220E030E040E251E40E943332698339
:104F20007A838B839C839B01AC01C301B2010E94F5
:104F3000CB314B015C01A3019201C701B6010E9474
:104F4000D13318160CF05EC2A5019401C701B60159
:104F50000E942F3218160CF455C2809108039091CC
:104F6000090320915802309159023E832D83019705
:104F7000F1F5609156027091570280E090E00E9436
:104F8000CC3220E030E040E251E40E9433324B0169
:104F90005C01AD81BE81BD0180E090E00E94CC3219
:104FA00020E030E040E251E40E943332A501940158
:104FB0000E94CA3129813A814B815C810E9433323F
:104FC00069837A838B839C83A3019201C701B60115
:104FD0000E94CA319B01AC0169817A818B819C81DD
:104FE0000E94D533A50194010E94CB310DC0ED8103
:104FF000FE81BF0180E090E00E94CC3220E030E0F2
:1050000040E251E40E943332AB01BC0188EE98E0EB
:105010000E94720580910803909109032091580223
:10502000309159023E832D83019709F050C0609161
:1050300056027091570280E090E00E94CC3220E04E
:1050400030E040E251E40E94333269837A838B83FB
:105050009C83AD81BE81BD0180E090E00E94CC3296
:1050600020E030E040E251E40E94333229813A816D
:105070004B815C810E94CA314B015C0160916202EC
:105080007091630280E090E00E94CC3220E030E03A
:1050900040E251E40E9433329B01AC01C501B401EE
:1050A0000E9433324B015C01A3019201C701B6019A
:1050B0000E94CA319B01AC01C501B4010E94D533E5
:1050C00029813A814B815C810E94CB310DC0ED81F9
:1050D000FE81BF0180E090E00E94CC3220E030E011
:1050E00040E251E40E943332AB01BC0182E697E01A
:1050F0000E94720580910803909109032091580243
:10510000309159023E832D83019709F050C0609180
:1051100056027091570280E090E00E94CC3220E06D
:1051200030E040E251E40E94333269837A838B831A
:105130009C83AD81BE81BD0180E090E00E94CC32B5
:1051400020E030E040E251E40E94333229813A818C
:105150004B815C810E94CA314B015C01609162020B
:105160007091630280E090E00E94CC3220E030E059
:1051700040E251E40E9433329B01AC01C501B4010D
:105180000E9433324B015C01A3019201C701B601B9
:105190000E94CA319B01AC01C501B4010E94D53304
:1051A00029813A814B815C810E94CB310DC0ED8118
:1051B000FE81BF0180E090E00E94CC3220E030E030
:1051C00040E251E40E943332AB01BC0184EE97E02F
:1051D0000E94720580910803909109032091580262
:1051E000309159023E832D83019709F050C06091A0
:1051F00056027091570280E090E00E94CC3220E08D
:1052000030E040E251E40E94333269837A838B8339
:105210009C83AD81BE81BD0180E090E00E94CC32D4
:1052200020E030E040E251E40E94333229813A81AB
:105230004B815C810E94CA314B015C01609162022A
:105240007091630280E090E00E94CC3220E030E078
:1052500040E251E40E9433329B01AC01C501B4012C
:105260000E9433324B015C01A3019201C701B601D8
:105270000E94CA319B01AC01C501B4010E94D53323
:1052800029813A814B815C810E94CB310DC0ED8137
:10529000FE81BF0180E090E00E94CC3220E030E04F
:1052A00040E251E40E943332AB01BC018EE596E04E
:1052B0000E947205809108039091090320914E028B
:1052C00030914F023E832D83019709F050C06091C9
:1052D0004C0270914D0280E090E00E94CC3220E0C0
:1052E00030E040E251E40E94333269837A838B8359
:1052F0009C83AD81BE81BD0180E090E00E94CC32F4
:1053000020E030E040E251E40E94333229813A81CA
:105310004B815C810E94CA314B015C016091620249
:105320007091630280E090E00E94CC3220E030E097
:1053300040E251E40E9433329B01AC01C501B4014B
:105340000E9433324B015C01A3019201C701B601F7
:105350000E94CA319B01AC01C501B4010E94D53342
:1053600029813A814B815C810E94CB310DC0ED8156
:10537000FE81BF0180E090E00E94CC3220E030E06E
:1053800040E251E40E943332AB01BC0186E698E072
:105390000E947205809108039091090320914E02AA
:1053A00030914F023E832D83019709F0D3C4609161
:1053B0004C0270914D0280E090E00E94CC3220E0DF
:1053C00030E040E251E40E94333269837A838B8378
:1053D0009C83AD81BE81BD0180E090E00E94CC3213
:1053E00020E030E040E251E40E94333229813A81EA
:1053F0004B815C81CFD74B015C016091620270915F
:10540000630289C4609164027091650280E090E05B
:105410000E94CC3220E030E040E251E40E9433327E
:1054200069837A838B839C839B01AC01C501B401A2
:10543000B2D72B013C01A5019401C701B6010E941E
:10544000D13318160CF03DC2A3019201C701B60179
:105450000E942F3218160CF434C280910A039091E6
:105460000B0320915A0230915B023E832D830197FA
:10547000C1F5609158027091590280E090E00E945D
:10548000CC3220E030E040E251E4EDD72B013C018A
:10549000AD81BE81BD0180E090E00E94CC3220E071
:1054A00030E040E251E4DFD7A301920173D72981B4
:1054B0003A814B815C81D7D769837A838B839C83C4
:1054C000A5019401C701B60165D79B01AC016981B3
:1054D0007A818B819C810E94D533A30192015BD795
:1054E0000CC0ED81FE81BF0180E090E00E94CC32D3
:1054F00020E030E040E251E4B6D7AB01BC0188EED9
:1055000098E00E94720580910A0390910B0320910C
:105510005A0230915B023E832D83019709F049C006
:10552000609158027091590280E090E00E94CC3264
:1055300020E030E040E251E496D769837A838B83A0
:105540009C83AD81BE81BD0180E090E00E94CC32A1
:1055500020E030E040E251E486D729813A814B8156
:105560005C8118D72B013C01609164027091650247
:1055700080E090E00E94CC3220E030E040E251E454
:1055800072D79B01AC01C301B2016DD72B013C0165
:10559000A5019401C701B601FDD69B01AC01C30171
:1055A000B2010E94D53329813A814B815C81F3D6C7
:1055B0000BC0ED81FE81BF0180E090E0EDD720E0DF
:1055C00030E040E251E44FD7AB01BC0182E697E006
:1055D0000E94720580910A0390910B0320915A0258
:1055E00030915B023E832D83019709F046C06091A4
:1055F00058027091590280E090E0CED720E030E070
:1056000040E251E430D769837A838B839C83AD81F8
:10561000BE81BD0180E090E0BFD720E030E040E2F5
:1056200051E421D729813A814B815C81B3D62B018A
:105630003C01609164027091650280E090E0ACD71B
:1056400020E030E040E251E40ED79B01AC01C30101
:10565000B20109D72B013C01A5019401C701B60194
:1056600099D69B01AC01C301B2010E94D5332981B7
:105670003A814B815C818FD60BC0ED81FE81BF01E9
:1056800080E090E089D720E030E040E251E4EBD6C2
:10569000AB01BC0184EE97E00E94720580910A0381
:1056A00090910B0320915A0230915B023E832D832F
:1056B000019709F046C0609158027091590280E04C
:1056C00090E06AD720E030E040E251E4CCD6698334
:1056D0007A838B839C83AD81BE81BD0180E090E0A5
:1056E0005BD720E030E040E251E4BDD629813A8129
:1056F0004B815C814FD62B013C016091640270911B
:10570000650280E090E048D720E030E040E251E4DC
:10571000AAD69B01AC01C301B201A5D62B013C0165
:10572000A5019401C701B60135D69B01AC01C301A7
:10573000B2010E94D53329813A814B815C812BD6FD
:105740000BC0ED81FE81BF0180E090E025D720E015
:1057500030E040E251E487D6AB01BC018EE596E033
:105760000E94720580910A0390910B0320915002D0
:10577000309151023E832D83019709F045C060911D
:105780004E0270914F0280E090E006D720E030E0BA
:1057900040E251E468D669837A838B839C83AD8130
:1057A000BE81BD0180E090E0F7D620E030E040E22D
:1057B00051E459D629813A814B815C81EBD52B018B
:1057C0003C01609164027091650280E090E0E4D653
:1057D00020E030E040E251E446D69B01AC01C30139
:1057E000B20141D62B013C01A5019401C701B601CC
:1057F000D1D59B01AC01C301B201D7D729813A8130
:105800004B815C81C8D50BC0ED81FE81BF0180E07A
:1058100090E0C2D620E030E040E251E424D6AB0173
:10582000BC0186E698E00E94720580910A0390917F
:105830000B0320915002309151023E832D8301973A
:1058400009F088C260914E0270914F0280E090E0B2
:10585000A3D620E030E040E251E405D669837A83A4
:105860008B839C83AD81BE81BD0180E090E094D6A6
:1058700020E030E040E251E4F6D529813A814B81C5
:105880005C8188D52B013C016091640270916502B6
:1058900080E090E081D620E030E040E251E4E3D5C2
:1058A0009B01AC01C301B201DED52B013C01A50176
:1058B0009401C701B6016ED59B01AC01C301B201D1
:1058C00042C2A3019201C701B6016BD718160CF0B2
:1058D00052C280910C0390910D0320915C02309193
:1058E0005D023E832D83019709F045C060915A0205
:1058F00070915B0280E090E04FD620E030E040E223
:1059000051E4B1D569837A838B839C83AD81BE8159
:10591000BD0180E090E040D620E030E040E251E47C
:10592000A2D529813A814B815C8134D54B015C0140
:10593000609166027091670280E090E02DD620E0D1
:1059400030E040E251E48FD59B01AC01C501B401C8
:105950008AD54B015C01A3019201C701B6011AD59A
:105960009B01AC01C501B40120D729813A814B814B
:105970005C8111D50BC0ED81FE81BF0180E090E01C
:105980000BD620E030E040E251E46DD5AB01BC0124
:1059900088EE98E00E94720580910C0390910D03AF
:1059A00020915C0230915D023E832D83019709F0C6
:1059B00045C060915A0270915B0280E090E0ECD5A6
:1059C00020E030E040E251E44ED569837A838B8356
:1059D0009C83AD81BE81BD0180E090E0DDD520E0FB
:1059E00030E040E251E43FD529813A814B815C812E
:1059F000D1D44B015C01609166027091670280E036
:105A000090E0CAD520E030E040E251E42CD59B0183
:105A1000AC01C501B40127D54B015C01A301920182
:105A2000C701B601B7D49B01AC01C501B401BDD615
:105A300029813A814B815C81AED40BC0ED81FE811E
:105A4000BF0180E090E0A8D520E030E040E251E4E2
:105A50000AD5AB01BC0182E697E00E9472058091F5
:105A60000C0390910D0320915C0230915D023E8306
:105A70002D83019709F045C060915A0270915B0235
:105A800080E090E089D520E030E040E251E4EBD4C2
:105A900069837A838B839C83AD81BE81BD0180E065
:105AA00090E07AD520E030E040E251E4DCD4298176
:105AB0003A814B815C816ED44B015C01609166023E
:105AC0007091670280E090E067D520E030E040E22E
:105AD00051E4C9D49B01AC01C501B401C4D44B014C
